:400000000080002011000000450700004507000080B500AF00F0A0FB80B500AF244B12221A6001F067FD234B181C01F095FD012001F070FD302001F0DDFA1F4B1F4A1A60A9
:400040001F4B8022D2051A601E4B1E4A126802210A431A601C4B1D4A1A601D4B00221A601C4B1C4A126808218A431A60FA23DB00181C01F0B5FB184B181C01F0DFFC174B59
:400080009C2252021A60164B164A1A60164B802212061A60154B8022D2021A60144B40221A60074B8022D2051A60BD4680BDC04630001040001BB70004010B4006000080A6
:4000C0000C020B4078002E407C002E406A2D000064F02E406CF02E40DC050000000301400000014040FF008008010B4000010B400401014080B582B000AF72B63C4B0022C2
:400100001A60FB1D00221A7023E0FB1D1A78131C5B009B185B00374A9B183B603B681A78597809020A43997809040A43DB781B061343191C3B681A795B791B0213439BB2DB
:40014000081C191C00F08CFBFB1D1A78FB1D01321A70FB1D1B78012BD7D9274BEE2212061A60264B992212041A60254B992212041A60244B992212041A60234B9922120425
:400180001A60224A214B1B78DBB202210B43DBB213701F4A1E4B1B78DBB23C218B43DBB214210B43DBB21370184A184B1B78DBB216210B43DBB21370164BD82212041A60AA
:4001C000154B20221A60154BC42292021A60144B20221A60134B08221A60134B802212011A60FFF719FF00F04BFBBD4602B080BD6CF02E40D8360100000002400001024051
:4002000000500F4010500F4030500F4000700F4001700F4008000440000104400801044018010440000304400803044010B5064C2378002B07D1054B002B02D0044800E023
:4002400000BF0123237010BD60100020000000002035010008B5084B002B03D00748084900E000BF07480368002B00D108BD064B002BFBD09847F9E7000000002035010031
:4002800064100020A80B00200000000090B583B000AF62B600F026FFBC1D184B181C00F01FFB031C2380BB1D1B88002B1AD1144B181C01F085F9134B181C01F081F9124B5A
:4002C000181C01F07DF9114B181C01F079F9104B181C01F075F90F4B181C01F071F902F0EFF804E00C4B181C01F06AF9FEE700F0F9F900F013F802F0E3F8F8E7A5030000E7
:400300002435010064350100A4350100E835010004360100243601004036010080B584B000AF3B1C0C22BA181A603B1C02229A803B1C0222DA803B1C0F221A81164B1B785A
:40034000032B25D0042B17D0022B00D021E03A1C124B101C191C00220EF0FEF9104B1B78DBB2012B07D00C23FB181B789BB2181C00F0A4F80DE00CE00C23FB1800221A70F4
:400380000C23FB1800225A70002000F03FFB00E0C046BD4604B080BDAC210020B4210020B021002090B585B000AF786039607B68412B2AD005D8012B00D16DE0282B07D0E4
:4003C0006BE04C2B38D04E2B24D0432B27D064E0334B181C01F0F4F8C04600F0ABFF011C304B1A6880231B02134001D0012300E00023CB18002BF0D100F086FE00F0BEFFD9
:4004000000F000FF00F06EFE47E0274B181C01F0D7F842E03B68181C00F050F93DE03B685B88162B04D83B685A88204B1A8034E01E4B17221A8030E03B68FB60FB689B8983
:400440000F2B28D1FB681A1D0B23FC18184B101C00211A1C40230EF0B5F9031C23700B23FB181B78002B16D1114B1A785B781B021A4300231204120C1B0C1B041343181C7E
:400480000DF01EFC0B4B181C01F09AF80A4B181C01F096F801E000E0C046BD4605B090BD6C3601000802244084360100AC0B0020B4210020A0360100BC360100F0B58FB0FE
:4004C00000AF031C162038189C466346038068463861764800880338431E9C4663463B63031CBB600023FB60BB685B0F9C46FB68DA0063461A43BB68D900021C151C002271
:40050000161C6A0FF3007B607B6813437B60EB003B60031C0733DB08DB006A46D31A9D466B460033FB6200F049FE021C242310218C46BC4463441A80242310229446BC449D
:4005400063441B88002B00D1ABE01623FB181B88012B00D0A5E0242310229446BC4463441A88524B1B88033B9A420DDB504BFA2292001A804D4B1A88242310218C46BC44F5
:400580006344033A1A8010E0494B1B88013B9AB2474B1A80464B1B88002B06D0242310229446BC44634400221A80242310229446BC4463441B88002B73D03D4BFA229200B6
:4005C0001A80272310229446BC44634400221A7018E0272310229446BC4463441C7800F0BBFF031CDAB2FB6A1A55272310229446BC4463441A78272310218C46BC44634483
:4006000001321A70272310229446BC4463441B789BB2242210218C46BC44624412889A42D7D8FA6A0C2310218C46BC4463441A600C2310229446BC446344242210218C462A
:40064000BC44624412889A800C2310229446BC4463440E221A811A231022BA18D418154B0C221021791889181A785B781B021A4300231204120C1B0C1B041343181C0DF052
:40068000C9FA031C238001F01BFF1A2310229446BC4463441B88002B03D0074B1B78022BD9D03B699D46BD460FB0F0BDAC0B0020AE0B0020B4210020AC21002080B582B06F
:4006C00000AF78607B689B89112B07D17B685A687B681B89101C191C00F012FEBD4602B080BDC04680B500AF124B1B78022B06D0032B00D01CE0012000F0B6FC18E00E4BEE
:400700001B685A1E0C4B1A600B4B1B68002B0ED1094B0A4A1A600A4B1B7801225340DAB2074B1A70064B1B78181C00F09DFCC046BD4680BDAC210020B00B002050C3000020
:40074000B40B002080B500AF01F03EFE031C1B680C2B00D1FEE7FEE780B586B000AF224B7B61224B3B61204B7B6135E03B691B68FB603B695B68BB603B699B683B600023E4
:400780007B600CE0FB681A68BB681A60BB680433BB60FB680433FB607B6804337B607A683B689A42EED13B69DB683B6000237B6008E0BB6800221A60BB680433BB607B68F2
:4007C00004337B607A683B689A42F2D13B6910333B617B69013B7B617B69002BC6D101F0F9FDFFF753FDFEE701000000A43A010080B582B000AF154B144A126801218A436F
:400800001A6000237B600FE07B68032B04D8104B7A689200D35800E00E4B0F4A796889008B507B6801337B607B682F2BECD9FFF761FC0A4B00221A60044B044A1268012122
:400840000A431A60BD4602B080BDC04600001040000000004507000000000020C000002080B582B000AF786039607A683B68101C00211A1C01F0ECFDBD4602B080BDC046BC
:4008800080B500AF054B03221A60054B03221A60044B00221A60BD4680BDC0463000304030003140000E3F4080B500AF064B00221A70064B00221A70054B00221A7000F0AD
:4008C00009F8BD4680BDC046B7210020B0210020B621002080B500AF00F0C2FBBD4680BDB0B594B004AF78603E23FB1800221A802823FA183E4B111C1A1C1423081C111CCB
:400900001A1C01F09CFD3B4B1B78002B04D1FFF7CBFF384B01221A707B68002B5CD0364B7A681A603E23FB181B88002B29D11023FB181C22BA185A601023FB182022BA1831
:400940001A601023FB1800221A812023FB181B221A802023FB181B225A802023FB1804221A711C23FB1808221A703E23FC181023FA180E23FB18101C191C01F07DFE031C69
:4009800023803E23FB181B88002B29D13E23FC181A481B49AE231A012823FD180523009300230193002302932B1C01F0BBFD031C23803E23FB181B88002B11D1114B012252
:4009C0001A703E23FC18104B181C112114220DF0ABFE031C238003E03E23FB1801221A803E23FB181B88181CBD4610B0B0BDC046E43601007C100020A42100203D0D00000E
:400A0000C8000020AC2100203037010090B585B000AF021CFB1D1A70FB1D1B78022B04D90E23FB1801221A804BE0294B1B78042B42D1284B1B78DBB21A1C042313403BD117
:400A4000FB1D1B78002B0BD1234B0A221A82224B5B6820221A80204B5B6830225A8010E0FB1D1B78012B0CD11B4B96221A821A4B5B68C822D2001A80174B5B688022D201B2
:400A80005A80164BFA1D12781A700E23FC18124B181C0BF059FF031C23800E23FB181B88002B08D10B4B1B78DBB204221343DAB2084B1A7005E004E00E23FB180422FF323B
:400AC0001A800E23FB181B88181CBD4605B090BDAC210020B72100200C0C0020B621002080B584B000AF78600A1CFB1C1A700023BB60BB68002B20D07B689A79BB681A7052
:400B00000F23FB1800221A7012E00F23FB181B780133BA68D3180F22BA18127879688A5C1A700F23FB181A780F23FB1801321A700F23FB181B78052BE7D9BD4604B080BD46
:400B400080B582B000AF78607B681B789AB27B6801331B789BB21B029BB213439BB2181CBD4602B080BDC04690B585B000AF78600F23FB1800221A707B689B890B2293429A
:400B800037D17B681A1D7B680F217C18101C00211A1C40230DF016FE031C23700F23FB181B78002B1DD17B685B68181CFFF7C8FF031C1A1C022313409BB2002B08D0104BC3
:400BC0001B68822251007A68081C111C984708E00B4B1B680622FF32111C7A68081C111C9847084B1B78DBB201229343DAB2054B1A700F23FB181B78181CBD4605B090BD2F
:400C0000A4210020B721002090B585B000AF78600F23FC187B68181CFFF7A6FF031C2370144B1B78DBB21A1C012313401FD10F23FB181B78002B16D00823FB1812229A70AB
:400C40007B689A890823FB181A800823FB180F22BA181278DA707B680822BA181868111C0CF09AFF03E07B6818680DF029F8BD4605B090BDB721002080B582B000AF786011
:400C8000BD4602B080BDC04680B500AF034B00225A70024B00221A70BD4680BDB421002080B582B000AF7860BD4602B080BDC04680B500AFBD4680BD80B584B000AF7860F6
:400CC0000E23FB1800221A707B689B79002B1CD10F23FB1800221A7012E00F23FB181B787A68D35C002B04D00E23FB1801221A700BE00F23FB181A780F23FB1801321A7075
:400D00000F23FB181B78052BE7D90E23FB181B78181CBD4604B080BD80B582B000AF021CBB1D1A80BD4602B080BDC04680B582B000AF7860BD4602B080BDC04680B588B0FB
:400D400000AF021C3960FB1D1A70B94B1B78DBB201221343DAB2B64B1A70FB1D1B78712B00D94AE19A00B34BD3181B689F461423FB1807221A701423FB1800225A70142317
:400D8000FB18181C03F03CFB1423FB1807221A701423FB1801225A701423FB18181C03F02FFBA54B1B68181CFFF786FF031E11D0A14B1B68181C01F087FB9F4B1B68181C18
:400DC0000021FFF78DFE9C4B1B68181C0121FFF787FE0DE0994B181C01F076FB974B181C0021FFF77DFE954B181C0121FFF778FE03200BF057FC1023FB183F221A70102390
:400E0000FB1800225A701023FB18181C0BF068FC8B4B04221A70F1E03B68181CFFF740FFECE03B681A78874B1A70E7E03B68BB61BB691B78002B18D1BB695B78002B0BD1CB
:400E4000814B0022DA80804B00229A807E4B7F4A1A60BB697C4A5A60754B1B78DBB201229343DAB2724B1A70C8E0C7E0704B1B78DBB21A1C2023134027D1754B1B78102B4B
:400E800002D1734B0522DA70724B1A78704B101C191C0BF017FD031C1A1C0E23FB181A800E23FB181B88002B06D06B4B1B680E22BA183620111C98475D4B1B78DBB2012213
:400EC0001343DAB25A4B1A7098E097E03B68181CFFF72CFF92E03B68181CFFF727FF584B02221A708AE0564B04221A7086E0544B1B78022B40D04E4B1B78DBB21A1C0123A1
:400F0000134039D04A4B1B78DBB21A1C042313400BD04B4B03221A70454B1B78DBB204229343DAB2424B1A7026E0414B1B78DBB21A1C082313400BD0414B04221A703C4B7D
:400F40001B78DBB208229343DAB2394B1A7013E03B4B1B78032B0FD1394B04221A703F4B1B78002B08D10120FFF750FD031E03D1334B03221A7041E040E03B681B88181C07
:400F8000FFF7CAFE3AE0334A3B68111C1A1C0223081C111C1A1C01F052FA2A4B00221A70FFF786FE2AE0FFF76FFE27E03B685B88162B05D81E23FB183A6852881A8003E0ED
:400FC0001E23FB1817221A803B681E22BA1811881A8800231204120C1B0C1B041343181C0CF0E4FD0AE03B68181CFFF70DFE05E03B68181CFFF740FE00E0C0460C4B1B7854
:40100000DBB21A1C112313400FD0094B1B78DBB201229343DAB2064B1A700F4B1B68FA1D11783A68081C111C9847BD4608B080BDB721002084380100280C0020200C002017
:40104000AC210020B021002080100020A80B0020C40C0020B4210020A4210020B621002080B500AFBD4680BD80B584B000AF021CFB1D1A700E4B1B68DAB20F23FB1808217C
:401080008A431A70FB1D1B78DB00DBB208221340D9B20F23FB180F22BA1812780A431A70034B0F22BA1812781A60BD4604B080BD0003044080B500AF00F092F9BD4680BDE6
:4010C00080B500AF064B064A1268802109060A431A6000F033F800F039F8BD4680BDC0460000244080B500AF064B1B78002B04D1FFF7E0FF034B01221A70FFF7E1FFBD4623
:4011000080BDC0468810002080B500AF092000F03FFC00F021F8074B064A1268520052081A60054B00221A60092000F045FCBD4680BDC04600002440880F244080B500AF62
:40114000092000F011FCBD4680BDC04680B500AF00F0CCF9BD4680BD80B500AF00F0E0F9BD4680BD80B582B000AF00237B600F4B1A680F4B1B689A4212D00D4B1B680133A3
:401180003B603B680B4A934201D100233B600A4A3B68D3181B78DBB27B60054B3A681A607B68181CBD4602B080BDC046C8310020C021002001080000C429002080B582B048
:4011C00000AF0D4B1B683B600C4B1B683A689A4205D30A4B1B683A68D31A7B6007E0074B1B683A68D31A064A944663447B607B68181CBD4602B080BDC8310020C02100203E
:401200000108000080B500AF092000F0C1FB0E4B1A680E4B1A600E4B00221A700D4B0D4A1268802149020A431A600A4B094A126809490A401A60094B094A1A60092000F0EB
:4012400093FBBD4680BDC046C0210020C8310020C531002004032440FFFFFEFFC00F2440ED0F000080B584B000AF78601D4B1A681D4B1B689A4209D11C4B1B681F221340DC
:40128000082B03D01A4B7A681A6028E0154B1B680133FB60FA6880231B019A4201D10023FB60C046104B1B68FA689A42FAD0114B02221A607B68D9B20F4AFB68D3180A1C7F
:4012C0001A70084BFA681A600C4B1B680222134005D10A4B094A126802210A431A60BD4604B080BDBC210020B82100200802244040022440800F2440C4210020880F244011
:4013000080B584B000AF786039600023FB6009E07A68FB68D3181B78181CFFF7A3FFFB680133FB60FA683B689A42F1D3BD4604B080BDC04680B582B000AF0E4B1B683B6010
:401340000D4B1A683B689A4205D30B4B1A683B68D31A7B6008E0084B1A683B68D31A80221201944663447B607B68181CBD4602B080BDC046B8210020BC21002080B500AFB2
:40138000092000F005FB0F4B1A680F4B1A600F4B0E4A126802218A431A600D4B0C4A1268802149020A431A60094B094A126809490A401A60084B094A1A60092000F0D4FAB5
:4013C000BD4680BDB8210020BC210020880F244004022440FFFFFEFF800F2440F307000080B500AF284B294A1A60294B00221A60284B01221A60284B284A1A60284B07220B
:401400001A60284B00221A60274B01221A60274B224A1A60264B00221A60264B04221A60092000F0B5FA0920032100F049FA224B0920191C00F01EFA204B00221A60204B11
:4014400000221A601F4B00221A601F4B00221A601E4B04221A601E4B00221A601C4B1B689AB21C4B1A801C4B00221A601B4B00221A601B4B00221A701A4B00221A601A4B02
:4014800000221A60BD4680BD000024400F00000240002440480024400003244007000080040324401003244044002440000224400402244050002440791B0000880E244001
:4014C000C80E2440480F2440080F2440C80F2440880F24408A100020C8310020C0210020C5310020BC210020B821002080B500AF074B074A126807490A40902109040A43C0
:401500001A60054B054A12881A60BD4680BDC04600010240FFFF0FFF880F24408A10002080B500AF084B084A126808490A401A60074B1B689AB2E423DB0013409AB2054B2A
:401540001A80BD4680BDC04600010240FFFF0FFF880F24408A10002080B582B000AF092000F016FAFFF72AFE031E07D0092000F0FBF9FFF7F7FD031C7B6008E00E4B1B687D
:401580007B600E4B04221A60092000F0EDF90B4B1A68D8239B0013403B60084BD82292001A603B681B027A6813437B607B68181CBD4602B080BDC04640032440C00F2440E7
:4015C00080B584B000AF78600023FB6009E07A68FB68D3181B78181CFFF744FEFB680133FB607A68FB68D3181B78002BEFD1BD4604B080BD90B585B000AF78600C23FC188D
:4016000000F0B3FA031C23707B68022B00D8B4E07B68302B00D9B0E05E4B1B78DBB21A1E7B689A420AD35C4A0F23FB1812781A705A4A0E23FB1812781A703FE0584B1B784B
:40164000DBB21A1E7B689A420AD3564A0F23FB1812781A70544A0E23FB1812781A702DE0524B1B78DBB21A1E7B689A420AD3504A0F23FB1812781A704E4A0E23FB18127823
:401680001A701BE04C4B1B78DBB21A1E7B689A420AD34A4A0F23FB1812781A70484A0E23FB1812781A7009E0464A0F23FB1812781A70454A0E23FB1812781A707B68DA1EAF
:4016C0000B23FB1841498A5C1A700B23FB181B782F2B0DD97B682A2B0AD93D4B19221A60052000F039FA0D23FB1819221A7007E0374B1B68DAB20D23FB183F210A401A7004
:401700000B23FA180D23FB1812781B789A4208D22F4B7A68033A2D498A5C1A60052000F01BFA7B68284A9A180A23FB1812781A70284B0A22BA1812781A60274B0F22BA1875
:4017400012781A60254B0E22BA1812781A60052000F074F90B23FA180D23FB1812781B789A4209D91A4B7A68033A18498A5C1A60052000F0F1F903E002E0002000F030F9CD
:401780000C23FB181B78181C00F0F3F9BD4605B090BDC04640F3FF0F41F3FF0F42F3FF0F43F3FF0F44F3FF0F45F3FF0F46F3FF0F47F3FF0F48F3FF0F49F3FF0F4AF3FF0F37
:4017C0004BF3FF0F4CF3FF0F4DF3FF0F4C3A01002CFF0B4028FF0B401CFF0B4020FF0B4080B584B000AF78600023FB60154B154A126801210A431A60134B144A1A60144B9E
:40180000134A1268802109020A431A607B68002B12D01023FB600CE0012000F00FF900F019F8031E02D00023FB6005E07B68013B7B607B68002BEFD1FB68181CBD4604B06E
:4018400080BDC04660F02E4078002E400220000010002E4080B582B000AF054B1B68012213407B607B68181CBD4602B080BDC0460C002E4080B584B000AF021C3960FB1D37
:401880001A7080239B05FB60FB1D1B781F2B02D9002000F0A5F8FB1D1B7810339B00FA68D3181B68BB60FB1D1B7810339B00FA68D3183A681A60BB68181CBD4604B080BDD2
:4018C00090B587B000AF021CFB1D1A70BB1D0A1C1A70BB1D1B78032B02D9002000F080F8FB1D1B781F2B02D9002000F079F8FB1D1B7803221340DB0006337B611323FC18CB
:4019000000F033F9031C2370FB1D1B789B08DBB29B00144A944663441B68FB607B6903229A40131CDA43FB681340FB60BB1D1A787B699A40131CFA681343FB60FB1D1B7851
:401940009B08DBB29B00074A94466344FA681A601323FB181B78181C00F00BF9BD4607B090BDC04600E400E080B582B000AF021CFB1D1A70054BFA1D12781F210A400121A6
:4019800091400A1C1A60BD4602B080BD00E100E080B582B000AF021CFB1D1A70054BFA1D12781F210A40012191400A1C1A60BD4602B080BD80E100E080B582B000AF021CB8
:4019C000FB1D1A70054BFA1D12781F210A40012191400A1C1A60BD4602B080BD80E200E080B582B000AF021CFB1D1A7001BEBD4602B080BD80B582B000AF786009E00C4B4E
:401A00001B68181C00F0A8F87B680A4A944663447B607A6880231B029A42F0D8064B1B687A685343181C00F097F8BD4602B080BDD80C00200080FFFFD00C002080B582B0B0
:401A400000AF021CBB1D1A80BB1D1B88044A12785343181C00F080F8BD4602B080BDC046D40C002080B500AF0E4B0E4A126801218A431A600B4B0B4A126802218A431A60A3
:401A8000094B094A126830218A4310210A431A60054B054A126807218A4301210A431A60BD4680BD00F02E4000FF2E4080B500AF0E4B0E4A126802218A431A600C4B0C4AC7
:401AC000126807218A4302210A431A60084B084A126830218A4320210A431A60034B034A126801210A431A60BD4680BD00F02E4000FF2E4080B500AFFFF7B4FF044B044A15
:401B00001268802109060A431A60BD4680BDC04600F02E4080B584B000AF78600C4B1B6801221340FB607B68002B02D0012B03D005E0FFF797FF06E0FFF7B8FF03E000208F
:401B4000FFF74EFFC046FB68181CBD4604B080BD00F02E40000000000230800803D00138FDD1C046C046C0467047EFF3108072B6704780F31088704780B582B000AF344B2E
:401B80001B68002B02D0324B1B689847314B1B680422134027D0304B1B6801337B607B682E4A934201D100237B602D4B1B687A689A4205D12B4B1B682B4B20221A700AE096
:401BC000284B1B68D9B2294A7B68D3180A1C1A70214B7A681A60264B1B681F221340DAD1244B04221A60244B1B68022213402BD0224B1A68224B1B689A4215D0204B1B6877
:401C000001333B603A6880231B019A4201D100233B601C4B1C493A688A181278D2B21A60174B3A681A6006E0184B184A126802218A431A6005E0164B1B681F221340082BD3
:401C4000D6D1144B02221A60BD4602B080BDC0468C100020CC0F2440C831002001080000C021002040032440C5310020C429002008032440C00F24408C0F2440BC21002042
:401C8000B821002040022440C4210020880F244008022440800F244080B582B000AF78600A1CBB1C1A80BB1C1A887B681A60BD4602B080BD80B582B000AF78600A1CBB1CEC
:401CC0001A80BB1C1A887B681A60BD4602B080BD80B584B000AF494B1B78DBB21B02484A1278D2B21343FB60464B1B78DBB21B02454A1278D2B21343BB60BB68434A9342E7
:401D000007D1FB68072B04D1414BBB600423FB6009E0BA68D4231B019A4204D1FB68042B01D13B4BBB603B4BBA681A603A4BFA681A603A4B1B78DBB21B02394A1278D2B28E
:401D40001343FB60FA6880239B019A4202D0FB68002B01D1334BFB60334BFA681A60334B1B78DBB21B02324A1278D2B21343FB60FB68304A934206D0FB682F4A934202D0CF
:401D8000FB68052B01D12D4BFB602D4BFA681A602C4B1B681B097B602B4B1B68AA2B29D17B68012B26D9214B1B78DBB20E2B21D1264B1B78DBB29BB21B0299B2244B1B78C9
:401DC000DBB29AB2BB1C0A431A80224BBA1C12881A60214B1B78DBB29BB21B0299B21F4B1B78DBB29AB23B1C0A431A801C4B3A1C12881A60BD4604B080BDC04659F1FF0F7D
:401E000058F1FF0F5FF1FF0F5EF1FF0F580B0000580D00006C002E4074002E405BF1FF0F5AF1FF0F0220000078002E405DF1FF0F5CF1FF0F0F0F000005050000050F00005E
:401E400080002E40EC0F00F0E00F00F06DF2FF0F6CF2FF0F84002E406FF2FF0F6EF2FF0F94002E4080B582B000AF021CBB1D1A80BB1D1B88181CFFF7E1FDBD4602B080BDE5
:401E800080B582B000AF78607B68181CFFF7B2FDBD4602B080BDC04680B500AF00F0DEF8BD4680BD80B500AF00F0E2F8BD4680BD80B500AF00F0DCF8044B181C00F09CF8F9
:401EC000032000F0A5F8BD4680BDC046B920000080B500AF024B181C00F07CF8BD4680BDB920000080B500AF014B181CBD4680BD0202000080B582B000AF78602B23181C19
:401F0000BD4602B080BDC04680B582B000AF78602B23181CBD4602B080BDC04680B582B000AF78602B23181CBD4602B080BDC04680B582B000AF78602B23181CBD4602B0B4
:401F400080BDC04680B582B000AF78602B23181CBD4602B080BDC04680B582B000AF78602B23181CBD4602B080BDC04680B582B000AF78602B23181CBD4602B080BDC046E6
:401F800080B582B000AF78602B23181CBD4602B080BDC04680B500AF2B23181CBD4680BD80B582B000AF021CFB1D1A702B23181CBD4602B080BDC04680B582B000AF7860D5
:401FC00039602B23181CBD4602B080BD80B500AFBD4680BD80B582B000AF786000F048F87B68181C00F008F8032000F011F800F035F8BD4602B080BD80B582B000AF786072
:40200000024B7A681A67BD4602B080BD0000002090B585B000AF021CFB1D1A700623FB600B23FC18FFF7A1FD031C23700A4B0A4A1268C0218A43111CFA1D1078FA6890401A
:40204000021C0A431A600B23FB181B78181CFFF790FDBD4605B090BD0CE400E080B500AF024B802252011A60BD4680BD00E100E080B500AF024B802252011A60BD4680BD9A
:4020800080E100E090B583B000AFFC1DFFF76DFD031C2370074B074A126804218A431A6030BFFB1D1B78181CFFF763FDBD4603B090BDC04610ED00E080B500AF11F01CFAFF
:4020C000BD4680BD002243088B4274D303098B425FD3030A8B4244D3030B8B4228D3030C8B420DD3FF22090212BA030C8B4202D31212090265D0030B8B4219D300E0090ACA
:40210000C30B8B4201D3CB03C01A5241830B8B4201D38B03C01A5241430B8B4201D34B03C01A5241030B8B4201D30B03C01A5241C30A8B4201D3CB02C01A5241830A8B42F5
:4021400001D38B02C01A5241430A8B4201D34B02C01A5241030A8B4201D30B02C01A5241CDD2C3098B4201D3CB01C01A524183098B4201D38B01C01A524143098B4201D369
:402180004B01C01A524103098B4201D30B01C01A5241C3088B4201D3CB00C01A524183088B4201D38B00C01A524143088B4201D34B00C01A5241411A00D201465241104677
:4021C0007047FFE701B5002000F0FCF802BDC0460029F7D003B5FFF775FF0EBC4243891A1847C04603460B437FD4002243088B4274D303098B425FD3030A8B4244D3030BE5
:402200008B4228D3030C8B420DD3FF22090212BA030C8B4202D31212090265D0030B8B4219D300E0090AC30B8B4201D3CB03C01A5241830B8B4201D38B03C01A5241430B31
:402240008B4201D34B03C01A5241030B8B4201D30B03C01A5241C30A8B4201D3CB02C01A5241830A8B4201D38B02C01A5241430A8B4201D34B02C01A5241030A8B4201D3B2
:402280000B02C01A5241CDD2C3098B4201D3CB01C01A524183098B4201D38B01C01A524143098B4201D34B01C01A524103098B4201D30B01C01A5241C3088B4201D3CB0036
:4022C000C01A524183088B4201D38B00C01A524143088B4201D34B00C01A5241411A00D201465241104670475DE0CA0F00D04942031000D34042534000229C4603098B424C
:402300002DD3030A8B4212D3FC22890112BA030A8B420CD3890192118B4208D3890192118B4204D389013AD0921100E08909C3098B4201D3CB01C01A524183098B4201D38F
:402340008B01C01A524143098B4201D34B01C01A524103098B4201D30B01C01A5241C3088B4201D3CB00C01A524183088B4201D38B00C01A5241D9D243088B4201D34B00EE
:40238000C01A5241411A00D20146634652415B10104601D34042002B00D54942704763465B1000D3404201B5002000F00BF802BD0029F8D003B5FFF715FF0EBC4243891A11
:4023C0001847C0467047C046014B18687047C046581000200E4B70B500251E1C0D4CE41AA410A54204D0AB00F35898470135F8E711F046FB084B00251E1C084CE41AA41023
:40240000A54204D0AB00F35898470135F8E770BD8C3A01008C3A01008C3A0100943A010030B50024944208D0035D651C0C5DA34201D0181B02E02C1CF4E7002030BD002387
:4024400010B5934203D0CC5CC4540133F9E710BD031C8218934202D019700133FAE77047134A1088810703D08107890F401A001D11791030484381B25088820703D08207ED
:40248000920F801A001D800040180A494030098980B2CA0701D0503080B2890706D504495422091F09785143081880B270470000E60C00209C10002010B501F0C7FE10BD77
:4024C00010B500F055FA10BD10B50749044609780220002907D1204601F008FF002802D120460AF0D5F910BD780E002070B504460120002C12D02368002B0FD061680029E9
:402500000CD0074D06222889208118462968FFF796FF6968606809780170002070BD00009C100020FFB585B0002768460E9D07734F481C460078002802D0082009B0F0BDF7
:4025400010990F9801900095029105A807C800F001F90028F2D16946264603AB84460873002C19D0002115E08A00B75A082F09D990198078002805D0083FB7521878401C3A
:40258000187005E0002914D00027B75290198770491CC9B2A942E7D360460028CED10F98002809D0109901F001FA002804D00120C4E701208446EFE701F048FE2D4800214C
:4025C000416081600599016021888180022D07D3A1798171A17AC171A1890181218A418100211EE0481C19E082008B00A75AE65ABE46BE4211D26F463E80B4461E19029648
:40260000B678BE7001967646E6521719029EBB78B3706646A652019EBE70401CA842E3D3491CA942DED3134822460C3000906846037B0799069800F015F90028B8D16846C9
:402640000B4C007B60700B480C3001F02FFE0028AED1084907480C3107F0FEF80028A7D107F018F90028A3D10121217066E70000E00C002090100020F8B5054633480E46C3
:402680000078002802D002242046F8BD002E5BD000242F49002D16D02A89D0070DD02868002808D003881B3BE12B04D24088FB2801D81B2801D2012409E0900707D568687A
:4026C000002804D1F7E70020088108604860002CDAD11F482F8907811C481B21801D018041800421017119490020891C0870F80705D016480622801D2968FFF7A0FE14499A
:40270000B80703D56A681148127882700F480D46801D0860001F486001F00EFE0B48801D01F0FCFD28890DF0FDF828890DF064FA03461033FFF794FE1F21C0188901401851
:402740000249308088809FE701249DE7E00C00209C100020FFB58446384F1C460020BB883F78054602460646002F11D100290ED0029999420BD36146002908D0002C06D0D9
:402780000A99002906D02E4B0B99994202D2012004B0F0BD002144E0AB001F19BF78002F3BD0E35A002B38D07B43591889B22B0000F04AF8050410161C253100A7782388EE
:4027C000BC46FF27233BEB37BB4222D26346032B1FD322E0A388002B1FD0302B19D31CE02389002B19D0282B13D316E0A289002A13D01346134F233BBB420AD20DE0268A37
:40280000002A0AD033460F4F233BBB4201D2964203D901200EE0002001E000280AD16D1CEDB2099B9D42B7D31C2463435B1802998B42ACD89642AAD8AAE70000E00C002057
:4028400079020000BAFF000030B47446641E2578641CAB4200D21D46635D5B00E31830BC18470000FFB583B0002469460C801F4606468C80002806D00598002803D004982F
:402880003043800701D0012466E0002FFBD03449049809888842F6D3FFF71AFBFFF702FB00F00EFC002855D100F076FD002851D12C49084601F0AEF805042D0C4AD12A488F
:4028C0000499066081800021C18007810C98007AC00704D0684601F0D2FC040007D10C98007A800703D501A801F0D2FC0446BF1DFEB2002C20D13146059800F05DF80400B3
:402900001AD10DF087F9040016D16A461088928808368518144AF1B29088D288AEB29319984207D3401B801A80B201F063FB050007D000E0FF25012400F05AFA002D04D014
:4029400008E0F8B200F01CF9F6E700F07DFA07490120087000F0C6FB204607B0F0BD0000E40C0020A52A0000A8100020EC0C002010B503480078012801D101F0DDF910BD32
:40298000EC0C002070B5084B0446DA889E8800205518B54206D81D68AA182260DA885118D98070BD032070BDA81000200148008970470000A8100020F0B587B007460D4634
:4029C00000208900009006916846FFF7DBFF844600285DD1304800990160002117E02E4B88001A680629115406D22C4C0419667882185670628805E0C419203CA67A82185B
:402A0000567022891B68C018491C4280C9B2A942E5D300242DE0601CC2B2059025E01E4FA30039689600581840887118039604904E88B04217D938466F46FE80B6464F7869
:402A40006E4677710297049F4F800168039F5E18767879184E700168764659184E800068029F18184770521CD2B2AA42D7D30598C4B2AC42CFD36046002809D1684606997D
:402A8000FFF780FF8446002802D1054900980860604607B0F0BD0000F00C0020B83A0100F40C00207047000010B5002809D005494A68002A05D0011F08788000105801F060
:402AC00047FA10BDF00C002010B50446FFF76EFFC0B2801DA0420CD307484068002808D0A100405801F0A6F9002801D00470001D10BD002010BD0000F00C0020F8B5164641
:402B00000D460446FFF752FFC0B2801DA04203D20020C0430090F8BDB2B2E9B2684601F0AFF90099481C03D0024AA000526811500098F8BDF00C0020F8B50746FFF736FFD8
:402B4000801DC6B20A49002005460C680DE06178002907D06188B94202D32078FFF7B4FF002804D1241D6D1CEDB2B542EFD3F8BDF00C002010B5002801D0FFF795FF10BD49
:402B800070B506460948002504680BE06178002905D062882078121D0023FFF7AFFF241D6D1CEDB2B542F1D370BD0000F00C0020FFB581B00A9C16002BD000F0EFF805465D
:402BC000042826D0214F002C0BD02046FFF7B4FF2901C919486000281BD022460499FFF72EFC1A4928010E5046187481019805707D20029CC000444300F0BEF80746042855
:402C00000AD000F053FAA0420ED800F04FFA201A06E0FF2005B0F0BD204600F0ABFA0020F06035720020F5E700F040FA009000F0B7FA00980121001B009000F0EDF80349EC
:402C40003A0151180098C860E6E70000B4100020F8B5060116483418217A042903D0E068002802D017E00020F8BD00F01FFA054600F096FA00F0A0F804280CD001010C487E
:402C80000F18F8680021451900F0C6F80020F860284600F06FFA6068054D002801D0FFF769FF042020720020A8516081E060DAE7B4100020FEB500266A463046012325498A
:402CC000050169180D7A042D02D0C96800291BD000211154401CC0B20428F0D300246846005D002830D01B4821010818418947680568029100210160416004224181027247
:402D0000C160002E02D015E01354E3E700F054F804280ED001010F4808180190C6680021304600F079F801980021C160304600F021FA0126002D07D038460299A847002F18
:402D400002D03846FFF716FF641CE4B2042CC6D3FEBD0000B41000200EB5002005216A460090118150810348694600680DF0C7FD0EBD0000F80C0020074A002001018918A8
:402D80000B7A042B02D0C968002903D0401CC0B20428F3D370470000B41000200549002002015218127A042A03D0401CC0B20428F6D37047B410002030B50A4B04200A4C8B
:402DC00000210A011219157A042D06D0D268002A03D09A4201D808461346491CC9B20429EFD330BDFFFF0000B41000207047000030B50020074C05460423020111190B728A
:402E0000A5504D60401C4D81C0B2CD600428F4D330BD0000B410002030B5094C00231A011219157A042D04D0D568002906D02D18D5605B1CDBB2042BF1D330BD2D1AF7E76D
:402E4000B4100020002070471CB5002469460C70142001902346054A05480DF055FD04480068401C00D1FF2420461CBDC52E0000F80C00203EB5124A0146FF200023012407
:402E8000126800290DD0012914D0042908D104206946009308814B8110460DF030FD80B23EBD6846009304814381694610460DF021FDF4E768460093048143816946EBE786
:402EC000F80C002070B545890468416800890300FFF7BAFC08280509091E22282628002005F08CFB1EE0022908D0C8B22A4621460BF0C8FE2046FFF73DFE13E002202A46A6
:402F000021460BF0BFFE2946204600F00DF809E000200DF0E3F905E02046FFF7CBFE01E0FFF754F8002070BD014B0022DB681847FC0C002070B5448905680089022803D02F
:402F4000032809D0FF2070BD2246094C0023A46829460120A04708E0FFF7AEFA241DA2B200232946022006F040FB002070BD0000FC0C0020704700000248002141600180E5
:402F800041807047FC0C002070B50C46002186B016460391012802D0022859D116E003A9012006F06AFB01281BD1039D324621462846FFF744FA0095287801900220694679
:402FC00008814E816846FFF7B5FF41E0214D002B686809D0049004A9022006F04EFB01281DD0022006B070BD002812D0298840182146FFF724FA28880024801980B228802C
:403000006988091D884206D12C801348FFF792FF03E00320E6E788421AD96C6018E004986860E278A378110219430B4A698000231060E3565360032313815181A17881705B
:40304000E178C1706178417021780170042028800020C7E7FC0C0020F41000203EB515460C46022803D004280CD000203EBD0091019002206946088107484A8100680DF091
:403080003EFC07E00BF0FEFD044B0022DB6829462046984701203EBDF80C0020FC0C0020014AD16090607047FC0C0020034801688068081A0A214843000970470011002079
:4030C00010B5FEF7F5FE482204490548FFF7B7F903490120C870002010BD0000D43A01000415002010B5FEF7D7FE10BD70B5134C2368002B08D0207B1149C20705D0400856
:40310000400020738868A08070BD88680B4AA18880B29268814203D90A4D691A091802E0814202D2411A5118A160A080A0689842EAD30DF001FC00F013F870BD00110020FB
:40314000C0102E40FFFF000010B508461946FFF7A7FF10BD704710B5FFF780FF10BD000003480021016041608160C1607047000000110020024610B5FF20002A0CD0FFF7FA
:40318000EFFF064C0321207B0843207310010A21FFF71EF82060002010BD00000011002000B504480A21806848430209FFF7D8FF104600BD001100200248007B8007C00F76
:4031C000704700000011002010B54B490868002802DA4A4B01221A70022290430860484800694549C00B4031096A0246C907C90F0A4259D0012000F097FA3F480E216C30EA
:40320000FEF758FD3E4820218430FEF753FD3C4814219C30FEF74EFD3948FF21C131A430FEF748FD3648FF212F31B030FEF742FD33483449BC30FEF73DFD31483249AC3029
:40324000FEF738FD30492E48491CB430FEF732FD2B482E49B830FEF72DFD29482C49CC30FEF728FD26482B490830FEF723FD24482949A830FEF71EFD214828498830FEF75F
:4032800019FD1F4826498C30FEF714FD1C481921C9029030FEF70EFDFEF71AFDFEF722FEC0B2022812D01FE000290BD0002101420AD0114801216030FEF7FCFC0120FEF749
:4032C000DFFD97E70121F2E7FF2010BD15491648FEF7F0FC14481549001DFEF7EBFC124800210830FEF7E6FC54200449C043891C0870002010BD000000F02E400C0D00204E
:4033000000002E40320300002F3F00003102000010520000EC160000FA12000031D000003AE300009956000080012E40F80F000070B50646581C80B245086D00002408E0F9
:40334000304600F0C1F81055000A1119A41C4870A4B2AC42F4D3D80705D0D0182038D15CC47FD454C17770BD30B50A4C002100195B1E07E0541864782502545C2C4304803A
:40338000891C89B29942F5DB994201D1515C018030BD000000102E4010B5FF2000F0C4F90F49FF2048700E481021801D41800121417001700A490020C91C4870FFF704FF4A
:4033C00004000AD100F010F907210648FEF764FC044807211830FEF75FFC204610BD00000C0D0020CC112E4070B5002405465B1E0AE0284600F068F8010A161971702D1D4D
:403400001055A41CADB2A4B29C42F2DB9C4203D1284600F059F8105570BD000070B500210A4D5B1E0AE0541864782602545C344346193480001D891C80B289B29942F2DB93
:40344000994202D1515C4019018070BD00102E40F0B50599091FCFB200217E1E0BE0541864782502545C2C43164D45192C80001D891C80B289B2B142F1DBFC0712D01C7876
:40348000515C24020F4A0C4381180C809C785D78001D210280B2294384182180001D80B2D9780CE059781A7809021143054A84182180001DD9789B78090280B219438018DC
:4034C0000180F0BD00102E40014940180088704700102E4010B50B490020487000F084F8002000F047F9002000F034F907210648FEF7D2FB044807211830FEF7CDFB002006
:4035000010BD00000F0D0020CC112E4010B50B46062812D006DC01280CD0032801D1FFF7D9FF10BD0A28FCD00B28FAD105480078107010BDFFF730FF10BD1146184600F0ED
:4035400035F910BD120D0020F8B5244DAC6A0127A007234E002816DA307806280ED1286A384328621F480069F903084381B21D481030FEF79FFB042000F0D6F81748022157
:403580002830FEF789FBE00718D000F0E1FE01280FD1002000F02EFF062000F0C5F81049FF20C91E48707078002802D1686B384368630A4801212830FEF76EFBE0050BD581
:4035C0003078042802D1052000F0AEF80348FF2101312830FEF760FBF8BD000040F02E400F0D002000002E4010B503212348FEF761FB0120FEF736FC20483038406A204C54
:4036000080076178800F890001431C480C38FEF751FB6078002808D0401E022181401820FEF7C6FEC000083800E0B82081B21548FEF740FB1348032109021438FEF73AFB62
:4036400010481149B830FEF735FB612189010F48FEF730FB0D480321001FFEF72BFB0C490C48FEF727FB0B480B496038FEF722FB084801218838FEF71DFB10BD70F02E406A
:40368000120D0020D8102E4090890000041E2E40FF0F000058122E40209000000849087806280BD148780749002803D1486B400840004863C86A01221043C86270470000E0
:4036C0000F0D002040F02E4001480078704700000F0D002000B50300FFF7B6F8080D050D0B070507090D012000BD032000BD042000BD022000BDFF2000BD0000074A9168E1
:40370000D26889B2064B92B2994204D105498A4201D1012100E000210170704780002E4033D000003FE3000010B50446FEF7BAFB072C01D9FF2C01D102480470FEF7ACFB68
:4037400010BD00000F0D002001494870704700000C0D002010B5064A012805D01921C9021046FEF7A7FA10BD1D21C902F8E7000090002E4010B50A4A141D012808D00949FA
:403780001046FEF797FA08492046FEF793FA10BD04491046891CFEF78DFA0349491DF3E788002E4031D000003AE3000070B50C460546FEF797FBC0B202280E49287804D013
:4037C000FF2810D04C280CD810E0FF2809D10A4AD0680004800F032801D0087807E09069000A553803E00878207070BD4F382070087070BD0E0D002000002E40F0B501221A
:40380000002830D000292ED00424420600D00524792342065B06D21800D0641C034600221EE00C2516466E43104D00277519AF720E4F002ABB51696007D0661EB24209D1F2
:403840000B4E86197606760E05E05E06760E8027BE1B00E080269B198919521C2E81D2B2A242DED300221046F0BD00008C13002079020000074900200C2242435218927AF9
:40388000012A05D0401CC0B20628F5D300207047012070478C130020F8B50F000446164609D0184D18496868A04202D94018A04201D38E4201D90120F8BD39462046FEF7E0
:4038C000AFFD00281BD0324639462046FEF7B7FDF0B200210C224A43521913895668F718A74208D90127A41B1B1B9772834206DAC01A1469C0B2491CC9B20629EAD3002067
:40390000F8BD00008C1300207902000010B500F05DF80748054AC16806480C46FEF78FFD04492046FFF76AFF10BD000079020000180D002010110020002070470020054A80
:40394000002902D0012902D002E0506000E0906000207047180D002070B5084C154608460549A26889182A46FEF769FDA0684019A06028B270BD000010110020180D0020FE
:403980003EB50A226946FFF7E7FF044606480A2200686946FEF744FD002802D00020C0433EBD20463EBD0000180D0020002802D0044A914201D2FF20704703490A61C860EB
:4039C0000020704779020000180D0020024800214160816070470000180D002070B5074C15460548626880182A46FFF755FF60684019606028B270BD10110020180D00209D
:403A000010B503490A220968FFF7E8FF10BD0000180D002010B50F4A002313600E4A13600E4B18600E4801600E49012008600E490860000290600E490C4808600D491430A4
:403A40000860FF381538506000F0BCF800F0CAF9002010BD440D00202C0D0020580D00205C0D0020480D0020380D0020D41400203C0D0020500D0020014610B50020002971
:403A800010D0094B1A689C685118A14209D25868196080188A0704D08A07920F891A091D196010BD002010BD2C0D0020F8B50024164E671E321F3D463168136806E01422AA
:403AC000624310328A58521C1BD0641C9C42F6D36A1C14D02C461422544322460C3288500C214843FFF7C8FF3168002808510AD031680020103408517068401C7060284625
:403B0000F8BD2546E4E73846F8BD00003C0D0020F3B50026F64381B000281BDB1E490968884217D80299002914D01B4F142204463F1D54432546396810354859401C09D06B
:403B4000FEF7B0F938682F1F4159C359994203DBFEF7A2F93046FEBD214608310091465801590C20704308180C220299FEF767FC0948761C001D0068C159B14200D10026D4
:403B80000549009A091D865008684159491C4151FEF782F90020FEBD380D0020002803DB07490968884202D90020C043704704491422091D09685043103008587047000026
:403BC000380D0020F0B500200D4A451E0346171F50600FE014260146714314680E1DA3510C461668083433511668083435511468401C635039688842ECD30020F0BD0000A1
:403C00003C0D0020F3B50026F64381B0002841DB2349096888423DD8029900293AD0204F142204463F1D54432546396810354859401C2FD0FEF736F93868415900292BD064
:403C4000211D009146580C21005971430F46C1190C220298FEF7F3FB11480021001D0068761C00590C34C0190160416081600C48001D00680159B14200D100260849009AD5
:403C8000091D865008684159491E4151FEF704F90020FEBD3046FEBDFEF7FEF8FAE70000380D0020FEB504460D4600201E49089E0860471E009001900290002C11D048681C
:403CC00085420ED2002A0CD0002E0AD0642E08D808460C3001681C2068430C18207A002801D03846FEBD0120226020721846FFF7DDFE6060401C13D06681A6810A48276188
:403D00000C3067610179A94200D205710021684601810A462846029B00F040F82846FEBD00202072DDE70000440D002038B50124009400F039F838BDFEB50027164EFF43B2
:403D40003D4600240EE01C20316860430818017A002906D04068FFF721FF002801D0254603E0641C3079A042EDDA681C12D01C2130684D434419FEF795F869466068FFF7AE
:403D800041FF0546FEF788F8002DD9D1216868468847D5E7FEBD0000500D002038B50024009400F001F838BD1FB500220C49541E0A60002811DB496888420ED808491C2284
:403DC0000C31096850430818406801A9FFF7A0FE401C02D0002004B010BD2046FBE70000440D0020F0B50021114A4D1E174611710C3F0B46BD6016E008461C24604316682B
:403E0000041D355114680646235014680836A3551468361DA353044616680A34335318301468491C255078688142E5D30020F0BD500D002038B500210091002811DB0F494F
:403E4000097888420DDA0D4D04010C3529680859002807D0201D0818694600F06FF9002801D0002038BDFEF71DF828680F34015D491E0155FEF710F8009838BD600D0020FE
:403E8000F7B582B0002502986E1E06602E48D21C024017462D4A2C4610460C380178106805E02301C358002B0FD0641CE4B28C42F7D3711C28D03401211D401801910399A2
:403EC00000F02AF900281FD101E02646F1E71F48016820460C300F521C480399026820460E30115419480399026820460F3011540398784300F0A0F814490028096808518E
:403F000002D00024009011E001251AE00F48016801980818009900F02CF9002801D0012502E00098C0190090641CE4B203988442ECD3002D05D10298066004480179491C5D
:403F40000171284605B0F0BDFCFF00006C0D0020F8B50D4600216A468C461180002839DB23490978884235DA214B04010C3319680A59002A2ED020460C300B5A801C0E5C6C
:403F8000184670438018954224D3854222D2002006E007465F43BF18AF4206D0401CC0B2B042F6D36046002814D0114E271DC8190C366A46294600F006F900280AD168467C
:403FC0000088012808D030682946C01900F0D1F8002803D00120F8BD0020F8BDFDF762FF30680F34015D491C0155FDF755FFF3E7600D0020F8B50F46002400F031F800289A
:4040000017D10C4900220B460C334A600EE021011D680E466A501D680C36AA53B61C1D680F31AA551D68641C6A54E4B2BC42EED31A71F8BD600D002000280BD0C01C074AD5
:4040400081085068890053884118994203D89368516018187047002070470000600D0020F8B5064600200F4D009029700C0121466846FEF787FC00280CD129460C31009814
:404080000860301B001F84B221466846FEF77AFC002801D0FF20F8BD6C800098A8600020F8BD0000600D0020F8B5002827DB19490978884223DA174C05010C342168485969
:4040C00000281CD028460C30085A009028460E300E5C401C0E5420682F1DC01900F064F800280CD12068002445590EE0094829460C300068C01900F03CF8002801D001208B
:40410000F8BD00982D18641CE4B2B442EED30020F8BD0000600D002030B50D4604000BD0A800FFF789FF6060002805D000202570C0436080002030BD012030BD70B50D4699
:40414000040005D0002D03D00220205E002801DA012070BDFDF7A6FE0221615E60688900405828606088401E6080FDF795FE002070BD70B50D46040007D0002D05D0022118
:404180002078615E401E814201DB012070BDFDF789FE6088401C00B26080616880000D50FDF77AFE002070BD10B5040009D0227800216068FEF74CF90020C043608000202B
:4041C00010BD012010BDF0B500231D46002802D00224045F0AE00120F0BD46689F00F6598E4201D1012503E05B1CDBB29C42F4DA15700020F0BD00000148007870470000DD
:40420000740D00207CB505460024FEF755F9A8796946087000A8062229460130FEF70FF90021684604F0B0FC0C2806D0072806D01F2806D0122806D006E0022404E0042482
:4042400002E0272400E0012420467CBD10B500F05FF9FFF739FAFFF73DFA10BD70B504460025FEF729F9002C06D0A079012803D8214602F067FC00E00125284670BD0146CF
:404280000120002902D05020088000207047000001460120002905D003485422007850430880002070470000760D002010B502460D49FE204870032410460CF043FE0028C4
:4042C00010D10CF0E7FD00280CD105F033FA002808D100F013FB002804D104F0FBFE002800D10024204610BD740D002070B50025044600280ED0A07901280BD8FEF7DCF874
:40430000A0790028204602D002F0C2FF03E002F097FF00E00125284670BD0000014610B50120002904D006220248FEF788F8002010BD0000800D002001460120002903D036
:40434000087802490870002070470000760D00200148007A704700000C16002038B504460120002C20D0617801291DD800290BD0FF25E535FEF7A0F80C4828180088C0B2FB
:404380002070072803D00EE0FF25CD35F2E70020694608706846FFF7B1F969460878012801D108202070002038BD000000102E40014A002192681047740D002008B5002237
:4043C0006B461A7026280CD0094A342852680BD0352805D1900703D50021352005F07CFA08BD19462620F9E7D007F9D03420F5E7740D002001490872704700000C16002019
:40440000F8B504460120002C26D06178012902D92278092A20D8002905D0FF25E5352078092803D004E0FF25CD35F8E708202070FEF742F82078114F114E08280DD0002073
:40444000FFF798F970780128207810D00D4969180880FE2070700020F8BD0120FFF78AF90720B8810549203188800120F2E7B8810248217820308180EBE70000C0112E40E1
:40448000740D002000102E4070B50E46050001D0002400E00C4C002C11D0E28A500609D5D107C90F022002F087FFE08A40218843E08204E0D107C90F012002F07DFF3146A9
:4044C000284602F065FC70BD6C150020F8B50546002004460D4E009013E022466946284600F0CAFF0098002801D00CF00DFDA878214602F085FAA878214602F073FA641CBA
:40450000E4B2308AA042E8D8F8BD00003416002038B51E4CFFF7D8F8042813D0052811D0062812D003282AD007280AD100206946087002460120FEF7E9FFFFF7C5F8012888
:40454000FBD138BD00F06BFB38BD02F0AFFA00F066FB02F02BFB8007800F0228F4D10C4841880029F0D05B21095D0029ECD101210170A07D0140022002F01EFF38BD02F04F
:4045800099FA0120FFF7D0F838BD00006C1500209A0D0020F8B50646002402F07BFF0546304602F091FF03460A480021068A0DE001228A401046174628401F40002803D0C5
:4045C000002F01D1224394B2491CC9B28E42EFD82046F8BD341600201CB50020694648706846FFF7BBFE01AA69460A20FEF78EFF6946042008561CBD70B50D4601F01CFBCE
:4046000004000BD02079002808D0FDF755FFE178A0782A4602F042FC002070BD022070BD0148007870470000441500204030C07E002800D00120704700B500F001F800BD43
:40464000902148430749084A40186030417F491CC9B24177D289914201D300214177C8B2704700004C1500203416002013B501F0E3FA04000BD001F080FE002807D02146DB
:4046800001AA0A310620FEF741FF00201CBD02201CBD000010B50C4601F0CEFA00280AD001F06BFE002806D0224604490A20FEF72DFF002010BD022010BD00002D1500205D
:4046C000F3B581B0074601460026029802F0DAFE0446002F01D0002500E0154D002D21D0284601F0DFFA032C04D13946029802F025FF06463846029902F074F9032C06D0C0
:40470000002C10D00121384601F0D2FB03E03146384603F00FF9284602F058F80221284602F06EF8FEBD3846029902F05BF9FEBD6C15002010B5044600F05AFA002804D1DD
:4047400003F0B0FD002801D00C2010BD2078611C02F0A6FCFF2801D01F2010BD02F0ECFCFF280AD02178621C02F0CAF8044821780068026B601C904710BD072010BD000086
:40478000C00D002010B503F08DFD002801D00C2010BD02F067FC03480068C06A8047002010BD0000C00D002070B50D46044610210CF0EAFA1021601806460CF0E5FA3346E9
:4047C00010221946204603F09BFD102130460CF0DBFA02202870204604F0B2FB70BD0000F8B504464078217802028006870FE0781143A67809050002090D0643084601F0F1
:404800001BFA00210546F2B2002812D0002C10D0022F0ED0032F0CD0002A0AD00279092A07D0002A05D0134A5A23527E1B5C9A4207D82889002104F0B8FA20460CF064FB83
:40484000FF21002914D10C48224600682946436930469847C0B2FF280AD128464030817EF2B2491C8176FF232146284600F0E3F8F8BD000004150020DC0D00200020704795
:4048800010B5044603F00EFD002801D00C2010BD2078611C02F004FCFF2808D002F03CFB044821780068426B601C904710BD1F2010BD0000C00D002010B500F05FF904F0B6
:4048C00009FC002010BD10B5044600786178E2780843A17811430843217908436179084305D003F0D1FC002803D00C2010BD122010BD204602F0CCFC002010BD10B5FDF7B1
:40490000F1FA02F0E9FD044803F038FD02F00EFB012000F003F810BD14150020F1B586B003A8009005A8019028489F22817A114081726846FDF7DAFD002845D16946098966
:40494000C90705D0224806990068C2686846904769460989890706D5002835D11D480068816A0698884700282ED11B4E0025757075737571F575357675767575B570F57097
:40498000B5713746F5730120CC3738731F20F880FF2130467972A0300176457600F0C4FA00242046069901F093FC002803D1641C2406240EF5D0FD720749BD72B573C031E8
:4049C0000D704D704D600D7207B0F0BD04150020DC0D0020C00D00204C15002070B505460E46084602F056FD0446304602F06CFD0121A9400A46224001400A4301D001208E
:404A000070BD002070BD10B50446084602F05CFD0121A140014201D0012010BD002010BD10B5FEF751FE032804D102F043F80120FEF77AFE10BDFEB51C4616460F460546C0
:404A400001F0C4FEA878FFF7F7FD02460190334639460094284600F00DF8002808D1A8780199FFF711FDFF2C02D138460CF04CFAFEBD0000FFB585B005460E980C46FF2826
:404A800010D02B49C00009680A5840180179C0795278814201D9012601E09006860F6846038108E06078A1788006860FE0780002014368460181284601F06AFC070007D0D3
:404AC00021462846079A00F06BFC384609B0F0BD304600F019FD04AE0346039002AA29460096204600F0A5FB3C20405D002818D0284601F04DFC012813D0684600890096CA
:404B0000C0B20190A878231DFF22079902F0F4F868460089039BC2B2A878079902F034FCD3E7684600890021C0B20091E9E70000D80D0020F8B5104F002500242846FFF7A5
:404B400029FD060012D00EE03046E040C007C00F07D02146284601F03DFF21462846FFF7AFFD641CE4B2388AA042EDD86D1C2D062D0EE2D0F8BD00003416002010B502F0BF
:404B8000D5F90020FFF7CAFE0CF054FA002010BDF8B5002400F0B2F80123012800D10124104F00203E4620360425082203E0002801D0002100E031460979002907D00129B8
:404BC0000BD002290BD0114681402143CCB2401C0006000EEBD07C70F8BD1C43F7E72C43F5E700004C15002010B5FFF7D1FF10BD10B5044604F0C0FB002802D1601C00F088
:404C000001F810BD1CB500240094062269460194FDF706FC002800D1122420461CBD10B5FCF7A3FF0446FEF74FFD012809D0FEF74BFD022805D0FDF725FA2046FCF799FF2E
:404C4000EEE72046FCF795FF10BD10B50B4681791943817103D08078114602F063FB10BD10B582798A43827102D1807802F06EFB10BD000030B50C4C0220A28A0B4B9978A3
:404C8000002901D0022906D11D785B78EB18282B01D9032002E0032900D101205105490DC0020143A18230BDC0112E40900D002000B500F029F8002807D0012805D0032891
:404CC00001D0042801D0002000BD012000BD014600B50020C90701D000F010F800BD014600B50020C90701D000F008F800BD00000148006870470000880D00200148008861
:404D0000000A704720102E400448008B410501D5042070474007800F7047000000102E4010B501F009FF044601F046FF0146204601F02AFF10BD00000148406870470000C1
:404D4000880D002038B50446000610D5FFF7DCFF01280CD1684601F0BDFE6846007800F023FB012001F09AFD0220FFF73DFF600708D507480179012904D100210171262015
:404D8000FFF71CFB0348006801692046884738BD940D0020C00D002070B505460C49007800240870FFF7AAFF012803D1FFF7B8FF022803D3284602F0D7F907E0284600F05A
:404DC000EBF8040002D1034801210170204670BD900D00200C16002070B50446FFF78EFF002801D00C2070BDA27B01211F48002A827801D00A4301E0520852008270627903
:404E0000012A14D0C17849084900C170184D2868016820468847207901280CD06188208803F002F82080207904280FD015E0C2780A43C270EAE72868C168E01D8847E01D6B
:404E400002F012FA0B48808C208006E02868C168E01D8847E01D02F007FA074920798870204602F08FF9002070BD00004C150020C00D002004150020900D002008B5017832
:404E8000FFF73CFF814201D10C2008BD002914D0072069460870FFF70BFF012807D10121684600F0D9F8012801D0092008BDFFF7E1FE02F09BF9012011E0FFF7F9FE0128E3
:404EC00006D1684601F006FE6846007800F0A0FA02F082F9FFF712FF0028FBD10220FFF783FE002008BD000070B505460C49007800244870FFF702FF012803D1FFF710FF90
:404F0000022803D3284602F0EDF907E0284600F05DF8040002D1034801214170204670BD900D00200C16002038B568460BF082FF002801D01F2038BD01210098C9020180C0
:404F40004180002505714571857107214173857302F018F9009C202200212046FDF778FA25702A460021601CFDF772FA204602F0FBF8204602F0B6F900980BF0C5FF0622B4
:404F800000210448FDF764FA02480C388560002038BD0000940D0020F8B504460025684600950BF047FF002801D007250AE0064E009830602278611C401CFDF740FA316884
:404FC000207808702846F8BD880D0020F8B504460025684600950BF02DFF002801D007250AE0064E009870602278611C401CFDF726FA7168207808702846F8BD880D002030
:405000000346084800B5834209D8184600F014FE002804D00089984201D1012000BD002000BD0000FF0E0000074A9179491C8906890E917138220A4092014907090E114349
:4050400008430249084070474C150020FF0E0000C006C00E70470000F8B507460E4600240D4803E0002C01D0002500E005462979002905D0641C2406240EF3D00020F8BDB7
:405080000021204601F024F92E712046FFF7CCFF28813C700120F8BD6C15002010B503F063F90222002100F003F801F0EBFE10BD10B5094B40074907000F090F185A595AE2
:4050C00040185043C0086421FDF782F8002800D1012080B210BD00001C3B0100F7B53D20405C88B015460C46002802D02878042802D200200BB0F0BD694608720026204638
:40510000FFF794FA012800D00126204603A938300191009023460327A17E34333246206A03F046F902A8089900900B46019120463A4603A9243003F0C3F802466846007A20
:405140002870204601F0B0F81046D3E7FFB587B00C4605461078694608723D20005D1746002826D000262046FFF760FA012800D00126204603A93830019100902346A17EFA
:4051800034333246206A03F013F902A80090291D019120462B1D03A924300A9A03F090F802006846007A388002D1204601F07CF810460BB0F0BDF0B505463C20405C89B049
:4051C00016460C4600280CD0307869460873002806D000272046FFF729FA012803D003E01F2009B0F0BD012703200890204604A93830019100902346E17E34333A46E0698B
:4052000003F0D6F86846007B03A928180290009120462B46019504A92430089A03F084F802466846007B3070204601F047F81046D7E7FFB505463C20405C89B016460C465D
:40524000002810D0084601F0A3F801280BD0308869468883002809D000272046FFF7E6F9012805D005E000200DB0F0BD0220FBE70127204603A93830019100902346E17E76
:4052800034333A46E06903F093F8291D2B1D07A8129A6D4607C5204603A924300C9A03F043F802466846808B3080204601F006F81046D9E770B50D460446FFF7B7F90128F1
:4052C0000AD0E87AA97A00020143A07801F0D6FC012808D0002070BD00222421204602F0F5FC242070BD28214C200155204600F0B1FB282070BD0000002801D0002000E044
:4053000003484030C07F012800D00020704700006C1500200146002049070ED50021084B03E0002901D0002200E01A461279022A04D0491C0906090EF3D07047012070474D
:405340006C1500200146002049070ED50021084B03E0002901D0002200E01A461279022A04D0491C0906090EF3D07047012070476C15002010B5044680346068002803D0B0
:405380000BF0D6FD0020606010BD4030417070474030817070474030017070470171704792001018C166704770B53C2501F08EF9040004D020460021433001F013FCFF2238
:4053C0002946204600F0E2FB002C02D0A07801F0FFF870BD10B5002801D0002000E00348002802D0008903F027FD10BD6C15002010B5002801D0002000E00448002804D0C9
:405400000179072901D100F047F810BD6C15002010B501F05BF9002802D0807801F0D8F810BD00207047000070B50546008A00281ED01049F122897A1140C90618D52946F7
:4054400040314A8A098A521C4A4392B2D10800D10121540801E0621A94B2A042FBD9FEF7CBFE012804D1298AA878224601F0CCFC70BD00000415002010B50023054C0B60DA
:40548000248A944204D992001018C26E0A60C36610BD00003416002038B5044600200090A079002814D14020015D052901D00E290ED168460BF0CEFC002809D12046009983
:4054C00002F0E2FB03481021C28A2046FFF7BDFB38BD00000415002010B50B4604460146184602F05FF8002802D020460BF016FD10BD13B5044601AA11460620FEF706F81D
:405500006846818861811CBD002800D10220704770470000F8B504462346401D543300909A1EA078911E01F0F1FA25464035A88A298A8000FCF74CFE401E81B2688A884272
:4055400003D96982A07801F071FF698A8C20015120460021433001F045FB27480088E88102F002FFE989891C8AB26179FFF7A0FD01F088FC02F0F8FE2A8A6179FFF798FD46
:40558000074601F073FC688A002806D01B49088A032212021043088202E0002001F03AFF1648803801886E8A002E0CD0304648431349FCF7FDFE0004000C01D0401C80B2BB
:4055C0001049488002E00F4800214180288A704381B2A07801F094FEFF2228374932B9B21346204602F024FCE98AA07801F008FEA07801F017FAF8BD80102E40E0112E4057
:40560000710200009A0D00207FB504468034616805460E46183108226846FCF710FF31462031082202A8FCF70AFF102168460BF0ABFB6068102108300BF0A6FB60682B4655
:40564000083024331022694602F05AFE7FBD10B504460821FFF704FB10212046FFF700FB207905281FD006281DD008281AD12189002003F059FB072020712046FEF7D6FF9B
:40568000014620464030012913D00E21017000210176204600F0AEFF2046FFF76BFE2046FFF7C2FE10BD20890122002103F020FBE1E70521EAE70000FFB581B01F46044689
:4056C0000821FFF7CDFA10212046FFF7C9FA2079082803D0092804D0042203E00422012501E009220025204600F03EFE264600204036307022712046FFF73CFE0398002D28
:4057000002D0012808D00BE001280AD120890022029903F0EDFA04E02189029803F004FB012700203076012F04D0204600F062FF05B0F0BD02983073204602F0F3FA054675
:4057400005480121C28A2046FFF77FFA002DEFD109202071ECE700000415002070B50C460546FEF763FF012809D108212846FFF777FA0023012221462846FFF79DFF70BDF2
:4057800010B5044600F0F0FD2046FFF7F3FD00214034217010BD70B505461A24FEF746FF012809D108212846FFF75AFA0023012221462846FFF780FF70BD0000F8B504463E
:4057C000002000900E4668460BF044FB002801D00D20F8BD8420005908212030009D00F026FA20460421383000F021FA002E02D1204600F0F5FD2946204602F0D4F90E488E
:405800000821C28A2046FFF720FA204600F063FF25464035002808D0204600F023F8002801D0092028700020F8BD08202870204600F0CCFFF7E7000004150020014610B5E1
:4058400040310A460978082906D0092907D00A2901D100F091F810BD0B20107010BD00F001F810BD70B50446007925464035052805D0062803D008280FD00C2070BD032205
:405880000621204602F022FA0D480821C28A2046FFF7DBF91120287010E006202873204602F040FA0646AA8A0A20424301212046FFF7CBF9002E01D109202071002070BDCF
:4058C0000415002038B504460020009068460BF0C1FA002801D00D2038BD2046009D00F0BDF908202071204600F07AFD2946204602F08CF900213D2001550F2040210855CD
:40590000204600F063FF002038BD00B5024600F02BFD10214032117000BD10B50446FEF785FE012809D04020005D112805D100231A4606212046FFF7BFFE10BD10B5FFF704
:4059400086FE10BD38B504460021684600910BF081FA00280CD12046009902F0D8F905480821C28A2046FFF770F90D204034207038BD00000415002038B504460021684616
:4059800000910BF067FA002801D00D2038BD2046009902F0B1F905480821C28A2046FFF754F90C2040342070002038BD0415002000787047F8B5002569460D70002801D035
:4059C000002400E01F4C002C18D0204600F0D5FC002813D0207903280BD005280CD026464036B18AA07801F095FCB078012806D01DE0042020711DE006202071F8BD002130
:405A0000204601F0ECFD274680373868002802D00BF08EFA3D600020B0702079072802D12046FFF701FD0221204600F0E9FE20790428E3D1207A694608703420FEF7BEFC76
:405A4000F8BD00006C15002010B54C22115400F04CF810BD10B50446FF21FFF701F909202071A07801F07CFC10BD000038B5FF216A461180002801D0002400E0084C002C45
:405A80000DD011460620FDF741FD684601882046FFF72FFD03480068C1692046884738BD6C150020DC0D002010B504468079002809D022214C200155FF212046FFF7D0F898
:405AC000204600F012F810BD10B5037902464032002B03D01173092B02D003E0002100E02221117300F001F810BDFEB504460089002700902781207926464036002817D026
:405B0000012815D002280AD112E002AA01A9204601F036FD002807D101980BF0FFF9204601F056FD0028F0D02046FEF7CFFCB776254680352868002802D00BF0F9F92F60E9
:405B40006868002802D00BF0F3F96F60317B002919D0009800F064F8A078002100F07EFF2046FFF79BFAA07801F072F8A07800F02FFDFF212046FFF773F80B20FFF734F891
:405B800000F068FCFEBD1F213173E2E7F8B517460E46054602F0E4FB04003CD020460C3001F010F82046062200211830FCF750FC2046062200211230FCF74AFC16482246DE
:405BC00000683946436A28469847074626702846FEF72CFD012148406070002D10D02889608028464030C1782171002E0FD169796171018AE180418A2181808A608106E0A8
:405C00000648008BC005C00F2071002060803946204603F00CF8F8BDC00D002000102E400A4610B50146002003F01EF910BD10B50AF086FE10BD000000B50146FFF708FA13
:405C4000002801D0002000E00348002802D002898A4200D0002000BD6C15002038B5044680346068002806D168460BF003F9002801D100986060606838BD000010B50146CF
:405C800000F086FB0128887802D0FEF7D9FC10BD90214843024940186030007F10BD00004C15002070B5054604464035A87F012811D1A1789020084A484380186030067FF1
:405CC0003046FEF78BFE002805D10220A877A078314601F067F870BD4C15002010B50C4CA07A002813D0FEF725FF0A48027F417F408B00F0B7FB012809D10020A07200F064
:405D0000FFFE05498989090B01D000F03BFA10BD181600204C150020A0102E4070477047490510B5490F0B00FCF78EFD060704080C0C0F073E21FFF787FE10BD0821FFF7D3
:405D4000C3FE10BDFFF7D1FE10BDFFF7ADFE10BDF8B507460025002D01D0002600E0204E00F092FE3046403044890021418100F095FE304600F001FB01282BD1A00702D566
:405D80002846FFF717FEE00602D52846FFF76EFEA00601D5FEF7CEFE600601D500F014FB200602D5284600F01DF8600702D5284600F02CFA380402D52846FFF719FB78042C
:405DC00002D52846FFF706FBE00703D021463046FFF7A6FF6D1C2D062D0EBCD0F8BD00006C150020F8B5002801D0002400E0284C002C4BD025464035A878012846D1FF2791
:405E00008820493700593E46002805D02149897A890601D5878AC68A2046FEF707FC012834D002F0A1FA2A8A6179FFF741F9009001F01CF800983346283081B23A46204640
:405E400001F0F6FFE98AA07801F0DAF912480188688A124E002810D048431149FCF7A8FA0004000C01D0401C80B27080A07DC107C90F002001F0A0FA01E000207080288ACC
:405E8000698A484381B2A07801F03AFAF8BD00006C1500200415002060112E409A0D0020710200000149096809680847DC0D002070B50D460026194A0146002801D0002463
:405EC00001E014462034002C26D0204600F060FA01280AD19020484380186030007FFEF77DFD002801D101F09DFE0D48006881692046884700280CD020464030817EA942C6
:405F000002D3491B817600E086762089294602F04CFF204600F05AFC70BD00004C150020DC0D002070B503460088FFF785FE040013D000F022FA00280FD02079092819D081
:405F40002546997840352973204601F0EBFE0646A878012803D0AA8A02E0022070BDEA880A20424301212046FEF76FFE002E01D109202071002070BD0EB5002217216B46A7
:405F80000292198100905A810120029B00990BF06FF80EBDF8B518480024807A002822D1164E0025B089000B22E0204600F02AFE1249A039401807882A462146384600F0D1
:405FC00051FA012810D00E480122478305770A4944778A72002D01D0002000E02030002801D000F0F3FBF8BDB089000B641CE4B20028DAD1F8BD000018160020A0102E405C
:406000004C15002010B50088FFF716FE002809D0014640310C460978082905D00B2903D00C2010BD022010BDFFF71CFC002801D009202070002010BD70B503460088FFF76E
:40604000FBFD040008D0254640352878082805D00B2803D00C2070BD022070BD8420005910220830991CFCF7EAF92046FFF7CCFA2878082804D02046FFF77EFC002801D092
:406080000A202870204600F0A1FB002070BD000010B50C46002121700088FFF7CDFD03000BD000F06AF9002807D00948F121807A0840C00603D4112010BD022010BD02204D
:4060C00020701A8A1889002102F0EAFE002010BD04150020F8B50F46002100910088FFF7ABFD040012D000F048F900280ED0E079410641D4617E02264A07002A08DB890709
:40610000402500291ADA2843E07135E00220F8BD02F026F90021017021894180A1898180217E4170E189C1803E7005460178134802F090FB284602F057FE1DE0204600F0AF
:406140002DF9012806D068460AF084FE002803D00720F8BD2A20F8BDE07900992843E071204601F009FE607E0421304360760448C28A2046FEF769FD0020F8BD1D04000053
:40618000041500203EB500220F236C460292238100910190628169460EC900200AF068FF3EBD0000F8B50F46054600F08FFA040025D003202071254600264035EE76E6703B
:4061C0002046FFF7A7F901F007F80920FEF70CFDA07800F02BFD0121204600F011FB2E706E70AE703A4600212046FFF7CFFC0649887B401C8873A078FFF754FEF8BD28464A
:4062000001F0AEF8F8BD00004C15002010B5002801D0002000E0094800280DD0014640310A464978022901D100215170807DC107C90F002001F0C0F810BD00006C15002001
:4062400070B503460D460088FFF7F6FC04000BD000F093F8002807D01248F121807A0840C00603D4112070BD022070BD20464030418A008A491C41430804C10C5888884205
:4062800001D2122070BD20822079072802D12046FFF7CAF8022028702089002102F028FE002070BD04150020016A491C016204D1817E491C4906490E81767047C169491CE0
:4062C000C16104D1C17E491C4906490EC1767047F0B5074687B003A8009005A800260D460190002F01D0002400E01B4C002C05D06846FCF7FBF8002803D00BE0022007B095
:40630000F0BD68460089C00704D1902200212046FCF79EF8114829460068826820469047050016D1A77066762746267140373E70204600F019F8204601F046F908482082CD
:406340000848BE77807AF121084000D001202075E682E8B2D3E700006C150020DC0D0020B80B000004150020002101628176C161C17620300177417770470079002805D0DB
:40638000012803D0022801D001207047002070474030807F002800D00120704740300078002807D0012805D0052803D00E2801D0012070470020704710B5807801F084F833
:4063C000002800D0012010BD10B500F099FB03498989090B01D0FFF7D5FE10BDA0102E4070B5054604464035A87F002825D1FF206075A0789021154A484380186030417F74
:406400009023491CC9B24177A0785843104B8018DB896030994201D300214177A0789021484380186030467F0677A1783046FEF7D5FA002802D00120A87770BD0220A87736
:40644000A078314600F0AEFC70BD00004C150020341600200020401C0006000EFBD0002070470000F0B515468207920F85B0000A02926A469080002D01D0002400E0524C4C
:40648000002C28D0084600F0BDFB07466846808800280BD00298012843D0022841D003280BD03D20005D012870D087E04748381801882046FFF71DF880E00020029002A886
:4064C0000AF0A8FC002807D03D20005D012878D12046FFF7E9FE74E06846029E8388324600213846FCF724FF3848381801882046FEF7FFFF284600F0A1FA01AA2146304683
:40650000FEF7ECFD002806D030460AF0F3FC3D204C21085528E0F5773146204601F0BAF94FE0002000902089039068460AF062FC002802D0002005B0F0BD6846009E838810
:40654000321D00213846FCF7F3FE2048381801882046FEF7CEFF284600F070FA25464035287E00280CD103E02046FFF773FA28E001AA21463046029BFEF7E8FD002806D0DC
:4065800030460AF0ADFC3D202873EDE713E00298FEF7BEFF01460398307003980901000A0843707068468088B070000AF0703046FFF7E2FC05E02046FFF776FE284600F0BE
:4065C0003DFA0120B7E700006C15002000102E4010B5074A917B002901D0491E91730021FFF776FE002801D0002010BD012010BD4C150020F8B5074606464037B87F002803
:406600002DD0B078902100904843234945186035287F0099FEF7F7F901281ED0287F401CC4B21E48C089A04200D800240020B877FF276F772F77A87702460146009800F092
:406640001DFD717DFF2903D0304600F07EFF777501F0E8FA0025114F19E00320B877F8BD00200090224669463046FEF705FF0099002904D0FF231A463046FEF7DCF9641CE2
:40668000F889E4B2A04200D800246D1CEDB2F889A842E5D8F8BD00004C1500203416002010B502460021084B03E0002901D0002000E018460479944204D0491C0906090E87
:4066C000F3D0002010BD00006C15002000B50120FFF7E6FF00BD10B5044601F041FE2189018080346168416061682831816002F035FB10BDF7B50646087982B00C46092833
:4067000007D0A078F0770846FFF742FE012806D010E030460AF002FC022005B0F0BDA1789020294A484380186030007FFEF756F9012810D0A078FEF7DFFD01280BD0377847
:406740000121304601F01AFA25462035062F38D00B2F0FD107E06846027C21463046FEF7BBFE0D20D9E72046FDF760FF012801D1002028772046FFF781FA054604AA214630
:406780003046FEF718FD01205F2108556946097C002001910090A07833463A46294600F0ABFA69460A7CA0780323294600F0ECFDA0782946FDF768FE30460AF0AFFB0020FA
:4067C000ABE70120D5E700004C15002010B502464032937F0021002B03D1927E002A00D00121064A927A002A00D000210279092A00D10121807800F0FFFD10BD18160020B5
:4068000070B50C460546FDF711FF00280BD1012C06D92879092806D02846FFF7CDFD0446002C02D004E0012402E0A87DC007FAD1A87DC107C90F204600F0BEFD70BD0000BF
:40684000012807D0082804D104480282034808300180704701488038FAE70000A0102E40014908817047000000102E4010B50446FF20F130012C01D1FF20D530002200F0FC
:40688000EDFD044A108A044980B2A0430880108210BD000000102E409E0D0020034B198A034A89B2814311801982704700102E409E0D002010B50446012802D0082C07D1F5
:4068C00002E0FF20D53001E0FF20F13000F0BEFD0348018A034A89B221431180018210BD00102E409E0D0020034B198A034A89B2014311801982704700102E409E0D0020F1
:40690000F8B505460120A84086B214460F46012231467C2000F0A2FD3A463146782000F09DFD6078267800020643E078A2780002024360792379000203430C2045430D2079
:4069400080010549281844182680001D44182280001D40180380F8BD00102E40CB065B0E0343480901021943D00108430121C902084301490881704780142E40427803787B
:4069800012021343084A1382C37880781B021843908248780B78000203431383C8788978000201439183704700142E40024A1080000C90801181704700142E40044A0021A2
:4069C00080180288491C89B21029FAD37047000000102E40024A10820148803081817047A0102E4010B5054A1082084600F05AFD024A0021A03A8018018010BDA0102E4066
:406A000010B50B46044600F005F819462046FFF7E1FF10BD024A10820148803001817047A0102E4010B504490882FF20002220211D3000F013FD10BDA0102E4000020249D0
:406A40004D3008807047000000102E400249888A0422904388827047C0112E4010B5084B074C0202A03B0029208202D075321A8010BD04490020088088807632F7E700000E
:406A8000A0102E40201A2E4000B5034908884880FFF704FF00BD00009E0D002000B502484088FFF721FF00BD9E0D002010B5FCF7F5FD10BD014952200880704700102E40E1
:406AC000884201D8081A03E00022D243101A401880B2704700210170704700000748808806492039098B884201D8081A03E00022D243101A401880B27047000020112E4087
:406B00000148008AC0B27047A0102E4070B5084C049D2082074804890548603006880E8001891180808818806007400F287070BDA0102E40E0112E4001480089704700006E
:406B4000C0102E4000280FD00D4A108B0870000A4870908B8870000AC8700948203000880871000A48717047064A10880870000A487090888870000AC8701089F0E700004F
:406B800040102E40C0112E4000B5024A00F004F800BD0000FF7F000000B51346FFF790FF984201D8022800D2002000BD0148008A70470000001A2E40014880887047000077
:406BC00020102E40064B1A8999891B8A0270120A42708170090AC1700371190A4171704760102E40012904D00549098BC90B017070470349403109898907C90FF7E7000078
:406C000000102E40014840897047000034160020044A10820448028980894843101880B270470000A0102E40341600209021074B414300B5C918FF2260314A770A7700228C
:406C40008A77114600F01AFA00BD00004C15002090225043074A10B58018FF21603041770177002181770448418EFF201D3000F0EDFB10BD4C1500200415002000B5044AA5
:406C80001082034880308088022200F003F800BDA0102E4010B50023884201D8081A03E00024E443201A4018044980B2884201D8824200D90123184610BD0000FF7F00005C
:406CC00070B55478157824022543D47888232602947834435679127936023243002900D09823044908820348A038181805808480028170BDA0102E40FFB581B014460D4618
:406D000007460A9E0B9BFFF783FF002E0AD0009333460021049AFCF79BFB05484019C45505B0F0BD0021049AFCF778FBF5E70000A20D002070B502460448054D80880824B4
:406D40002C800B460021FCF769FB70BD34160020A0142E4010B5212402466401044953200880102300212046FCF758FB10BD000000102E40417802780902044B0A431A8324
:406D8000C1788078090208439883704760142E40034A1082802001430148803001817047A0102E40054A1082044A6032908B0009000108439115084390837047A0102E407B
:406DC00030B500210F4B0A46012809D0032802D005280AD107E04021198102210A2204E004210C2201E004210D221882054C20342088C0B205460D42FAD022800021198224
:406E000030BD000080142E4010B5044607480482074801808280032189030820FFF74AFD200202497530A039088010BDA0102E40201A2E40054A1082044A6032118300023B
:406E400002494B30A039088070470000A0102E40054A491E1082044A60321183000202494C30A03908807047A0102E400349884200D908460249088070470000FF0F000086
:406E800060112E400349884200D908460249888070470000FF0F000060112E408823002900D09823084908820748A038191808881070000A507088889070000AD070088968
:406EC0001071000A50717047A0102E4010B51446024606480B46C0880021FCF785FA012C02D103495420088010BD00003416002000102E40064A11880170090A417091885C
:406F00008170090AC1700349542008807047000080142E4000102E400121814010B589B200227C2000F09AFA10BD0000FEB5FF210120FFF79BFCFF210820FFF797FC302009
:406F4000FFF7ACFC3F48802101803F483F4D00784007400F02286FD001286BD100202880002211460320FCF7D1FA394E3949B08D8882384F002420373248A0300482308FD8
:406F800038822046FFF764FE641C2406240EF3D0B08F38832E48103000F052F9716930690191009069464879C021084369464871684600F06DF900F055F82548214C4030AB
:406FC0004188A03421838188A1831E49C088C0318880708E38802048002606823920FFF783FC184F532038801C490720088354203880E020FFF7E2FCE820FFF7DFFCF0204F
:40700000FFF7DCFC0020FEF749F813488682282101838015A0810F48403086815B203880094800784007400F022807D0012801D10B482880FEBDFFE7032090E70848C01C88
:40704000F7E7000000102E4034160020001F2E4004150020C0112E40001A2E4080142E40E0230000044800218183018302497420603908807047000060102E40074B188242
:40708000064B6033988B00090001084399158843002A01D11021484098837047A0102E40F3B50D2284B0920100924A780B78120213430393CA788B78120213434A790979ED
:4070C000FF20120211431A4A8C46918B9E460291118B01911649742260390A80154900220F7821E00121124B9140009C603BE3181D8889B21C881B88039E6E40754665409A
:4071000064462E435C4026430CD1029B194209D00199D140CB070499DB0F8B4202D1104606B0F0BD521CD2B29742DBD8F8E7000060102E404415002030B50949FF208C8B03
:40714000084A00210125137805E02A468A40224204D0491CC9B28B42F7D830BD084630BD60102E404415002010B50446E020FFF725FC20782246401CC3B20021E020FCF78E
:40718000F3F810BD42790021012A02D901214171090342790A430179042914D049001143827B032A01D8D2001143427B52010A43817909021143012252031143054A118397
:4071C00000889083704711460122920211430222E5E7000000102E4000B50120FFF75EFB01494120088000BD00102E4000B50120FFF77AFB01494020088000BD00102E402C
:40720000024A10820148603081817047A0102E4010B5044C208204488180028183815143018210BDA0102E40A0132E40034B1882024820388180028070470000A0102E4030
