:4000000000800020110000003D0300003D03000080B500AF024A034B1B68136000F098F9BC760040FA46004010B5054C237833B9044B13B10448AFF300800123237010BD06
:400040009081FF1F00000000902D0000084B10B51BB108480849AFF300800848036803B910BD074B002BFBD0BDE81040184700BF00000000902D00009481FF1F0881FF1FB7
:400080000000000080B584B000AF02F01BFD02F087FC00F063FF012000F0DCFF0020002100F06CFFA04800F09FFF0020082100F065FF9E4800F098FF0120002100F05EFFC0
:4000C0009B4800F091FF0120082100F057FF994800F08AFF0023FB730023BB7300237B7300233B730020062100F048FFFB7B184601F0F2F800200E2100F040FFBB7B1846B0
:4001000001F0EAF80120062100F038FF7B7B184601F0E2F801200E2100F030FF3B7B184601F0DAF80023FB720023BB7200237B7200233B7201F0BAFC01F09AFE01F0B0FE89
:4001400002F0B0FC0346002B11D0012000F046FE002002F0FBFC012002F0F8FC022002F0F5FC032002F0F2FC042002F0EFFC002001F0A6FE0346002B29D001F0C9FE0346FB
:40018000FB80B7F906306C4A82FB03129210DB17D31AFB80B7F90630B3F5C87F03DD002001F0B0FC13E0B7F90630B3F5967F03DD012001F0A7FC0AE0B7F90630C82B03DD5A
:4001C000022001F09FFC02E0032001F09BFC01F0A1F90346012B0CBF01230023DAB2FB7A002B0CBF01230023DBB21340DBB2002B12D00920012101F0C1F801F0EFF9FB7BB6
:400200000133FB730020062100F0B8FEFB7B184601F062F80123FB7201F07CF90346002B01D10023FB7201F085F90346012B0CBF01230023DAB2BB7A002B0CBF012300234F
:40024000DBB21340DBB2002B12D00A20012101F095F801F0C3F9BB7B0133BB7300200E2100F08CFEBB7B184601F036F80123BB7201F060F90346002B01D10023BB7201F057
:4002800041FA0346012B0CBF01230023DAB27B7A002B0CBF01230023DBB21340DBB2002B12D00B20012101F069F801F097F97B7B01337B730120062100F060FE7B7B184622
:4002C00001F00AF801237B7201F01CFA0346002B01D100237B7201F025FA0346012B0CBF01230023DAB23B7A002B0CBF01230023DBB21340DBB2002B0ED001F07FF93B7BF3
:4003000001333B7301200E2100F038FE3B7B184600F0E2FF01233B7201F004FA0346002B01D100233B720BE7942D0000A02D0000A82D0000B42D00006766666680B500AFF7
:4003400002F0E6FC03461B680C2B00D1FEE7FEE780B586B000AF224B7B61224B3B61204B7B6135E03B691B68FB603B695B68BB603B699B683B6000237B600CE0FB681A682E
:40038000BB681A60BB680433BB60FB680433FB607B6804337B607A683B689A42EED13B69DB683B6000237B6008E0BB6800221A60BB680433BB607B6804337B607A683B680B
:4003C0009A42F2D13B6910333B617B69013B7B617B69002BC6D102F0A1FCFFF753FEFEE701000000002F000080B582B000AF184B184A1A60184A184B1B6843F40073136094
:4004000000237B600FE07B68032B04D8134A7B6852F8233000E0124B12497A6841F822307B6801337B607B682F2BECD90E4B1B78DAB20E4B1A700E4B0A4A1A6000F0D4F9CD
:4004400000F0A2FA0B4B00221A600837BD4680BD0CED00E00004FA0514ED00E0000000003D0300000080FF1FBC7600400481FF1F08ED00E00081FF1F80B582B000AF78606D
:400480003960786800213A6802F079FC0837BD4680BD00BF80B584B000AFF860B9607A60F868B9687A6802F05FFC1037BD4680BD80B483B000AF0346FB71FEE780B487B0A6
:4004C00000AF7860396000233B6100237B6127E07B699B007A6813441B68BB60BB68FB73BB6823F0FF03BB6014E03B695B003A6813441B781A46BB68134419463B695B0026
:400500003A6813445B780B703B6901333B61FB7B013BFB73FB7B002BE7D17B6901337B617B691D2BD4D91C37BD465DF8047B704780B582B000AF424B00221A80414B50227C
:400540001A70414B0B221A80404B19221A70404B40F2F3121A803F4B19221A703E483F490422FFF797FF3E4B02221A704FF0402308221A703B4B03221A703B4B3B4A12788C
:40058000D2B21A703A4B08221A803A4B41F251221A800023FB7019237B6014E0FB785B00DAB2354B1B78DBB203F00103DBB21343DBB203F00303FB704FF4F07002F098FB99
:4005C0007B68013B7B607B68002B02D0FB78032BE4D17B68002B02D10320FFF769FF274B4FF480721A80254B07221A70244B00221A70244B48221A70204B00221A70224B03
:4006000002221A70214B04221A70214A204B1B78DBB243F00703DBB213701E4A1D4B1B78DBB243F00103DBB213701B4A1A4B1B78DBB263F07F03DBB213700837BD4680BD28
:4006400080400040824000408440004086400040884000408A40004000410040300400480043004000420040A1460040080100492242004020420040254200400440004070
:400680000640004008400040014000400B400040A2430040A1430040A043004080B483B000AF1F4B1B78FB711E4AFB7903F00703DBB213701C4AFB791B09DBB213701B4BD8
:4006C000F4221A701A4B4FF408621A80194B40221A70194B04221A70184B04221A70184B01221A70174B08221A70174B20221A70164B0F221A70164B08221A70154B8022B0
:400700001A70154B4FF481721A80144B80221A70134B44221A700C37BD465DF8047B7047CF0100496E5800406F5800401D5100403C5100406D510040005A0040075A00407B
:40074000135A00408A5A0040985A0040C85A0040CE5A0040005B0040465B0040585B00407658004080B483B000AF0346FB71FB79012B0ED8FB79094A52F82330FA790749B7
:4007800051F822201178FA790548825C0A43D2B21A700C37BD465DF8047B7047BC2D0000C42D000080B483B000AF0346FB71FB79012B10D8FB790A4A52F82330FA79084905
:4007C00051F822201178FA790648825CD243D2B20A40D2B21A700C37BD465DF8047B7047BC2D0000C42D000080B582B000AF72B6494A494B1B78DBB243F00403DBB21370DB
:400800000023FB7113E0FA7913465B0013445B00424A13443B603B681A683B689B889BB210461946FFF728FEFB790133FB71FB79072BE8D94FF090403949FFF73FFE394B13
:400840000A221A70384B40F203121A8037480421FFF712FE36480421FFF70EFE354A354B1B78DBB243F00203DBB21370324A324B1B78DBB243F00203DBB213702F4A2F4B54
:400880001B78DBB243F04003DBB213702C4A2C4B1B78DBB243F01003DBB2137029482A490822FFF7F7FD294829490822FFF7F2FD284829490822FFF7EDFD2848284908224E
:4008C000FFF7E8FD274828490822FFF7E3FD274827490822FFF7DEFD264BCC221A70264A254B1B78DBB243F00803DBB21370234B01221A70FFF71CFE204B81221A70204BFE
:4009000001221A70FFF7CAFE1E480C490E22FFF7C1FD0837BD4680BDE8460040C82D000078000048835800404A58004000760040087600400350014013500140A04300403F
:40094000C24300400251004000040048125100400804004822510040100400483251004018040048525100402004004862510040280400485B08014022430040004800409F
:4009800004000840B043004080B483B000AF134B7F221A70124B80221A707F23FB710CE0FB79DB0003F1804303F5F043FA79013AD2B21A70FB79013BFB71FB79002BEFD12E
:4009C000FB79DB0003F1804303F5F04300221A700C37BD465DF8047B704700BF0D81FF1F0C81FF1F80B485B000AF03460A46FB711346BB710123FB60FB79172B2FD8BB7921
:400A0000002B0ED0FB791A01184B1344FA791101164A0A441278D2B242F02002D2B21A700DE0FB791A01114B1344FA7911010F4A0A441278D2B222F02002D2B21A70FB79A2
:400A40001A010A4B1344FA791101084A0A441278D2B242F00102D2B21A700023FB60FB6818461437BD465DF8047B70471070004080B485B000AF0346FB710123FB60FB79A1
:400A8000172B1DD8FB791A01114B1344FA7911010F4A0A441278D2B222F00102D2B21A70FB791A010A4B1344FA791101084A0A441278D2B222F02002D2B21A700023FB6032
:400AC000FB6818461437BD465DF8047B704700BF1070004080B485B000AF03460A46FB711346BB710123FB60FB79172B18D8FB791A010F4B13441B78DBB223F00E03FB7225
:400B0000FB791A010A4B1344BA7902F00702D2B25200D1B2FA7A0A43D2B21A700023FB60FB6818461437BD465DF8047B704700BF1070004080B485B000AF0346FB710B466F
:400B4000BB8013467B800123FB60BB8841F6FF72934202D14FF40053BB807B8841F6FF72934202D14FF400537B80FB79172B17D8FB79DB0003F1804303F5EC430433BB60FB
:400B8000BB68BA881A80FB79DB0003F1804303F5EC430633BB60BB687A881A800023FB60FB6818461437BD465DF8047B704700BF80B485B000AF03460A46FB711346BB717D
:400BC0000123FB60FB79172B07D8FB791A01064B1344BA795A720023FB60FB6818461437BD465DF8047B70471070004090B484B000AF0446084611461A462346FB7103463F
:400C0000BB710B467B7113463B710123FB60FB79172B34D8FB79DB0003F1804303F5EC43BA7902F07F02D1B27A79D201D2B20A43D2B21A70FB79DB0003F1804303F5EC43DD
:400C40003A7E1201D1B23A7902F00F02D2B20A43D2B25A70FB79DB0003F1804303F5EC433A7F02F00F02D2B29A70FB79DB0003F1804303F5EC430022DA700023FB60FB6860
:400C800018461037BD4690BC704700BF80B582B000AFFF23FB7102F033F80346BB71104B1B78182B12D90F4B1B78FB710C4B1B78013BDAB20A4B1A70FB79DB0003F1804388
:400CC00003F5F0431B78DAB2064B1A70BB79184602F01AF8FB7918460837BD4680BD00BF0C81FF1F0D81FF1F90B484B000AF0446084611461A462346FB710346BB800B46B2
:400D0000BB711346FB700123FB60FB795BB2002B23DBBB8823F47F6323F00F039BB2002B1BD1FB79DB0003F1804303F5F043BB60BB68BA881A80FB79DB0003F1804303F58C
:400D4000F043BA799A70FB79DB0003F1804303F5F043FA78DA700023FB60FB6818461037BD4690BC704700BF80B485B000AF0346FB710B46BB8013467B800123FB60FB792B
:400D80005BB2002B17DBFB79DB0003F1804303F5F0430433BB60BB68BA881A80FB79DB0003F1804303F5F0430633BB60BB687A881A800023FB60FB6818461437BD465DF861
:400DC000047B704780B483B000AF0346FB7101BE0C37BD465DF8047B704700BF80B582B000AF786008E00C4B1B68184601F080FF7B68A3F500437B607B68B3F5004FF2D8E8
:400E0000064B1B687A6802FB03F3184601F070FF0837BD4680BD00BF2081FF1F1881FF1F80B582B000AF0346FB80FB88044A127802FB03F3184601F05BFF0837BD4680BD47
:400E40001C81FF1F80B584B000AF03463960FB710F4B1B68FB60FB791F2B02D90020FFF7B1FFFB7903F01F0310339B00FA6813441B68BB60FB7903F01F0310339B00FA6833
:400E800013443A681A60BB6818461037BD4680BD08ED00E080B582B000AF03460A46FB711346BB71BB79072B02D90020FFF78AFFFB791F2B02D90020FFF784FFFB7903F0C9
:400EC0001F0303F1604303F56443BA795201D2B21A700837BD4680BD80B500AF2820FFF77DFF032000F0C8F90520FFF777FF032000F0C2F90F20FFF771FF032000F0BCF959
:400F00000120FFF76BFF022000F0B6F90520FFF765FF062000F09EF80E2000F09BF82C2000F098F8082000F095F8012000F092F80C2000F08FF8032000F08CF80520FFF732
:400F40004DFF80BD80B500AF0C2000F083F8024B01221A7080BD00BFAC81FF1F80B500AF054B1B78002B04D1FFF7B6FF024B01221A70FFF7E7FF80BDAD81FF1F80B582B0F4
:400F800000AF03460A46FB711346BB71FB79032B26D801A252F823F0A90F0000B70F0000C50F0000D30F0000BB79803BDBB2184600F050F815E0BB79403BDBB2184600F093
:400FC00049F80EE0BB796C3BDBB2184600F042F807E0BB792C3BDBB2184600F03BF800E000BF0837BD4680BD80B584B000AF78600123FB737B681B78BB730BE0BB7B18467F
:4010000000F00EF8FB7B7A6813441B78BB73FB7B0133FB73BB7B002BF0D11037BD4680BD80B584B000AF0346FB7100F02DF8FB791B09FB73FB7B184600F0E2F8FB7903F09C
:401040000F03FB73FB7B184600F0DAF81037BD4680BD00BF80B584B000AF0346FB7100F013F8FB791B09FB73FB7B184600F004F9FB7903F00F03FB73FB7B184600F0FCF8E6
:401080001037BD4680BD00BF80B582B000AF4FF4CA737B60554A554B1B78DBB223F07F03DBB21370524B1B78DBB223F00F03FB704F4AFB7843F00F03DBB213704D4B1B789C
:4010C000DBB223F00F03FB704A4AFB7813704A4B1B78DBB223F00F03FB70474AFB781370424A424B1B78DBB223F02003DBB213703E4A3E4B1B78DBB243F04003DBB2137047
:401100000020FFF78DFE394A384B1B78DBB243F01003DBB213700120FFF782FE374B1B78FB70324A314B1B78DBB223F01003DBB213700020FFF774FEFB7803F00803FB70C9
:401140002A4A2A4B1B78DBB243F01003DBB213700120FFF765FE254A244B1B78DBB223F01003DBB21370FB78002B02D10A20FFF757FE7B68013B7B60FB78002B02D07B682F
:40118000002BBDD1194A194B1B78DBB223F04003DBB21370154A154B1B78DBB223F07F03DBB21370124A124B1B78DBB223F00F03DBB213700F4B1B78DBB223F00F03FB708D
:4011C0000C4AFB7843F00F03DBB213700A4B1B78DBB223F00F03FB70074AFB7843F00F03DBB213700837BD4680BD00BF2051004022510040235100402451004021510040F6
:4012000080B582B000AF0346FB711A4A194B1B78DBB243F02003DBB21370164A154B1B78DBB223F04003DBB213700020FFF7F8FD104A104B1B78DBB223F00F03DBB213703A
:401240000C490C4B1B78DAB2FB791343DBB243F01003DBB20B700120FFF7E2FD054A054B1B78DBB223F01003DBB213700837BD4680BD00BF2051004080B582B000AF0346C5
:40128000FB71144A134B1B78DBB223F06003DBB21370104A0F4B1B78DBB223F00F03DBB213700C490B4B1B78DAB2FB791343DBB243F01003DBB20B700120FFF7B1FD054AD4
:4012C000044B1B78DBB223F01003DBB213700837BD4680BD2051004080B586B000AF78600A23FB75FB7D07F118021344002203F8102CFB7D013BFB751CE079681E4BA3FB48
:401300000123DA0813469B0013445B00CA1AD3B23033BB75FB7D07F118021344BA7D03F8102C7B68144AA2FB0323DB087B60FB7D013BFB757B68092BDFD879680E4BA3FB2A
:401340000123DA0813469B0013445B00CA1AD3B23033BB75FB7D07F118021344BA7D03F8102CFB7D07F1080213441846FFF73CFE1837BD4680BD00BFCDCCCCCC80B584B02F
:4013800000AF03460A46FB8013467B7100F0B2F80346FB7300F0A2F80346BB81FA88BB899A4200F08780454B1B78DBB203F00203FB72FB7B002B20D1BB89002B02D0FB88C1
:4013C000002B1AD1BB89002B0BD13D4AFB8813803C4A3C4B1B78DBB223F04003DBB2137068E0384A374B1B78DBB243F04003DBB21370334AFB8813805CE0FB7A002B33D0F8
:40140000314B00221A70314B02221A70304B00221A70304A2F4B1B78DBB203F07F03DBB21370284B1B78DBB203F00803002B02D0FB88002B18D1284ABB891380224B072296
:401440001A7000BF204B1B78DBB203F00103002BF8D11A4A194B1B78DBB223F00203DBB21370194B00221A70144B1B78DBB203F00203002B13D0184AFB881380124A7B7940
:40148000002B01D0032300E00123137000BF0E4B1B78DBB203F00103002BF8D10AE0084AFB8813800549054B1B78DAB2FB7A1343DBB20B701037BD4680BD00BFA243004013
:4014C0008440004086400040014000401040004014400040084000400240004080B400AF034B1B889BB21846BD465DF8047B70478440004080B400AF054B1B78DBB203F0DC
:401500000703DBB21846BD465DF8047B704700BF8640004080B400AF054B1B78DBB203F002035B08DBB21846BD465DF8047B70470151004080B400AF054B1B78DBB203F064
:4015400004039B08DBB21846BD465DF8047B70470151004080B500AF00F05CF9022000F0ABF9002000F0C8F900F014FAFFF78EFB03461A46084B1A70FFF788FB03461A46E1
:40158000064B1A700648642100F04CF80548642100F080F880BD00BFB181FF1FB281FF1FF82D00005C2E000080B500AF00F050F900F0F6F9074B1B7818460121FFF712FA60
:4015C000054B1B7818460121FFF70CFA002000F0B3F980BDAF81FF1FB081FF1F80B500AF054B1B78002B04D1FFF7B4FF024B01221A70FFF7D9FF80BDAE81FF1F80B500AF50
:40160000064B1B781846FFF733FA054B1B781846FFF72EFA00F036F980BD00BFAF81FF1FB081FF1F80B582B000AF78600B467B807B681B0C9BB2012001211A464FF48043F4
:4016400000F080F803461A46104B1A70104B19780F4B1B787A88084611461A460123FFF743FB0B4B1A787B689BB21046194645F68332FFF779FB054B1A78054B1B781046FA
:401680001946FFF795FA0837BD4680BDAF81FF1FB181FF1F80B582B000AF78600B467B807B681B0C9BB2012001211A464FF4804300F07CF803461A46104B1A70104B197811
:4016C0000F4B1B787A88084611461A460123FFF70BFB0B4B1A787B689BB21046194645F68332FFF741FB054B1A78054B1B7810461946FFF75DFA0837BD4680BDB081FF1F52
:40170000B281FF1F80B400AF054B1B78DBB203F00803DB08DBB21846BD465DF8047B70470151004080B400AF054B1B78DBB203F010031B09DBB21846BD465DF8047B704723
:401740000151004090B585B002AF0446084611461A462346FB710346BB710B46BB8013467B80114B00221A700F4B1878F979BA7900230093002301930023FFF737FA0A4B90
:401780001978BA887B88084611461A46FFF7D2F9054B1B7818460221FFF79CF9024B1B7818460C37BD4690BD2481FF1F90B585B002AF0446084611461A462346FB71034672
:4017C000BB710B46BB8013467B80114B01221A700F4B1878F979BA7900230093002301930023FFF703FA0A4B1978BA887B88084611461A46FFF79EF9054B1B7818460221A1
:40180000FFF768F9024B1B7818460C37BD4690BD2581FF1F80B500AF0A4B00221A700A4B00221A70094A094B1B78DBB243F00803DBB21370002000F05FF8022000F03CF814
:4018400080BD00BF2C5800402D5800409F5A004080B400AF094A094B1B78DBB243F00803DBB21370064A064B1B78DBB243F00803DBB21370BD465DF8047B7047A8430040EA
:40188000B843004080B400AF094A094B1B78DBB223F00803DBB21370064A064B1B78DBB223F00803DBB21370BD465DF8047B7047A8430040B843004080B483B000AF0346D3
:4018C000FB710C4A0B4B1B78DBB223F00203DBB213700849074B1B78DAB2FB7903F00203DBB21343DBB20B700C37BD465DF8047B704700BF2C58004080B582B000AF0346BC
:40190000FB710C4A0B4B1B78DBB223F00C03DBB213700849074B1B78DAB2FB7903F00C03DBB21343DBB20B7000F016F80837BD4680BD00BF2C58004080B483B000AF0346BB
:40194000FB71044AFB7913700C37BD465DF8047B704700BF835B004080B483B000AF0B4B1B78DBB203F00C039B08DBB20633FB71074AFB7903F1924303F59C731B78DBB2F0
:4019800013700C37BD465DF8047B70472C5800400B46004080B500AF022000F025F880BD80B400AF0D4A0D4B1B78DBB243F06003DBB213700A4A0A4B1B78DBB243F00803CF
:4019C000DBB21370074A074B1B78DBB243F00803DBB21370BD465DF8047B704777580040A4430040B443004080B483B000AF0346FB710C4A0B4B1B78DBB223F00303DBB28E
:401A000013700849074B1B78DAB2FB7903F00303DBB21343DBB20B700C37BD465DF8047B704700BF5E58004080B500AF0A4B0C221A700A4A094B1B78DBB243F02003DBB2E7
:401A40001370074B80221A70002000F05BF8032000F03CF880BD00BF04580040055800400658004080B400AF0D4A0D4B1B78DBB243F00203DBB213700A4A0A4B1B78DBB225
:401A800043F00203DBB21370074A074B1B78DBB263F07F03DBB21370BD465DF8047B7047A9430040B94300407758004080B500AF054B1B78002B04D1FFF7B6FF024B01224F
:401AC0001A70FFF7CFFF80BDB381FF1F80B485B000AF0346FB710A4B1B78DBB223F00303FB73FB7903F00303DAB2FB7B1343FB73034AFB7B13701437BD465DF8047B7047EE
:401B00000558004080B588B000AF0346FB71284A07F114031068516803C3127A1A70254A07F108031068516803C3127A1A70FB79082B39D8204A204B1B78DBB223F07F03E8
:401B4000DBB213701C481C4B1B78DAB2FB7907F120010B4413F80C1CFB7907F1200E734413F8183C9B00DBB203F00C03DBB20B43DBB21343DBB20370104A104B1B78DBB2EF
:401B800023F00C03DBB213700C490C4B1B78DAB2FB7907F12000034413F8183C1343DBB243F00C03DBB20B702037BD4680BD00BFC02E0000CC2E0000065800400558004050
:401BC00080B582B002AF414B01221A70404B00221A70102000F08CFE102000F0A3FD1D200721FFF757F93B4B04221A703A4B00221A703A4B00221A70394A394B1B78DBB289
:401C000043F01803DBB21370364B00221A70364B00221A70354B00221A70354B0A221A70344B00221A70344B00221A70334B12221A70334B13221A70324B00221A70324B15
:401C400014221A7001230093002048F6B6514FF400420C2300F0A0FB02230093002049F2DA014FF40042102300F096FB03230093002049F2DA014FF40042102300F08CFB04
:401C800004230093002049F2DA014FF40042102300F082FB1D4A0D4B1B78DBB2013B1C499B000B449B7813701A4A084B1B78DBB2013B174931F823301380044B1B78DBB21E
:401CC000184600F063F9BD4680BD00BF2681FF1FB481FF1F96580040975800409E580040075B004093580040885B0040895B00408058004081580040835800408858004010
:401D0000895800408D580040014E00400E4E0040B881FF1F0C4E004080B582B000AF00F0EFFF0346FB71444B1B78BB71434A434B1B78DBB243F00103DBB213703F4A3F4BB5
:401D40001B78DBB243F01003DBB213703C4A3C4B1B78DBB243F00103DBB21370384A384B1B78DBB243F01003DBB21370354A354B1B78DBB243F00203DBB21370324A324B9E
:401D80001B78DBB243F00203DBB213702F4A2F4B1B78DBB243F00303DBB213700320FFF73FF8284A274B1B78DBB223F00203DBB21370254A244B1B78DBB223F00203DBB240
:401DC0001370234A224B1B78DBB243F00603DBB21370204B7A221A701F4A1F4B1B78DBB243F00103DBB213701C4A1C4B1B78DBB243F00103DBB21370194A194B1B78DBB234
:401E000043F00103DBB21370164A164B1B78DBB243F00103DBB21370134B4FF000521A60124B4FF000521A60FB79184600F06CFF0837BD4680BD00BF2681FF1FAA43004005
:401E4000BA430040F8460040F9460040915800407758004082580040A1430040B1430040A2430040B243004080E200E000E100E080B500AF084B1B78002B09D1074B1B786D
:401E8000DBB2002B01D1FFF79BFE034B01221A70FFF742FF80BD00BFB681FF1FB781FF1F80B400AF054A054B1B78DBB243F00103DBB21370BD465DF8047B7047004E00402B
:401EC00080B485B000AF0346FB710E4B1B78DBB2002B03D00C4B1B78FB7305E00B4B1B78DBB203F00103FB73FB7B012B02D0FB79002BEAD0FB7B18461437BD465DF8047BC3
:401F0000704700BFB581FF1FB481FF1F014E004080B483B000AF174B1B78DBB203F003037B717B79012B03D8134B1B88FB8011E0114B1B78DBB2FB80104B1B78DBB29BB251
:401F40001B029AB2FB881343FB807B79032B01D10B4B1B780B4B1B78DBB2002B02D00A4B00221A70FB881BB218460C37BD465DF8047B7047144E0040104E0040114E0040F5
:401F8000124E0040B581FF1FB481FF1F80B582B000AF0346FB71C34B00221A70FB79012B66D1C14B34221A70C04B06221A70C04B08221A70BF4B00221A70BF4B00221A70AA
:401FC000BE4B1F221A70BE4B00221A70BD4B00221A70BD4B00221A70BC4B01221A70BC4B14221A70BB4B09221A70BB4B0A221A70BA4B00221A70BA4B11221A70B94B122253
:402000001A70B94B01221A70B84B01221A70B84B11221A70B74B19221A70B74B97221A70442000F06FFAB54B58221A70B44B00221A70B44B05221A70B34B02221A70B34B23
:4020400000221A70B24B00221A70002000F03CFEB04B4FF47A621A600A20012100F08CFB2D20012100F0A2FA1D20AB49FEF7EAFEFB79022B66D18C4B38221A708B4B0422D2
:402080001A708B4B06221A708A4B00221A708A4B00221A70894B3F221A70894B00221A70884B00221A70884B00221A70874B01221A70874B50221A70864B27221A70864B0D
:4020C0002C221A70854B00221A70854B55221A70844B5A221A70844B05221A70834B01221A70834B11221A70824B19221A70824B97221A70442000F005FA804B58221A709C
:402100007F4B00221A707F4B05221A707E4B02221A707E4B00221A707D4B00221A70002000F0D2FD7B4B4FF47A421A600820012100F022FB2520012100F038FA1D20774953
:40214000FEF780FEFB79032B66D1574B38221A70564B04221A70564B06221A70554B00221A70554B00221A70544B3F221A70544B00221A70534B00221A70534B00221A70E8
:40218000524B01221A70524B50221A70514B27221A70514B2C221A70504B00221A70504B55221A704F4B5A221A704F4B05221A704E4B01221A704E4B11221A704D4B19221C
:4021C0001A704D4B97221A70442000F09BF94B4B58221A704A4B00221A704A4B05221A70494B02221A70494B00221A70484B00221A70002000F068FD464B4FF47A421A6031
:402200000820012100F0B8FA2520012100F0CEF91D204349FEF716FEFB79042B40F0A980214B38221A70214B04221A70204B06221A70204B00221A701F4B00221A701F4BA6
:402240003F221A701E4B00221A701E4B00221A701D4B00221A701D4B01221A701C4B50221A701C4B27221A701B4B2C221A701B4B00221A701A4B55221A701A4B5A221A7062
:40228000194B05221A70194B01221A70184B11221A70184B19221A70174B97221A70442040E000BFB581FF1F004E0040024E0040034E0040044E0040054E0040064E00400C
:4022C000084E0040094E00400A4E0040144E0040845800408558004086580040875800408A5800408B5800408C5800408E5800408F580040905800409158004094580040CE
:40230000955800409A5800409B5800409C5800409D580040D081FF1F7D250000892500009525000000F0EEF8134B58221A70134B00221A70124B05221A70124B02221A70CE
:40234000114B00221A70114B00221A70002000F0BBFC0F4B4FF47A421A600820012100F00BFA2520012100F021F91D200949FEF769FD0837BD4680BD945800409558004041
:402380009A5800409B5800409C5800409D580040D081FF1FA125000090B587B000AF0446084611461A462346FB710346BB800B467B801346BB7197F82830002B00F08A806A
:4023C00097F82830042B00F28580FB79013B092B4AD801A252F823F00124000069240000692400000124000069240000692400001B24000035240000692400004F240000B4
:40240000BB790F2B04D9364B1B78DBB2FB752EE0344B1B78DBB2FB7529E0BB790F2B04D9314B1B78DBB2FB7521E0304B1B78DBB2FB751CE0BB790F2B04D92D4B1B78DBB2D8
:40244000FB7514E02B4B1B78DBB2FB750FE0BB790F2B04D9284B1B78DBB2FB7507E0274B1B78DBB2FB7502E00023FB7500BFBA8897F917305B0113443B617B883A6902FB8D
:4024800003F3FB60FB68DB0BBB82BB790D2B11D8BB8ABA79C2F10E021341BB8297F82830013BBA790132D1B2154A9B0013440A469A7007E097F82830013B114A9B00134416
:4024C0000F229A7097F82830013B0D49BA8A21F8232002E00020FEF775FC1C37BD4690BD180100491C010049190100491D0100491A0100491E0100491B0100491F01004951
:40250000B881FF1F80B584B000AF0346FB7100F0F7FB0346FB73164A154B1B78DBB243F00303DBB21370134A124B1B78DBB243F00303DBB21370104AFB7913700320FEF729
:402540006FFC0B4A0A4B1B78DBB223F00303DBB21370084A074B1B78DBB223F00303DBB21370FB7B184600F0CFFB1037BD4680BDF8460040F94600409258004080B400AFF1
:40258000BD465DF8047B704780B400AFBD465DF8047B704780B400AFBD465DF8047B704780B400AFBD465DF8047B704780B584B000AF03460A46FB8013467B7100F0CCF815
:4025C0000346FB7300F0A2F80346BB81FA88BB899A4200F08780454B1B78DBB203F00103FB72FB7B002B20D1BB89002B02D0FB88002B1AD1BB89002B0BD13D4AFB88138014
:402600003C4A3C4B1B78DBB223F04003DBB2137068E0384A374B1B78DBB243F04003DBB21370334AFB8813805CE0FB7A002B33D0314B00221A70314B01221A70304B0022B5
:402640001A70304A2F4B1B78DBB203F07F03DBB21370284B1B78DBB203F00803002B02D0FB88002B18D1284ABB891380224B07221A7000BF204B1B78DBB203F00103002B3D
:40268000F8D11A4A194B1B78DBB223F00103DBB21370194B00221A70144B1B78DBB203F00103002B13D0184AFB881380124A7B79002B01D0032300E00123137000BF0E4B25
:4026C0001B78DBB203F00103002BF8D10AE0084AFB8813800549054B1B78DAB2FB7A1343DBB20B701037BD4680BD00BFA1430040004100400241004001400040144000406A
:4027000010400040084000400240004080B400AF034B1B889BB21846BD465DF8047B70470041004080B483B000AF0346FB71094B084A1278D2B2D1B2FA7922F00702D2B25D
:402740000A43D2B2D2B21A700C37BD465DF8047B704700BF0241004080B400AF054B1B78DBB203F00703DBB21846BD465DF8047B704700BF0241004080B584B000AF0346FB
:402780000A46FB8013467B7100F0CCF80346FB7300F0A2F80346BB81FA88BB899A4200F08780454B1B78DBB203F00103FB72FB7B002B20D1BB89002B02D0FB88002B1AD176
:4027C000BB89002B0BD13D4AFB8813803C4A3C4B1B78DBB223F04003DBB2137068E0384A374B1B78DBB243F04003DBB21370334AFB8813805CE0FB7A002B33D0314B00225C
:402800001A70314B01221A70304B00221A70304A2F4B1B78DBB203F07F03DBB21370284B1B78DBB203F00803002B02D0FB88002B18D1284ABB891380224B07221A7000BFD8
:40284000204B1B78DBB203F00103002BF8D11A4A194B1B78DBB223F00103DBB21370194B00221A70144B1B78DBB203F00103002B13D0184AFB881380124A7B79002B01D07B
:40288000032300E00123137000BF0E4B1B78DBB203F00103002BF8D10AE0084AFB8813800549054B1B78DAB2FB7A1343DBB20B701037BD4680BD00BFA243004080400040FB
:4028C00082400040014000401040004014400040084000400240004080B400AF034B1B889BB21846BD465DF8047B70478040004080B483B000AF0346FB71094B084A12781F
:40290000D2B2D1B2FA7922F00702D2B20A43D2B2D2B21A700C37BD465DF8047B704700BF8240004080B400AF054B1B78DBB203F00703DBB21846BD465DF8047B704700BF85
:402940008240004080B500AF064B00221A70064B00221A70002000F057F8002000F034F880BD00BF245800402558004080B400AF094A094B1B78DBB243F00203DBB2137075
:40298000064A064B1B78DBB243F00203DBB21370BD465DF8047B7047A8430040B843004080B500AF074B1B78002B04D1FFF7CAFF044B01221A70FFF7D9FF192000F044F863
:4029C00080BD00BFC881FF1F80B483B000AF0346FB710C4A0B4B1B78DBB223F00203DBB213700849074B1B78DAB2FB7903F00203DBB21343DBB20B700C37BD465DF8047B82
:402A0000704700BF2458004080B582B000AF0346FB710C4A0B4B1B78DBB223F00C03DBB213700849074B1B78DAB2FB7903F00C03DBB21343DBB20B7000F016F80837BD4638
:402A400080BD00BF2458004080B483B000AF0346FB71044AFB7913700C37BD465DF8047B704700BF815B004080B483B000AF0B4B1B78DBB203F00C039B08DBB20633FB717F
:402A8000074AFB7903F1924303F598731B78DBB213700C37BD465DF8047B7047245800400946004080B400AF054B1B78DBB203F00103DBB21846BD465DF8047B704700BF44
:402AC0000151004080B500AF054B1B78002B04D100F008F8024B01221A7000F009F880BDC981FF1F80B500AF00F04AF880BD00BF80B582B000AF00F075F8104B04221A706D
:402B000000F0FEF80346FB710D4A0D4B1B78DBB243F01003DBB213700A4A0A4B1B78DBB243F02003DBB21370FB79184600F0ECF8054B01221A700837BD4680BD7A65004065
:402B4000986400409A6500407965004080B485B000AF0346FB710023FB73FB79002B05D1064B1B78DBB203F07F03FB73FB7B18461437BD465DF8047B704700BF686400401D
:402B800080B500AF022000F047F8144A134B1B78DBB243F02003DBB21370104A0F4B1B78DBB223F00403DBB213700C4A0B4B1B78DBB243F00803DBB21370094A084B1B784D
:402BC000DBB223F01803DBB21370054A044B1B78DBB243F01003DBB2137080BD41580040CF5A004080B400AF094A094B1B78DBB243F00203DBB21370064A064B1B78DBB2C4
:402C000043F00203DBB21370BD465DF8047B7047A7430040B743004080B483B000AF0346FB71164B154A1278D2B2D2B222F00302D1B2FA7902F00302D2B20A43D2B2D2B260
:402C40001A70FB79012B0AD10D4B0E4A1278D2B21A700D4B0D4A1278D2B21A7009E0084B0B4A1278D2B21A70074B0A4A1278D2B21A700C37BD465DF8047B704741580040AF
:402C800032460040110100493346004015010049AF010049B701004980B582B000AF0023FB7106E0FB791846FDF77CFDFB790133FB71FB79012BF5D9024BFF221A7008376C
:402CC000BD4680BD2781FF1F80B582B000AF0346FB71FFF7E1FFFB791846FDF743FD034AFB7913700837BD4680BD00BF2781FF1F0230800803D000BF01380046FCD1704790
:402D0000EFF3108072B6704780F31088704700BF014B1868704700BF8881FF1F0E4B70B51E460E4C0025E41AA410A54204D056F8253098470135F8E700F0D0F8084B094C93
:402D40001E46E41AA4100025A54204D056F8253098470135F8E770BDE82E0000E82E0000E82E0000F02E000010B5431E0A44914204D011F8014B03F8014FF8E710BD034689
:402D80000244934202D003F8011BFAE77047000000000000536F6E67313A302000000000536F6E67323A3000536F6E67333A302000000000536F6E67343A3000035B0040CB
:402DC0002443004040000000405100401000C05100401000F0510040100000000140001000140140000800400140000A004C01400002005001402000585D62686D73787D4C
:402E000082868B8F93979B9EA1A4A7A9ABACADAEAFAFAFAEADACABA9A7A4A19E9B97938F8B86827D78736D68625D58524D47423C37322D2924201C1814110E0B08060403AB
:402E400002010000000102030406080B0E1114181C2024292D32373C42474D5280848A8F94989EA2A8ACB2B6BCC0C6CAD0D5DADEE4E8EEF2F8FCF8F2EEE8E4DEDAD4D0CA46
:402E8000C6C0BCB6B2ADA8A29E98948F8A84807A76706B66615D58534E49443E39342F2A25211C17120D0803080D12171C21252A2F34393E44494E53585D61666B70767A55
:402EC00001112131416153637300000008090101050707040400000043000000F8B500BFF8BC08BC9E4670474D000000E9030000F8B500BFF8BC08BC9E46704729000000D2
:402F0000102F00000881FF1F880000004800000000000000807F00000300000000366E01C05D0000180000000000E02EFFFF01FF00000000000000000000000000000000F3
:402F400000000000000000000000000000000000D82E000000000000000000000000000000000000000000000000000000000000000000000000000000000000000000004B
:402F8000000000000000000000000000000000002881FF1F00000000000000000000000000000000000000000000000000000000000000000000000000000000000000004A
:402FC00000000000000000000000000000000000000000000000000000000000000000000000000000000000000000000000000000000000000000000000000000000000D1
:403000000000000000000000000000000000000000000000000000000000000000000000000000000000000000000000000000000000000000000000000000000000000090
:403040000000000000000000000000000000000000000000000000000000000000000000000000000000000000000000000000000000000000000000000000000000000050
:403080000000000000000000000000000000000000000000000000000000000000000000000000000000000000000000000000000000000000000000000000000000000010
:020000040003F7
:0200000480007A
:4000000005520040015A004001640040016500400205014002070140410801402E090140010B01400115014004160140021701403D180140391901403E1A01403C1B0140FC
:4000400002400140034101400242014004430140024401400345014005460140064701400548014002490140124C0140174D01400450014001510140000108A00964281469
:4000800029289F01881F8A048701E408A701E60201200608070609040B020C010D020E020F04100212011306150817101A041B011D20230625102708290630033120330114
:4000C000340835183604370639023B803E013F10541F5604580C590C5B0C5C225D205E805F05800388038E109203940196029A039F01A004A208A802AA01AC08AE04B00CD2
:40010000B101B203B610BA08BE01D80CD90CDC22DF0103890508070109020A140E080F80128A1311190A1A101B401C021F2122022541268427482FA83280350937503C0206
:400140003D803E043F105D025E805F28674279407D42820885408740C0ABC25EC40BCAE0CCF8CEF0D6F0D890DE98E002E204E408ECA0B802BE01D804DF011B01A7010203CE
:400180000402060108030C0311011302160C180319101B081C042502272128012A022D082F1430043120331834033504360837033A2C3E013F44580C590C5B045C225F0126
:4001C00082C488C08A018C408E80901592EA962098C09A109B01A602A880AA40AE08B0C0B203B301B430B60CBA02D201D80CD904DB04DC22DD20DF01038A04240541090298
:400200000A240E26102211101208151016401701182019401A041B8A1C441D031E221F302030266227202F22302036225C805D085F11664069406A8079407D4087408F2209
:4002400093019540960499089D019F31A208A502A640A788A908C0FBC2EEC447CA50CCA4D6F0D810DE18E008EC04010406C0070408C209040A010F021460169017011C487A
:400280001E8423042401260228042A082C102E20303F310132403302343F3504368038223E115602576C580459045B0C5C225D205F018506860388028A018F069001910275
:4002C00092029304950497029B089F01A106A803AB06B002B308B501B601B706BB80D804D90FDC22DF010024041409080A020D01102A1720180519011B041F42210D220107
:4003000023242620271129012F883008362837813810398A3C403E046040682A69806A20738079407E40800187068B01905091409284962097809F11A010A208A388A422C8
:40034000A704AF12B080B310B704C066C215C447CAA1CCF2CE5FD801DE88E00BECA03F40CE2057089740D4409740A70887089740A708E6407C08DE0113089C08C408464063
:4003800084089B089C08D0013020830886809B089E40CC082080234027089740C860B040B30853015A045D016204662085018D048F8099109A809E40A420A910D401D60399
:4003C000D803E002E40253805504591062026680820486248A02960499109A809E24A104A380B020B240B701D407D601D802E404E802EC0500040C0410041C0410020000B5
:400400001E01010001000000000B0B0000F4F400007F7F00000000000000000000000800003E3E003E00000000000000000040002D00180100000000000000000000000057
:40044000000000000000000000000000000000000000000000000000000000000000000000000000000000000000000000000000000000000000000000000000000000007C
:40048000000000000000000000000000000000000000000000000000000000000000000000000000000000000000000000000000000000000000000000000000000000003C
:4004C00000000000000000000000000000000000000000000000000000000000000000000000000000000000000000000000000000000000000000000000000000000000FC
:4005000000000000000000000000000000000000000000000000000000000000000000000000000000000000000000000000000000000000000000000000000000000000BB
:0200000490006A
:0400000000004005B7
:0200000490105A
:04000000BC90ACAF55
:0200000490303A
:02000000E74FC8
:0200000490402A
:4000000000000000000000000000000000000000000000000000000000000000000000000000000000000000000000000000000000000000000000000000000000000000C0
:400040000000000000000000000000000000000000000000000000000000000000000000000000000000000000000000000000000000000000000000000000000000000080
:400080000000000000000000000000000000000000000000000000000000000000000000000000000000000000000000000000000000000000000000000000000000000040
:4000C0000000000000000000000000000000000000000000000000000000000000000000000000000000000000000000000000000000000000000000000000000000000000
:0200000490501A
:0C00000000012E12306900012E2517B8F7
:00000001FF