:400000000080002011000000E9070000E907000080B500AF00F0F2FB80B500AF244B12221A6001F0FDFD234B181C01F029FE012001F006FE302001F059FB1F4B1F4A1A60D0
:400040001F4B8022D2051A601E4B1E4A126802210A431A601C4B1D4A1A601D4B00221A601C4B1C4A126808218A431A60FA23DB00181C01F031FC184B181C01F05BFD174B5F
:40008000C82252011A60164B164A1A60164B802212061A60154B8022D2021A60144B40221A60074B8022D2051A60BD4680BDC04630001040001BB70004010B40060000807B
:4000C0000C020B4078002E407C002E406A2D000064F02E406CF02E40DC050000000301400000014040FF008008010B4000010B400401014080B582B000AF72B63C4B0022C2
:400100001A60FB1D00221A7023E0FB1D1A78131C5B009B185B00374A9B183B603B681A78597809020A43997809040A43DB781B061343191C3B681A795B791B0213439BB2DB
:40014000081C191C00F0DEFBFB1D1A78FB1D01321A70FB1D1B78012BD7D9274BEE2212061A60264B992212041A60254B992212041A60244B992212041A60234B99221204D3
:400180001A60224A214B1B78DBB202210B43DBB213701F4A1E4B1B78DBB23C218B43DBB214210B43DBB21370184A184B1B78DBB216210B43DBB21370164BD82212041A60AA
:4001C000154B20221A60154BC42292021A60144B20221A60134BC0221A60134B902212041A60FFF719FF00F09DFBBD4602B080BD6CF02E406440010000000240000102409E
:4002000000500F4010500F4030500F4000700F4001700F4008000440000104400801044018010440000304400803044010B5064C2378002B07D1054B002B02D0044800E023
:4002400000BF0123237010BD7810002000000000B03E010008B5084B002B03D00748084900E000BF07480368002B00D108BD064B002BFBD09847F9E700000000B03E0100E7
:400280007C100020A80B00200000000090B583B000AF62B600F07CFFBC1D404B181C00F071FB031C2380BB1D1B88002B1AD13C4B181C01F0DBF93B4B181C01F0D7F93A4B4E
:4002C000181C01F0D3F9394B181C01F0CFF9384B181C01F0CBF9374B181C01F0C7F902F071F904E0344B181C01F0C0F9FEE7334B1B78012B4DD0314B1B78042B49D07C1DFD
:40030000032002F057F9031C237072B63C1D04F055F9031C23707B1D1B78032B1DD13B1D1B78042B03D03B1D1B78062B2ED101F057F8011C224B1A6880231B02134001D0B2
:40034000012300E00023CB18002B1FD100F0F4F901F004FC00F0E4F918E03B1D1B78022B14D001F03DF8011C154B1A6880231B02134001D0012300E00023CB18002B05D1B5
:4003800000F0DAF901F0EAFB00F0CAF962B600F0DFF900F017F802F015F9A8E731040000B43E0100F43E0100343F0100783F0100943F0100B03F0100CC3F01009821002053
:4003C0000802244080B500AF144B1B78032B22D0042B16D0022B00D01EE0114A114B101C191C00220EF0F2FD0F4B1B78DBB2012B06D00E4B1B789BB2181C00F0A5F80BE001
:400400000AE00A4B00221A70084B00225A70002000F04EFB00E0C046BD4680BD98210020B00B0020A02100209C2100209410002090B585B000AF786039607B68412B2AD0FA
:4004400005D8012B00D16DE0282B07D06BE04C2B38D04E2B24D0432B27D064E0334B181C01F004F9C04600F0BBFF011C304B1A6880231B02134001D0012300E00023CB18F3
:40048000002BF0D100F096FE00F0CEFF00F010FF00F07EFE47E0274B181C01F0E7F842E03B68181C00F028F93DE03B685B88162B04D83B685A88204B1A8034E01E4B1722FD
:4004C0001A8030E03B68FB60FB689B890F2B28D1FB681A1D0B23FC18184B101C00211A1C40230EF0A9FD031C23700B23FB181B78002B16D1114B1A785B781B021A430023DB
:400500001204120C1B0C1B041343181C0DF04AFF0B4B181C01F0AAF80A4B181C01F0A6F801E000E0C046BD4605B090BDF83F01000802244010400100AC0B0020A0210020C1
:400540002C4001004840010090B5604CA54400AF021C5F4B862189008C46BC4463441A8000F082FE021C85239B00FB181A8085239B00FB181B88574A934202D900F0D0F871
:4005800001E000F0D9F885239B00FB181B88002B00D196E04E4B862292009446BC4463441B88012B00D08CE085239B00FB181A88494B1B88033B9A420ADB484B0A221A8048
:4005C000454B1A8885239B00FB18033A1A800EE0424B1B88013B9AB2404B1A803F4B1B88002B04D085239B00FB1800221A8085239B00FB181B88002B63D0384B0A221A80F3
:40060000374BFB1800221A7014E0354BFB181C7800F0F8FF031CDAB2324B862189008C46BC4463441A552E4BFB181A782C4BFB1801321A702A4BFB181B789BB28522920031
:40064000BA1812889A42E0D8274B862292009446BC4463441422BA181A60234B862292009446BC44634485229200BA1812889A801D4B862292009446BC4463440E221A81F5
:4006800000F04EF8194BFC18194B0822B9181A785B781B021A4300231204120C1B0C1B041343181C0DF028FE031C238001F08AFF0E4BFB181B88002B03D00E4B1B78022BA2
:4006C000E0D0BD4687239B009D4490BDE4FDFFFFEEFDFFFFFF030000AC0B0020BC0B002017020000FCFDFFFFF0FDFFFF12020000A02100209821002080B582B000AF786095
:400700007B689B89112B07D17B685A687B681B89101C191C00F04AFEBD4602B080BDC04680B500AF034B034A126804218A431A60BD4680BDC80F244080B500AF034B034A82
:40074000126804210A431A60BD4680BDC80F244080B500AF204B1B78022B1FD0032B00D038E0012000F0D8FC1C4B1B685A1E1B4B1A601A4B1B68002B0FD1184B03221A6068
:40078000174B1B7801225340DAB2154B1A70144B1B78181C00F084FF1CE01BE0012000F07FFF104B1B685A1E0E4B1A600D4B1B68002B0ED10B4B1E221A60094B1B780122D1
:4007C0005340DAB2064B1A70054B1B78181C00F0A3FCC046BD4680BD98210020C00B0020C40B0020C80B002080B500AF01F066FE031C1B680C2B00D1FEE7FEE780B586B055
:4008000000AF224B7B61224B3B61204B7B6135E03B691B68FB603B695B68BB603B699B683B6000237B600CE0FB681A68BB681A60BB680433BB60FB680433FB607B68043325
:400840007B607A683B689A42EED13B69DB683B6000237B6008E0BB6800221A60BB680433BB607B6804337B607A683B689A42F2D13B6910333B617B69013B7B617B69002B3A
:40088000C6D101F021FEFFF701FDFEE7010000003C44010080B582B000AF154B144A126801218A431A6000237B600FE07B68032B04D8104B7A689200D35800E00E4B0F4A19
:4008C000796889008B507B6801337B607B682F2BECD9FFF70FFC0A4B00221A60044B044A126801210A431A60BD4602B080BDC0460000104000000000E90700000000002075
:40090000C000002080B582B000AF786039607A683B68101C00211A1C01F014FEBD4602B080BDC04680B500AF054B03221A60054B03221A60044B00221A60BD4680BDC0465A
:400940003000304030003140000E3F4080B500AF064B00221A70064B00221A70054B00221A7000F009F8BD4680BDC046A32100209C210020A221002080B500AF00F0C8FB5D
:40098000BD4680BDB0B594B004AF78603E23FB1800221A802823FA183E4B111C1A1C1423081C111C1A1C01F0C4FD3B4B1B78002B04D1FFF7CBFF384B01221A707B68002BC3
:4009C0005CD0364B7A681A603E23FB181B88002B29D11023FB181C22BA185A601023FB182022BA181A601023FB1800221A812023FB181B221A802023FB181B225A802023EE
:400A0000FB1804221A711C23FB1808221A703E23FC181023FA180E23FB18101C191C01F0ADFE031C23803E23FB181B88002B29D13E23FC181A481B49AE231A012823FD186C
:400A40000523009300230193002302932B1C01F0EBFD031C23803E23FB181B88002B11D1114B01221A703E23FC18104B181C112114220EF093FA031C238003E03E23FB182D
:400A800001221A803E23FB181B88181CBD4610B0B0BDC046704001009810002090210020E10D0000C800002098210020BC40010090B585B000AF021CFB1D1A70FB1D1B786E
:400AC000022B04D90E23FB1801221A804BE0294B1B78042B42D1284B1B78DBB21A1C042313403BD1FB1D1B78002B0BD1234B0A221A82224B5B6820221A80204B5B683022B4
:400B00005A8010E0FB1D1B78012B0CD11B4B96221A821A4B5B68C822D2001A80174B5B688022D2015A80164BFA1D12781A700E23FC18124B181C0CF055FA031C23800E23EB
:400B4000FB181B88002B08D10B4B1B78DBB204221343DAB2084B1A7005E004E00E23FB180422FF321A800E23FB181B88181CBD4605B090BD98210020A32100201C0C00203D
:400B8000A221002080B584B000AF78600A1CFB1C1A700023BB60BB68002B20D07B689A79BB681A700F23FB1800221A7012E00F23FB181B780133BA68D3180F22BA181278F3
:400BC00079688A5C1A700F23FB181A780F23FB1801321A700F23FB181B78052BE7D9BD4604B080BD80B582B000AF78607B681B789AB27B6801331B789BB21B029BB21343A8
:400C00009BB2181CBD4602B080BDC04690B585B000AF78600F23FB1800221A707B689B890B22934237D17B681A1D7B680F217C18101C00211A1C40230EF0FEF9031C2370EA
:400C40000F23FB181B78002B1DD17B685B68181CFFF7C8FF031C1A1C022313409BB2002B08D0104B1B68822251007A68081C111C984708E00B4B1B680622FF32111C7A68C1
:400C8000081C111C9847084B1B78DBB201229343DAB2054B1A700F23FB181B78181CBD4605B090BD90210020A321002090B585B000AF78600F23FC187B68181CFFF7A6FF73
:400CC000031C2370144B1B78DBB21A1C012313401FD10F23FB181B78002B16D00823FB1812229A707B689A890823FB181A800823FB180F22BA181278DA707B680822BA18EF
:400D00001868111C0DF0BAFA03E07B6818680DF049FBBD4605B090BDA321002080B582B000AF7860BD4602B080BDC04680B500AF034B00225A70024B00221A70BD4680BDA8
:400D4000A021002080B582B000AF7860BD4602B080BDC04680B500AFBD4680BD80B584B000AF78600E23FB1800221A707B689B79002B1CD10F23FB1800221A7012E00F2384
:400D8000FB181B787A68D35C002B04D00E23FB1801221A700BE00F23FB181A780F23FB1801321A700F23FB181B78052BE7D90E23FB181B78181CBD4604B080BD80B582B09A
:400DC00000AF021CBB1D1A80BD4602B080BDC04680B582B000AF7860BD4602B080BDC04680B588B000AF021C3960FB1D1A70BC4B1B78DBB201221343DAB2B94B1A70FB1D8F
:400E00001B78712B00D94FE19A00B64BD3181B689F461423FB1807221A701423FB1800225A701423FB18181C03F028FC1423FB1807221A701423FB1801225A701423FB1846
:400E4000181C03F01BFC0023002B01D001F0AEFBA54B1B68181CFFF781FF031E11D0A24B1B68181C01F0B2FB9F4B1B68181C0021FFF788FE9C4B1B68181C0121FFF782FEA6
:400E80000DE09A4B181C01F0A1FB984B181C0021FFF778FE954B181C0121FFF773FE03200BF034FF1023FB183F221A701023FB1800225A701023FB18181C0BF045FF8C4B1A
:400EC00004221A70F1E03B68181CFFF73BFFECE03B681A78874B1A70E7E03B68BB61BB691B78002B18D1BB695B78002B0BD1824B0022DA80804B00229A807F4B7F4A1A6061
:400F0000BB697D4A5A60764B1B78DBB201229343DAB2734B1A70C8E0C7E0714B1B78DBB21A1C2023134027D1754B1B78102B02D1734B0522DA70734B1A78714B101C191C72
:400F40000CF00EF8031C1A1C0E23FB181A800E23FB181B88002B06D06B4B1B680E22BA183620111C98475E4B1B78DBB201221343DAB25B4B1A7098E097E03B68181CFFF7FD
:400F800027FF92E03B68181CFFF722FF584B02221A708AE0564B04221A7086E0544B1B78022B40D04E4B1B78DBB21A1C0123134039D04B4B1B78DBB21A1C042313400BD01A
:400FC0004B4B03221A70464B1B78DBB204229343DAB2434B1A7026E0414B1B78DBB21A1C082313400BD0424B04221A703C4B1B78DBB208229343DAB2394B1A7013E03C4B22
:401000001B78032B0FD13A4B04221A703F4B1B78002B08D10120FFF74BFD031E03D1344B03221A7041E040E03B681B88181CFFF7C5FE3AE0334A3B68111C1A1C0223081CDD
:40104000111C1A1C01F075FA2A4B00221A70FFF781FE2AE0FFF76AFE27E03B685B88162B05D81E23FB183A6852881A8003E01E23FB1817221A803B681E22BA1811881A88A0
:4010800000231204120C1B0C1B041343181C0DF0FFF80AE03B68181CFFF708FE05E03B68181CFFF73BFE00E0C0460D4B1B78DBB21A1C112313400FD0094B1B78DBB20122DC
:4010C0009343DAB2064B1A700F4B1B68FA1D11783A68081C111C9847BD4608B080BDC046A32100201C420100380C0020300C0020982100209C2100209C100020A80B00200E
:40110000D40C0020A021002090210020A221002080B500AFBD4680BD80B584B000AF021CFB1D1A700D4B1B68DAB20F23FB187F210A401A70FB1D1B78DB01D9B20F23FB18A7
:401140000F22BA1812780A431A70044B0F22BA1812781A60BD4604B080BDC0460003044080B500AF00F092F9BD4680BD80B500AF064B064A1268802109060A431A6000F06F
:4011800033F800F039F8BD4680BDC0460000244080B500AF064B1B78002B04D1FFF7E0FF034B01221A70FFF7E1FFBD4680BDC046A410002080B500AF092000F065FC00F063
:4011C00021F8074B064A1268520052081A60054B00221A60092000F06BFCBD4680BDC04600002440880F244080B500AF092000F037FCBD4680BDC04680B500AF00F0CCF974
:40120000BD4680BD80B500AF00F0E0F9BD4680BD80B582B000AF00237B600F4B1A680F4B1B689A4212D00D4B1B6801333B603B680B4A934201D100233B600A4A3B68D3180D
:401240001B78DBB27B60054B3A681A607B68181CBD4602B080BDC046B4310020AC21002001080000B029002080B582B000AF0D4B1B683B600C4B1B683A689A4205D30A4BF3
:401280001B683A68D31A7B6007E0074B1B683A68D31A064A944663447B607B68181CBD4602B080BDB4310020AC2100200108000080B500AF092000F0E7FB0E4B1A680E4B33
:4012C0001A600E4B00221A700D4B0D4A1268802149020A431A600A4B094A126809490A401A60094B094A1A60092000F0B9FBBD4680BDC046AC210020B4310020B131002033
:4013000004032440FFFFFEFFC00F2440ED0F000080B584B000AF78601D4B1A681D4B1B689A4209D11C4B1B681F221340082B03D01A4B7A681A6028E0154B1B680133FB60DE
:40134000FA6880231B019A4201D10023FB60C046104B1B68FA689A42FAD0114B02221A607B68D9B20F4AFB68D3180A1C1A70084BFA681A600C4B1B680222134005D10A4BCA
:40138000094A126802210A431A60BD4604B080BDA8210020A42100200802244040022440800F2440B0210020880F244080B584B000AF786039600023FB6009E07A68FB688C
:4013C000D3181B78181CFFF7A3FFFB680133FB60FA683B689A42F1D3BD4604B080BDC04680B582B000AF0E4B1B683B600D4B1A683B689A4205D30B4B1A683B68D31A7B6011
:4014000008E0084B1A683B68D31A80221201944663447B607B68181CBD4602B080BDC046A4210020A821002080B500AF092000F02BFB0F4B1A680F4B1A600F4B0E4A126872
:4014400002218A431A600D4B0C4A1268802149020A431A60094B094A126809490A401A60084B094A1A60092000F0FAFABD4680BDA4210020A8210020880F24400402244050
:40148000FFFFFEFF800F2440F307000080B500AF284B294A1A60294B00221A60284B01221A60284B284A1A60284B07221A60284B00221A60274B01221A60274B224A1A60F5
:4014C000264B00221A60264B04221A60092000F0DBFA0920032100F06FFA224B0920191C00F044FA204B00221A60204B00221A601F4B00221A601F4B00221A601E4B042298
:401500001A601E4B00221A601C4B1B689AB21C4B1A801C4B00221A601B4B00221A601B4B00221A701A4B00221A601A4B00221A60BD4680BD000024400F0000024000244083
:40154000480024400003244007000080040324401003244044002440000224400402244050002440A11C0000880E2440C80E2440480F2440080F2440C80F2440880F244066
:40158000A6100020B4310020AC210020B1310020A8210020A421002080B500AF074B074A126807490A40902109040A431A60054B054A12881A60BD4680BDC0460001024037
:4015C000FFFF0FFF880F2440A610002080B500AF084B084A126808490A401A60074B1B689AB2E423DB0013409AB2054B1A80BD4680BDC04600010240FFFF0FFF880F2440DA
:40160000A610002080B582B000AF092000F03CFAFFF72AFE031E07D0092000F021FAFFF7F7FD031C7B6008E00E4B1B687B600E4B04221A60092000F013FA0B4B1A68D823B0
:401640009B0013403B60084BD82292001A603B681B027A6813437B607B68181CBD4602B080BDC04640032440C00F244080B584B000AF78600023FB6009E07A68FB68D31845
:401680001B78181CFFF744FEFB680133FB607A68FB68D3181B78002BEFD1BD4604B080BD80B584B000AF021CFB1D1A700E4B1B68DAB20F23FB1840218A431A70FB1D1B78AF
:4016C0009B01DBB240221340D9B20F23FB180F22BA1812780A431A70034B0F22BA1812781A60BD4604B080BD0003044090B585B000AF78600C23FC1800F0CBFA031C23709D
:401700007B68022B00D8B4E07B68302B00D9B0E05E4B1B78DBB21A1E7B689A420AD35C4A0F23FB1812781A705A4A0E23FB1812781A703FE0584B1B78DBB21A1E7B689A4215
:401740000AD3564A0F23FB1812781A70544A0E23FB1812781A702DE0524B1B78DBB21A1E7B689A420AD3504A0F23FB1812781A704E4A0E23FB1812781A701BE04C4B1B78F7
:40178000DBB21A1E7B689A420AD34A4A0F23FB1812781A70484A0E23FB1812781A7009E0464A0F23FB1812781A70454A0E23FB1812781A707B68DA1E0B23FB1841498A5CAC
:4017C0001A700B23FB181B782F2B0DD97B682A2B0AD93D4B19221A60052000F051FA0D23FB1819221A7007E0374B1B68DAB20D23FB183F210A401A700B23FA180D23FB1819
:4018000012781B789A4208D22F4B7A68033A2D498A5C1A60052000F033FA7B68284A9A180A23FB1812781A70284B0A22BA1812781A60274B0F22BA1812781A60254B0E223B
:40184000BA1812781A60052000F074F90B23FA180D23FB1812781B789A4209D91A4B7A68033A18498A5C1A60052000F009FA03E002E0002000F030F90C23FB181B78181C4E
:4018800000F00BFABD4605B090BDC04640F3FF0F41F3FF0F42F3FF0F43F3FF0F44F3FF0F45F3FF0F46F3FF0F47F3FF0F48F3FF0F49F3FF0F4AF3FF0F4BF3FF0F4CF3FF0F8D
:4018C0004DF3FF0FE44301002CFF0B4028FF0B401CFF0B4020FF0B4080B584B000AF78600023FB60154B154A126801210A431A60134B144A1A60144B134A12688021090212
:401900000A431A607B68002B12D01023FB600CE0012000F00FF900F019F8031E02D00023FB6005E07B68013B7B607B68002BEFD1FB68181CBD4604B080BDC04660F02E40EF
:4019400078002E400220000010002E4080B582B000AF054B1B68012213407B607B68181CBD4602B080BDC0460C002E4080B584B000AF021C3960FB1D1A7080239B05FB600F
:40198000FB1D1B781F2B02D9002000F0A5F8FB1D1B7810339B00FA68D3181B68BB60FB1D1B7810339B00FA68D3183A681A60BB68181CBD4604B080BD90B587B000AF021CB0
:4019C000FB1D1A70BB1D0A1C1A70BB1D1B78032B02D9002000F080F8FB1D1B781F2B02D9002000F079F8FB1D1B7803221340DB0006337B611323FC1800F04BF9031C23702D
:401A0000FB1D1B789B08DBB29B00144A944663441B68FB607B6903229A40131CDA43FB681340FB60BB1D1A787B699A40131CFA681343FB60FB1D1B789B08DBB29B00074A02
:401A400094466344FA681A601323FB181B78181C00F023F9BD4607B090BDC04600E400E080B582B000AF021CFB1D1A70054BFA1D12781F210A40012191400A1C1A60BD4635
:401A800002B080BD00E100E080B582B000AF021CFB1D1A70054BFA1D12781F210A40012191400A1C1A60BD4602B080BD80E100E080B582B000AF021CFB1D1A70054BFA1D22
:401AC00012781F210A40012191400A1C1A60BD4602B080BD80E200E080B582B000AF021CFB1D1A7001BEBD4602B080BD80B582B000AF786009E00C4B1B68181C00F0C0F8F7
:401B00007B680A4A944663447B607A6880231B029A42F0D8064B1B687A685343181C00F0AFF8BD4602B080BDE80C00200080FFFFE00C002080B582B000AF021CBB1D1A807F
:401B4000BB1D1B88044A12785343181C00F098F8BD4602B080BDC046E40C002090B583B000AFFC1D00F095F8031C2370074B074A126804218A431A6030BFFB1D1B78181CFA
:401B800000F08BF8BD4603B090BDC04610ED00E080B500AF0E4B0E4A126801218A431A600B4B0B4A126802218A431A60094B094A126830218A4310210A431A60054B054AEF
:401BC000126807218A4301210A431A60BD4680BD00F02E4000FF2E4080B500AF0E4B0E4A126802218A431A600C4B0C4A126807218A4302210A431A60084B084A1268302193
:401C00008A4320210A431A60034B034A126801210A431A60BD4680BD00F02E4000FF2E4080B500AFFFF7B4FF044B044A1268802109060A431A60BD4680BDC04600F02E4007
:401C400080B584B000AF78600C4B1B6801221340FB607B68002B02D0012B03D005E0FFF797FF06E0FFF7B8FF03E00020FFF734FFC046FB68181CBD4604B080BD00F02E40CB
:401C80000230800803D00138FDD1C046C046C0467047EFF3108072B6704780F31088704780B582B000AF344B1B68002B02D0324B1B689847314B1B680422134027D0304BD6
:401CC0001B6801337B607B682E4A934201D100237B602D4B1B687A689A4205D12B4B1B682B4B20221A700AE0284B1B68D9B2294A7B68D3180A1C1A70214B7A681A60264BF3
:401D00001B681F221340DAD1244B04221A60244B1B68022213402BD0224B1A68224B1B689A4215D0204B1B6801333B603A6880231B019A4201D100233B601C4B1C493A68D6
:401D40008A181278D2B21A60174B3A681A6006E0184B184A126802218A431A6005E0164B1B681F221340082BD6D1144B02221A60BD4602B080BDC046A8100020CC0F2440E9
:401D8000B431002001080000AC21002040032440B1310020B029002008032440C00F24408C0F2440A8210020A421002040022440B0210020880F244008022440800F244024
:401DC00080B582B000AF78600A1CBB1C1A80BB1C1A887B681A60BD4602B080BD80B582B000AF78600A1CBB1C1A80BB1C1A887B681A60BD4602B080BD80B584B000AF494B9D
:401E00001B78DBB21B02484A1278D2B21343FB60464B1B78DBB21B02454A1278D2B21343BB60BB68434A934207D1FB68072B04D1414BBB600423FB6009E0BA68D4231B012A
:401E40009A4204D1FB68042B01D13B4BBB603B4BBA681A603A4BFA681A603A4B1B78DBB21B02394A1278D2B21343FB60FA6880239B019A4202D0FB68002B01D1334BFB609D
:401E8000334BFA681A60334B1B78DBB21B02324A1278D2B21343FB60FB68304A934206D0FB682F4A934202D0FB68052B01D12D4BFB602D4BFA681A602C4B1B681B097B6042
:401EC0002B4B1B68AA2B29D17B68012B26D9214B1B78DBB20E2B21D1264B1B78DBB29BB21B0299B2244B1B78DBB29AB2BB1C0A431A80224BBA1C12881A60214B1B78DBB293
:401F00009BB21B0299B21F4B1B78DBB29AB23B1C0A431A801C4B3A1C12881A60BD4604B080BDC04659F1FF0F58F1FF0F5FF1FF0F5EF1FF0F580B0000580D00006C002E4001
:401F400074002E405BF1FF0F5AF1FF0F0220000078002E405DF1FF0F5CF1FF0F0F0F000005050000050F000080002E40EC0F00F0E00F00F06DF2FF0F6CF2FF0F84002E404E
:401F80006FF2FF0F6EF2FF0F94002E4080B582B000AF021CBB1D1A80BB1D1B88181CFFF7C9FDBD4602B080BD80B582B000AF78607B68181CFFF79AFDBD4602B080BDC046B5
:401FC00080B500AF00F0DEF8BD4680BD80B500AF00F0E2F8BD4680BD80B500AF00F0DCF8044B181C00F09CF8032000F0A5F8BD4680BDC046AD21000080B500AF024B181C31
:4020000000F07CF8BD4680BDAD21000080B500AF014B181CBD4680BD0202000080B582B000AF78602B23181CBD4602B080BDC04680B582B000AF78602B23181CBD4602B0F9
:4020400080BDC04680B582B000AF78602B23181CBD4602B080BDC04680B582B000AF78602B23181CBD4602B080BDC04680B582B000AF78602B23181CBD4602B080BDC046E5
:4020800080B582B000AF78602B23181CBD4602B080BDC04680B582B000AF78602B23181CBD4602B080BDC04680B582B000AF78602B23181CBD4602B080BDC04680B500AF04
:4020C0002B23181CBD4680BD80B582B000AF021CFB1D1A702B23181CBD4602B080BDC04680B582B000AF786039602B23181CBD4602B080BD80B500AFBD4680BD80B582B048
:4021000000AF786000F048F87B68181C00F008F8032000F011F800F035F8BD4602B080BD80B582B000AF7860024B7A681A67BD4602B080BD0000002090B585B000AF021CBF
:40214000FB1D1A700623FB600B23FC18FFF7A1FD031C23700A4B0A4A1268C0218A43111CFA1D1078FA689040021C0A431A600B23FB181B78181CFFF790FDBD4605B090BD6D
:402180000CE400E080B500AF024B802252011A60BD4680BD00E100E080B500AF024B802252011A60BD4680BD80E100E080B500AF11F06AFEBD4680BD002243088B4274D37F
:4021C00003098B425FD3030A8B4244D3030B8B4228D3030C8B420DD3FF22090212BA030C8B4202D31212090265D0030B8B4219D300E0090AC30B8B4201D3CB03C01A5241E0
:40220000830B8B4201D38B03C01A5241430B8B4201D34B03C01A5241030B8B4201D30B03C01A5241C30A8B4201D3CB02C01A5241830A8B4201D38B02C01A5241430A8B42B6
:4022400001D34B02C01A5241030A8B4201D30B02C01A5241CDD2C3098B4201D3CB01C01A524183098B4201D38B01C01A524143098B4201D34B01C01A524103098B4201D3EA
:402280000B01C01A5241C3088B4201D3CB00C01A524183088B4201D38B00C01A524143088B4201D34B00C01A5241411A00D20146524110467047FFE701B5002000F0FCF885
:4022C00002BDC0460029F7D003B5FFF775FF0EBC4243891A1847C04603460B437FD4002243088B4274D303098B425FD3030A8B4244D3030B8B4228D3030C8B420DD3FF2296
:40230000090212BA030C8B4202D31212090265D0030B8B4219D300E0090AC30B8B4201D3CB03C01A5241830B8B4201D38B03C01A5241430B8B4201D34B03C01A5241030B6B
:402340008B4201D30B03C01A5241C30A8B4201D3CB02C01A5241830A8B4201D38B02C01A5241430A8B4201D34B02C01A5241030A8B4201D30B02C01A5241CDD2C3098B4269
:4023800001D3CB01C01A524183098B4201D38B01C01A524143098B4201D34B01C01A524103098B4201D30B01C01A5241C3088B4201D3CB00C01A524183088B4201D38B00C3
:4023C000C01A524143088B4201D34B00C01A5241411A00D201465241104670475DE0CA0F00D04942031000D34042534000229C4603098B422DD3030A8B4212D3FC22890108
:4024000012BA030A8B420CD3890192118B4208D3890192118B4204D389013AD0921100E08909C3098B4201D3CB01C01A524183098B4201D38B01C01A524143098B4201D30F
:402440004B01C01A524103098B4201D30B01C01A5241C3088B4201D3CB00C01A524183088B4201D38B00C01A5241D9D243088B4201D34B00C01A5241411A00D20146634649
:4024800052415B10104601D34042002B00D54942704763465B1000D3404201B5002000F00BF802BD0029F8D003B5FFF715FF0EBC4243891A1847C0467047C046014B1868AC
:4024C0007047C046741000200E4B70B500251E1C0D4CE41AA410A54204D0AB00F35898470135F8E711F098FF084B00251E1C084CE41AA410A54204D0AB00F35898470135D8
:40250000F8E770BD2444010024440100244401002C44010030B50024944208D0035D651C0C5DA34201D0181B02E02C1CF4E7002030BD002310B5934203D0CC5CC4540133E3
:40254000F9E710BD031C8218934202D019700133FAE77047134A1088810703D08107890F401A001D11791030484381B25088820703D08207920F801A001D800040180A494A
:402580004030098980B2CA0701D0503080B2890706D504495422091F09785143081880B270470000F60C0020B810002010B501F05FFF10BD10B501F061FF10BD10B501F09B
:4025C00073FF10BD10B500F055FA10BD10B50749044609780220002907D1204601F0BCFF002802D120460AF0A1FC10BD940E002070B504460120002C12D02368002B0FD0FC
:40260000616800290CD0074D06222889208118462968FFF78EFF6968606809780170002070BD0000B8100020FFB585B0002768460E9D07734F481C460078002802D0082056
:4026400009B0F0BD10990F9801900095029105A807C800F001F90028F2D16946264603AB84460873002C19D0002115E08A00B75A082F09D990198078002805D0083FB752BF
:402680001878401C187005E0002914D00027B75290198770491CC9B2A942E7D360460028CED10F98002809D0109901F091FA002804D00120C4E701208446EFE701F0F4FEB9
:4026C0002D480021416081600599016021888180022D07D3A1798171A17AC171A1890181218A418100211EE0481C19E082008B00A75AE65ABE46BE4211D26F463E80B44680
:402700001E190296B678BE7001967646E6521719029EBB78B3706646A652019EBE70401CA842E3D3491CA942DED3134822460C3000906846037B0799069800F015F9002830
:40274000B8D168460B4C007B60700B480C3001F0DBFE0028AED1084907480C3107F086FC0028A7D107F0A0FC0028A3D10121217066E70000F00C0020AC100020F8B505466B
:4027800033480E460078002802D002242046F8BD002E5BD000242F49002D16D02A89D0070DD02868002808D003881B3BE12B04D24088FB2801D81B2801D2012409E0900756
:4027C00007D56868002804D1F7E70020088108604860002CDAD11F482F8907811C481B21801D018041800421017119490020891C0870F80705D016480622801D2968FFF7E8
:4028000098FE1449B80703D56A681148127882700F480D46801D0860001F486001F0C2FE0B48801D01F0B0FE28890DF0F9FC28890DF060FE03461033FFF78CFE1F21C018DE
:40284000890140180249308088809FE701249DE7F00C0020B8100020FFB58446384F1C460020BB883F78054602460646002F11D100290ED0029999420BD36146002908D0CC
:40288000002C06D00A99002906D02E4B0B99994202D2012004B0F0BD002144E0AB001F19BF78002F3BD0E35A002B38D07B43591889B22B0000F04AF8050410161C253100B5
:4028C000A7782388BC46FF27233BEB37BB4222D26346032B1FD322E0A388002B1FD0302B19D31CE02389002B19D0282B13D316E0A289002A13D01346134F233BBB420AD209
:402900000DE0268A002A0AD033460F4F233BBB4201D2964203D901200EE0002001E000280AD16D1CEDB2099B9D42B7D31C2463435B1802998B42ACD89642AAD8AAE70000C5
:40294000F00C002079020000BAFF000030B47446641E2578641CAB4200D21D46635D5B00E31830BC18470000FFB583B0002469460C801F4606468C80002806D00598002881
:4029800003D004983043800701D0012466E0002FFBD03449049809888842F6D3FFF72CFBFFF714FB00F012FC002855D100F07AFD002851D12C49084601F03EF905042D0CEF
:4029C0004AD12A480499066081800021C18007810C98007AC00704D0684601F07EFD040007D10C98007A800703D501A801F07EFD0446BF1DFEB2002C20D13146059800F024
:402A00005DF804001AD10DF083FD040016D16A461088928808368518144AF1B29088D288AEB29319984207D3401B801A80B201F0F3FB050007D000E0FF25012400F05EFA27
:402A4000002D04D008E0F8B200F01CF9F6E700F081FA07490120087000F0CAFB204607B0F0BD0000F40C0020A92B0000C4100020FC0C002010B503480078012801D101F08A
:402A80006DFA10BDFC0C002070B5084B0446DA889E8800205518B54206D81D68AA182260DA885118D98070BD032070BDC41000200148008970470000C4100020F0B587B057
:402AC00007460D4600208900009006916846FFF7DBFF844600285DD1304800990160002117E02E4B88001A680629115406D22C4C0419667882185670628805E0C419203C74
:402B0000A67A8218567022891B68C018491C4280C9B2A942E5D300242DE0601CC2B2059025E01E4FA30039689600581840887118039604904E88B04217D938466F46FE8071
:402B4000B6464F786E4677710297049F4F800168039F5E18767879184E700168764659184E800068029F18184770521CD2B2AA42D7D30598C4B2AC42CFD36046002809D106
:402B800068460699FFF780FF8446002802D1054900980860604607B0F0BD0000000D002050440100040D00207047000010B5002809D005494A68002A05D0011F08788000A7
:402BC000105801F0D7FA10BD000D002010B50446FFF76EFFC0B2801DA0420CD307484068002808D0A100405801F036FA002801D00470001D10BD002010BD0000000D0020AD
:402C0000F8B516460D460446FFF752FFC0B2801DA04203D20020C0430090F8BDB2B2E9B2684601F03FFA0099481C03D0024AA000526811500098F8BD000D0020F8B5074657
:402C4000FFF736FF801DC6B20A49002005460C680DE06178002907D06188B94202D32078FFF7B4FF002804D1241D6D1CEDB2B542EFD3F8BD000D002010B5002801D0FFF76D
:402C800095FF10BD70B506460948002504680BE06178002905D062882078121D0023FFF7AFFF241D6D1CEDB2B542F1D370BD0000000D0020FFB581B00A9F16000C4620D0C2
:402CC00000F0F2F8054604281BD0002F0CD03846FFF7B4FF20492A0151184860002810D03A460499FFF725FC1B4928010E504618778101980570200406D47D20C000444354
:402D000004E0FF2005B0F0BD6404640C00F0BAF80746042807D000F04FFAA0420BD800F04BFA201A03E0204600F0AAFA0020F06035720020E6E700F03FFA009000F0B6FABD
:402D400000980121001B009000F0ECF802493A0151180098C860E6E7D0100020F8B5060116483418217A042903D0E068002802D017E00020F8BD00F01FFA054600F096FAC3
:402D800000F0A0F804280CD001010C480F18F8680021451900F0C6F80020F860284600F06FFA6068054D002801D0FFF765FF042020720020A8516081E060DAE7D01000201C
:402DC000FEB500266A46304601232549050169180D7A042D02D0C96800291BD000211154401CC0B20428F0D300246846005D002830D01B4821010818418947680568029134
:402E0000002101604160042241810272C160002E02D015E01354E3E700F054F804280ED001010F4808180190C6680021304600F079F801980021C160304600F021FA0126D3
:402E4000002D07D038460299A847002F02D03846FFF712FF641CE4B2042CC6D3FEBD0000D01000200EB5002005216A460090118150810348694600680EF0AFF90EBD0000A7
:402E8000080D0020074A0020010189180B7A042B02D0C968002903D0401CC0B20428F3D370470000D01000200549002002015218127A042A03D0401CC0B20428F6D37047BD
:402EC000D010002030B50A4B04200A4C00210A011219157A042D06D0D268002A03D09A4201D808461346491CC9B20429EFD330BDFFFF0000D01000207047000030B5002028
:402F0000074C05460423020111190B72A5504D60401C4D81C0B2CD600428F4D330BD0000D010002030B5094C00231A011219157A042D04D0D568002906D02D18D5605B1C73
:402F4000DBB2042BF1D330BD2D1AF7E7D0100020002070471CB5002469460C70142001902346054A05480EF03DF904480068401C00D1FF2420461CBDD12F0000080D002052
:402F80003EB5124A0146FF2000230124126800290DD0012914D0042908D104206946009308814B8110460EF018F980B23EBD6846009304814381694610460EF009F9F4E7C9
:402FC00068460093048143816946EBE7080D002070B545890468416800890300FFF7B6FC08280509091E22282628002005F000FF1EE0022908D0C8B22A4621460CF07CFA80
:403000002046FFF739FE13E002202A4621460CF073FA2946204600F00DF809E000200DF0DBFD05E02046FFF7CBFE01E0FFF762F8002070BD014B0022DB6818470C0D00202F
:4030400070B5448905680089022803D0032809D0FF2070BD2246094C0023A46829460120A04708E0FFF7AAFA241DA2B200232946022006F0AEFE002070BD00000C0D0020C5
:40308000704700000248002141600180418070470C0D002070B50C46002186B016460391012802D0022859D116E003A9012006F0E5FE01281BD1039D324621462846FFF77A
:4030C00038FA0095287801900220694608814E816846FFF7B5FF41E0214D002B686809D0049004A9022006F0C9FE01281DD0022006B070BD002812D0298840182146FFF749
:4031000018FA28880024801980B228806988091D884206D12C801348FFF792FF03E00320E6E788421AD96C6018E004986860E278A378110219430B4A698000231060E3564A
:403140005360032313815181A1788170E178C1706178417021780170042028800020C7E70C0D0020101100203EB515460C46022803D004280CD000203EBD009101900220D0
:403180006946088107484A8100680EF026F807E00CF0B2F9044B0022DB6829462046984701203EBD080D00200C0D0020014AD160906070470C0D0020034801688068081A9F
:4031C0000A214843000970471C11002010B5FEF703FF482204490548FFF7ABF903490120C870002010BD00006C4401002015002010B5FEF7E5FE10BD70B5134C2368002B76
:4032000008D0207B1149C20705D04008400020738868A08070BD88680B4AA18880B29268814203D90A4D691A091802E0814202D2411A5118A160A080A0689842EAD30DF09D
:40324000E9FF00F013F870BD1C110020C0102E40FFFF000010B508461946FFF7A7FF10BD704710B5FFF780FF10BD000003480021016041608160C160704700001C110020A8
:40328000024610B5FF20002A0CD0FFF7EFFF064C0321207B0843207310010A21FFF712F82060002010BD00001C11002000B504480A21806848430209FFF7D8FF104600BD89
:4032C0001C1100200248007B8007C00F704700001C11002010B54B490868002802DA4A4B01221A70022290430860484800694549C00B4031096A0246C907C90F0A4259D059
:40330000012000F0EDFA3F480E216C30FEF766FD3E4820218430FEF761FD3C4814219C30FEF75CFD3948FF21C131A430FEF756FD3648FF212F31B030FEF750FD3348344983
:40334000BC30FEF74BFD31483249AC30FEF746FD30492E48491CB430FEF740FD2B482E49B830FEF73BFD29482C49CC30FEF736FD26482B490830FEF731FD24482949A830B6
:40338000FEF72CFD214828498830FEF727FD1F4826498C30FEF722FD1C481921C9029030FEF71CFDFEF728FDFEF730FEC0B2022812D01FE000290BD0002101420AD0114812
:4033C00001216030FEF70AFD0120FEF7EDFD97E70121F2E7FF2010BD15491648FEF7FEFC14481549001DFEF7F9FC124800210830FEF7F4FC54200449C043891C08700020B5
:4034000010BD000000F02E401C0D002000002E40320300002F3F00003102000010520000EC160000FA12000031D000003AE300009956000080012E40F80F000070B50646F0
:40344000581C80B245086D00002408E0304600F0C1F81055000A1119A41C4870A4B2AC42F4D3D80705D0D0182038D15CC47FD454C17770BD30B50A4C002100195B1E07E0DF
:40348000541864782502545C2C430480891C89B29942F5DB994201D1515C018030BD000000102E4010B5FF2000F01AFA0F49FF2048700E481021801D4180012141700170E9
:4034C0000A490020C91C4870FFF704FF04000AD100F02EF907210648FEF772FC044807211830FEF76DFC204610BD00001C0D0020CC112E4070B5002405465B1E0AE02846AE
:4035000000F068F8010A161971702D1D1055A41CADB2A4B29C42F2DB9C4203D1284600F059F8105570BD000070B500210A4D5B1E0AE0541864782602545C344346193480B4
:40354000001D891C80B289B29942F2DB994202D1515C4019018070BD00102E40F0B50599091FCFB200217E1E0BE0541864782502545C2C43164D45192C80001D891C80B211
:4035800089B2B142F1DBFC0712D01C78515C24020F4A0C4381180C809C785D78001D210280B2294384182180001D80B2D9780CE059781A7809021143054A84182180001DFD
:4035C000D9789B78090280B2194380180180F0BD00102E40014940180088704700102E4010B50B490020487000F0A2F8002000F09DF9002000F08AF907210648FEF7E0FB31
:40360000044807211830FEF7DBFB002010BD00001F0D0020CC112E4010B50C48007801280FD100F091FF00F0DDF8002804D10848016A490849000162054802213030FEF726
:40364000CDFB02490020C91E087010BD1F0D002040F02E4010B50B46062812D006DC01280CD0032801D1FFF7BBFF10BD0A28FCD00B28FAD105480078107010BDFFF712FF65
:4036800010BD1146184600F06DF910BD220D0020F8B5244DAC6A0127A007234E002816DA307806280ED1286A384328621F480069F903084381B21D481030FEF78FFB0420AC
:4036C00000F00EF9174802212830FEF779FBE00718D000F07BFF01280FD1002000F0C8FF062000F0FDF81049FF20C91E48707078002802D1686B384368630A48012128308D
:40370000FEF75EFBE0050BD53078042802D1052000F0E6F80348FF2101312830FEF750FBF8BD000040F02E401F0D002000002E4010B503212348FEF751FB0120FEF726FCCD
:4037400020483038406A204C80076178800F890001431C480C38FEF741FB6078002808D0401E022181401820FEF79CFEC000083800E0B82081B21548FEF730FB1348032106
:4037800009021438FEF72AFB10481149B830FEF725FB612189010F48FEF720FB0D480321001FFEF71BFB0C490C48FEF717FB0B480B496038FEF712FB084801218838FEF7BB
:4037C0000DFB10BD70F02E40220D0020D8102E4090890000041E2E40FF0F000058122E4020900000044800684007400F022801D0002070470120704700010B4000B5FFF757
:40380000F1FF002805D009480168C908C900016000BD0748016A490849000162054801690122D2039143016100BD000000010B4040F02E4000002E400849087806280BD19D
:4038400048780749002803D1486B400840004863C86A01221043C862704700001F0D002040F02E4001480078704700001F0D002002484078022800D0012070471C0D002002
:4038800000B50300FFF762F8080D050D0B070507090D012000BD032000BD042000BD022000BDFF2000BD0000074A9168D26889B2064B92B2994204D105498A4201D1012139
:4038C00000E000210170704780002E4033D000003FE3000001494870704700001F0D002010B50446FEF772FB072C01D9FF2C01D102480470FEF764FB10BD00001F0D0020E1
:4039000001494870704700001C0D002010B5064A012805D01921C9021046FEF75FFA10BD1D21C902F8E7000090002E4010B50A4A141D012808D009491046FEF74FFA084994
:403940002046FEF74BFA10BD04491046891CFEF745FA0349491DF3E788002E4031D000003AE3000070B50C460546FEF74FFBC0B202280E49287804D0FF2810D04C280CD8F7
:4039800010E0FF2809D10A4AD0680004800F032801D0087807E09069000A553803E00878207070BD4F382070087070BD1E0D002000002E40F0B50122002834D0002932D050
:4039C0000424420600D00524792342065B06D21800D0641C034600221EE00C2516466E43124D00277519AF72104F002ABB51696007D0661EB24209D10D4E86197606760E82
:403A000005E05E06760E8027BE1B00E080269B198919521C2E81D2B2A242DED303480549006B002288611046F0BD0000A813002079020000280D002018B500206946087056
:403A40000A48006900280ED0132149014018047E684604704F21C900054800F059F8A04201D0012018BD002018BD0000280D00202C110020074900200C2242435218927A5B
:403A8000012A05D0401CC0B20628F5D30020704701207047A8130020F8B50E000446154609D0194F19497868A04202D94018A04201D38D4201D90120F8BD31462046FEF7B9
:403AC00029FD00281ED02A4631462046FEF731FDE8B200210C224A43D21913895568EE18A6420BD90126641B1B1B9672834209DA1469C01A044AC0B220329676491CC9B2AD
:403B00000629E7D30020F8BDA813002079020000034610B50020024604E09C5C2018521CC0B292B28A42F8D310BD000070B500F05FF8084C064A216907480D46FEF7F9FC39
:403B400005492846FFF736FFFFF776FF207070BD79020000280D00202C110020002070470020054A002902D0012902D002E0906000E0D06000207047280D002070B5084C45
:403B8000154608460549E26889182A46FEF7D1FCE0684019E06028B270BD00002C110020280D00203EB50A226946FFF7E7FF044606480A2200686946FEF7ACFC002802D03B
:403BC0000020C0433EBD20463EBD00002C0D0020002802D0044A914201D2FF20704703494A6108610020704779020000280D0020024800218160C16070470000280D0020A9
:403C000070B5074C15460548A26880182A46FFF743FFA0684019A06028B270BD2C110020280D002010B503490A220968FFF7E8FF10BD00002C0D002010B50F4A002313609B
:403C40000E4A13600E4B18600E4801600E49012008600E490860000290600E490C4808600D4914300860FF381538506000F0BCF800F0CAF9002010BD5C0D0020440D0020D9
:403C8000700D0020740D0020600D0020500D0020F0140020540D0020680D0020014610B50020002910D0094B1A689C685118A14209D25868196080188A0704D08A07920FE4
:403CC000891A091D196010BD002010BD440D0020F8B50024164E671E321F3D463168136806E01422624310328A58521C1BD0641C9C42F6D36A1C14D02C461422544322463F
:403D00000C3288500C214843FFF7C8FF3168002808510AD031680020103408517068401C70602846F8BD2546E4E73846F8BD0000540D0020F3B50026F64381B000281BDB47
:403D40001E490968884217D80299002914D01B4F142204463F1D54432546396810354859401C09D0FEF732F938682F1F4159C359994203DBFEF724F93046FEBD21460831A6
:403D80000091465801590C20704308180C220299FEF7CFFB0948761C001D0068C159B14200D100260549009A091D865008684159491C4151FEF704F90020FEBD500D002058
:403DC000002803DB07490968884202D90020C043704704491422091D096850431030085870470000500D0020F0B500200D4A451E0346171F50600FE01426014671431468AE
:403E00000E1DA3510C461668083433511668083435511468401C635039688842ECD30020F0BD0000540D0020F3B50026F64381B0002841DB2349096888423DD80299002994
:403E40003AD0204F142204463F1D54432546396810354859401C2FD0FEF7B8F83868415900292BD0211D009146580C21005971430F46C1190C220298FEF75BFB11480021A3
:403E8000001D0068761C00590C34C0190160416081600C48001D00680159B14200D100260849009A091D865008684159491E4151FEF786F80020FEBD3046FEBDFEF780F8A3
:403EC000FAE70000500D0020FEB504460D4600201E49089E0860471E009001900290002C11D0486885420ED2002A0CD0002E0AD0642E08D808460C3001681C2068430C1885
:403F0000207A002801D03846FEBD0120226020721846FFF7DDFE6060401C13D06681A6810A4827610C3067610179A94200D205710021684601810A462846029B00F040F8E5
:403F40002846FEBD00202072DDE700005C0D002038B50124009400F039F838BDFEB50027164EFF433D4600240EE01C20316860430818017A002906D04068FFF721FF002850
:403F800001D0254603E0641C3079A042EDDA681C12D01C2130684D434419FEF717F869466068FFF741FF0546FEF70AF8002DD9D1216868468847D5E7FEBD0000680D00200C
:403FC00038B50024009400F001F838BD1FB500220C49541E0A60002811DB496888420ED808491C220C31096850430818406801A9FFF7A0FE401C02D0002004B010BD204697
:40400000FBE700005C0D0020F0B50021114A4D1E174611710C3F0B46BD6016E008461C2460431668041D355114680646235014680836A3551468361DA353044616680A34ED
:40404000335318301468491C255078688142E5D30020F0BD680D002038B500210091002811DB0F49097888420DDA0D4D04010C3529680859002807D0201D0818694600F095
:404080006FF9002801D0002038BDFDF79FFF28680F34015D491E0155FDF792FF009838BD780D0020F7B582B0002502986E1E06602E48D21C024017462D4A2C4610460C383E
:4040C0000178106805E02301C358002B0FD0641CE4B28C42F7D3711C28D03401211D40180191039900F02AF900281FD101E02646F1E71F48016820460C300F521C48039952
:40410000026820460E30115419480399026820460F3011540398784300F0A0F8144900280968085102D00024009011E001251AE00F48016801980818009900F02CF9002888
:4041400001D0012502E00098C0190090641CE4B203988442ECD3002D05D10298066004480179491C0171284605B0F0BDFCFF0000840D0020F8B50D4600216A468C461180DF
:40418000002839DB23490978884235DA214B04010C3319680A59002A2ED020460C300B5A801C0E5C184670438018954224D3854222D2002006E007465F43BF18AF4206D06F
:4041C000401CC0B2B042F6D36046002814D0114E271DC8190C366A46294600F006F900280AD168460088012808D030682946C01900F0D1F8002803D00120F8BD0020F8BD37
:40420000FDF7E4FE30680F34015D491C0155FDF7D7FEF3E7780D0020F8B50F46002400F031F8002817D10C4900220B460C334A600EE021011D680E466A501D680C36AA5305
:40424000B61C1D680F31AA551D68641C6A54E4B2BC42EED31A71F8BD780D002000280BD0C01C074A81085068890053884118994203D893685160181870470020704700005D
:40428000780D0020F8B5064600200F4D009029700C0121466846FEF7F7FB00280CD129460C3100980860301B001F84B221466846FEF7EAFB002801D0FF20F8BD6C80009821
:4042C000A8600020F8BD0000780D0020F8B5002827DB19490978884223DA174C05010C342168485900281CD028460C30085A009028460E300E5C401C0E5420682F1DC019B7
:4043000000F064F800280CD12068002445590EE0094829460C300068C01900F03CF8002801D00120F8BD00982D18641CE4B2B442EED30020F8BD0000780D002030B50D4668
:4043400004000BD0A800FFF789FF6060002805D000202570C0436080002030BD012030BD70B50D46040005D0002D03D00220205E002801DA012070BDFDF728FE0221615E8A
:4043800060688900405828606088401E6080FDF717FE002070BD70B50D46040007D0002D05D002212078615E401E814201DB012070BDFDF70BFE6088401C00B2608061685A
:4043C00080000D50FDF7FCFD002070BD10B5040009D0227800216068FEF7B4F80020C0436080002010BD012010BDF0B500231D46002802D00224045F0AE00120F0BD4668EE
:404400009F00F6598E4201D1012503E05B1CDBB29C42F4DA15700020F0BD000001480078704700008C0D00207CB505460024FEF7C5F8A8796946087000A8062229460130A6
:40444000FEF777F80021684604F098FF0C2806D0072806D01F2806D0122806D006E0022404E0042402E0272400E0012420467CBD01480121417270472816002010B5022837
:404480000BD0032802D0042809D102E000F07EF905E000F029FAFF2801D100F039FAFFF7E1F9FFF7EDF910BD10B500F061FAFFF7D9F9FFF7E5F910BD70B504460025FEF746
:4044C0007DF8002C06D0A079012803D8214602F0DDFD00E00125284670BD01460120002902D05020088000207047000001460120002905D003485422007850430880002048
:40450000704700008E0D002010B502460D49FE204870032410460DF083F9002810D10DF027F900280CD105F005FD002808D100F02FFC002804D105F0C7F9002800D10024CD
:40454000204610BD8C0D002002480021018280210180704700102E4070B50025044600280ED0A07901280BD8FEF728F8A0790028204602D003F066F903E003F03BF900E081
:404580000125284670BD0000014610B50120002904D006220248FDF7CCFF002010BD0000980D002001460120002903D00878024908700020704700008E0D002010B5FFF739
:4045C00051F9012801D1FFF753F910BD0148007A704700002816002038B504460120002C20D0617801291DD800290BD0FF25E535FDF7E4FF0C4828180088C0B220700728BD
:4046000003D00EE0FF25CD35F2E70020694608706846FFF749F969460878012801D108202070002038BD000000102E40014A0021926810478C0D002008B500226B461A7088
:4046400026280CD0094A342852680BD0352805D1900703D50021352005F048FD08BD19462620F9E7D007F9D03420F5E78C0D0020014908727047000028160020F8B50446D7
:404680000120002C26D06178012902D92278092A20D8002905D0FF25E5352078092803D004E0FF25CD35F8E708202070FDF786FF2078114F114E08280DD00020FFF736F979
:4046C00070780128207810D00D4969180880FE2070700020F8BD0120FFF728F90720B8810549203188800120F2E7B8810248217820308180EBE70000C0112E408C0D00208F
:4047000000102E4070B50E46050001D0002400E00C4C002C11D0E28A500609D5D107C90F022003F02DF9E08A40218843E08204E0D107C90F012003F023F93146284602F025
:4047400001FE70BD88150020F8B50546002004460D4E009013E022466946284601F002F90098002801D00DF03DF8A878214602F0CBFBA878214602F0B9FB641CE4B2308AA0
:40478000A042E8D8F8BD000054160020F8B54E4CFFF768F8012847D14C480078002843D002F058FD00283FD004F08AFA00283BD0474E7078C00703D000F01CFD012833D07E
:4047C000307E00287DD17078002500285BD0000706D540488089070B00F02EF9384370D13B484178684604F0C1F821793A4CA2788918C9B2814262D802F02CFD002860D080
:40480000344860300789324E203602F06DFB6846008802F097FB02F033FC30490988884203D10120FFF75CF84BE02D49012008702748807B00281DD0002F1BD04036F07E07
:40484000002817D123486030008821494000C031498981420AD26078002807D103F0BEF82049088A03221202104308822078002800D0257002F09CFB0120FFF72BF800F02F
:4048800025FC174C15E002F0E5FC002819D0102402F0F6FB214602F0DFFA02F053FB104C0120207002F084FB0020FFF713F800F00DFC20780128B4D1FEF7A0FF25700020EB
:4048C000F8BDFF20F8BD0000601500201C0D002068150020A0102E40B20D0020C40D00209E0D0020E0112E4010B50848FF244078002809D102F0AEFC012805D1FEF78CFE90
:404900000720FEF7EDFF0024204610BD6815002038B5FEF7A7FF012801D0002038BD02F099FC00280AD0114C6078C00703D000F061FC012802D0207E002801D0FF2038BD99
:40494000617800290FD0684604F010F8022806D96846008802F0F6FA012002F033FB0320FEF7BEFFD9E70020F7E700006815002038B51E4CFEF776FF042813D0052811D03C
:40498000062812D003282AD007280AD100206946087002460120FEF75DFEFEF763FF0128FBD138BD00F0B2FB38BD02F023FB00F0ADFB02F09FFB8007800F0228F4D10C4858
:4049C00041880029F0D05B21095D0029ECD101210170A07D0140022002F0D2FF38BD02F00DFB0120FEF77CFF38BD000088150020B20D0020F8B50646002403F02FF80546D4
:404A0000304603F045F803460A480021068A0DE001228A401046174628401F40002803D0002F01D1224394B2491CC9B28E42EFD82046F8BD5416002070B500252C460A4E59
:404A400003E0002C01D0002000E030460079002803D02046FFF7CEFF0543641C2406240EEFD0284670BD0000881500201CB50020694648706846FFF7AFFD01AA69460A20DC
:404A8000FEF7E8FD6946042008561CBD70B50D4601F048FB04000BD02079002808D0FDF78DFDE178A0782A4602F0D2FC002070BD022070BD01480078704700006015002026
:404AC0004030C07E002800D00120704700B500F001F800BD902148430749084A40186030417F491CC9B24177D289914201D300214177C8B27047000068150020541600208C
:404B000013B501F00FFB04000BD001F0ACFE002807D0214601AA0A310620FEF79BFD00201CBD02201CBD000010B50C4601F0FAFA00280AD001F097FE002806D0224604490E
:404B40000A20FEF787FD002010BD022010BD000049150020F3B581B0074601460026029802F074FF0446002F01D0002500E0154D002D21D0284601F00BFB032C04D13946EF
:404B8000029802F0BFFF06463846029902F0AEF9032C06D0002C10D00121384601F0FEFB03E03146384603F0ABF9284602F08CF80221284602F0A2F8FEBD3846029902F0DC
:404BC00095F9FEBD8815002010B5044600F066FA002804D103F05EFE002801D00C2010BD2078611C02F036FDFF2801D01F2010BD02F07CFDFF280AD02178621C02F0FEF869
:404C0000044821780068026B601C904710BD072010BD0000D80D002010B503F03BFE002801D00C2010BD02F0F7FC03480068C06A8047002010BD0000D80D002070B50D46CB
:404C4000044610210CF00EFD1021601806460CF009FD334610221946204603F049FE102130460CF0FFFC02202870204604F062FD70BD0000F8B50446407821780202800601
:404C8000870FE0781143A67809050002090D0643084601F047FA00210546F2B2002812D0002C10D0022F0ED0032F0CD0002A0AD00279092A07D0002A05D0134A5A23527E30
:404CC0001B5C9A4207D82889002104F068FC20460CF088FDFF21002914D10C48224600682946436930469847C0B2FF280AD128464030817EF2B2491C8176FF232146284667
:404D000000F0E3F8F8BD000020150020F40D00200020704710B5044603F0BCFD002801D00C2010BD2078611C02F094FCFF2808D002F0CCFB044821780068426B601C90475D
:404D400010BD1F2010BD0000D80D002010B500F06BF904F0B9FD002010BD10B5044600786178E2780843A17811430843217908436179084305D003F07FFD002803D00C2073
:404D800010BD122010BD204602F05CFD002010BD10B5FDF73BF902F083FE044803F0DEFE02F09EFB012000F003F810BD30150020F1B586B003A8009005A8019028489F22BF
:404DC000817A114081726846FDF712FC002845D169460989C90705D0224806990068C2686846904769460989890706D5002835D11D480068816A0698884700282ED11B4EF1
:404E00000025757075737571F575357675767575B570F570B5713746F5730120D03738731F20F880FF2130467972A0300176457600F0F0FA00242046069901F0BFFC002837
:404E400003D1641C2406240EF5D0FD720749BD72B573C0310D704D704D600D7207B0F0BD20150020F40D0020D80D00206815002070B505460E46084602F0F0FD0446304623
:404E800002F006FE0121A9400A46224001400A4301D0012070BD002070BD10B50446084602F0F6FD0121A140014201D0012010BD002010BD10B5FEF7D5FC032804D102F094
:404EC0009DF80120FEF70CFD10BDFEB51C4616460F46054601F0F8FEA878FFF7F7FD02460190334639460094284600F00DF8002808D1A8780199FFF705FCFF2C02D1384639
:404F00000CF070FCFEBD0000FFB585B005460E980C46FF2810D02B49C00009680A5840180179C0795278814201D9012601E09006860F6846038108E06078A1788006860F49
:404F4000E0780002014368460181284601F096FC070007D021462846079A00F097FC384609B0F0BD304600F045FD04AE0346039002AA29460096204600F0D1FB3C20405DB5
:404F8000002818D0284601F079FC012813D0684600890096C0B20190A878231DFF22079902F084F968460089039BC2B2A878079902F0C4FCD3E7684600890021C0B20091D1
:404FC000E9E70000F00D0020F8B5002600253046FFF710FD07001DD090201149704340186030447F12E0601CFDF76CF9CCB23846E040C007C00F07D02146304601F06CFF6E
:4050000021463046FFF7A6FD6D1CEDB20548018AA942E8D8761C3606360ED7D0F8BD0000681500205416002010B502F059FA0020FFF7BEFE0CF06CFC002010BDF8B50024BC
:4050400000F0D2F80123012800D10124104F00203E4620360425082203E0002801D0002100E031460979002907D001290BD002290BD0114681402143CCB2401C0006000E3C
:40508000EBD07C70F8BD1C43F7E72C43F5E700006815002010B5FFF7D1FF10BD10B5044604F064FD002802D1601C00F001F810BD1CB500240094062269460194FDF72AFA79
:4050C000002800D1122420461CBD000070B50E4CFCF7DFFD0546FEF7C5FB062802D02078012803D02846FCF7D8FD70BDFCF736FD2846FCF7D2FDFEF7B5FB0628F5D0207877
:405100000028E5D170BD00009E0D002010B5FCF7C0FD0446FEF7A6FB012809D0FEF7A2FB022805D0FCF71AFD2046FCF7B6FDEEE72046FCF7B2FD10BD10B50B468179194385
:40514000817103D08078114602F0C6FB10BD10B582798A43827102D1807802F0D1FB10BD30B50C4C0220A28A0B4B9978002901D0022906D11D785B78EB18282B01D903201C
:4051800002E0032900D101205105490DC0020143A18230BDC0112E40A80D002000B500F029F8002807D0012805D0032801D0042801D0002000BD012000BD014600B5002086
:4051C000C90701D000F010F800BD014600B50020C90701D000F008F800BD00000148006870470000A00D002001480088000A704720102E400448008B410501D504207047BC
:405200004007800F7047000000102E4010B501F037FF044601F07EFF0146204601F058FF10BD00000148406870470000A00D002038B50446000610D5FFF7DCFF01280CD18F
:40524000684601F0EBFE6846007800F023FB012001F0A2FD0220FFF71DFF600708D507480179012904D1002101712620FFF7E4F90348006801692046884738BDAC0D0020B5
:40528000D80D002070B505460C49007800240870FFF7AAFF012803D1FFF7B8FF022803D3284602F03BFA07E0284600F0EBF8040002D1034801210170204670BDA80D0020ED
:4052C0002816002070B50446FFF78EFF002801D00C2070BDA27B01211F48002A827801D00A4301E05208520082706279012A14D0C17849084900C170184D286801682046F3
:405300008847207901280CD06188208803F074F82080207904280FD015E0C2780A43C270EAE72868C168E01D8847E01D02F076FA0B48808C208006E02868C168E01D8847FF
:40534000E01D02F06BFA074920798870204602F0F3F9002070BD000068150020D80D002020150020A80D002008B50178FFF73CFF814201D10C2008BD002914D007206946CB
:405380000870FFF70BFF012807D10121684600F0D9F8012801D0092008BDFFF7E1FE02F0FFF9012011E0FFF7F9FE012806D1684601F034FE6846007800F0A0FA02F0E6F9EB
:4053C000FFF712FF0028FBD10220FFF763FE002008BD000070B505460C49007800244870FFF702FF012803D1FFF710FF022803D3284602F051FA07E0284600F05DF80400F9
:4054000002D1034801214170204670BDA80D00202816002038B568460CF07AF9002801D01F2038BD01210098C90201804180002505714571857107214173857302F07CF935
:40544000009C202200212046FDF77CF825702A460021601CFDF776F8204602F05FF9204602F01AFA00980CF0BDF9062200210448FDF768F802480C388560002038BD000084
:40548000AC0D0020F8B504460025684600950CF03FF9002801D007250AE0064E009830602278611C401CFDF744F83168207808702846F8BDA00D0020F8B5044600256846EF
:4054C00000950CF025F9002801D007250AE0064E009870602278611C401CFDF72AF87168207808702846F8BDA00D00200346084800B5834209D8184600F014FE002804D080
:405500000089984201D1012000BD002000BD0000FF0E0000074A9179491C8906890E917138220A4092014907090E1143084302490840704768150020FF0E0000C006C00EC1
:4055400070470000F8B507460E4600240D4803E0002C01D0002500E005462979002905D0641C2406240EF3D00020F8BD0021204601F024F92E712046FFF7CCFF28813C70B9
:405580000120F8BD8815002010B503F0E5F90222002100F003F801F04FFF10BD10B5094B40074907000F090F185A595A40185043C0086421FCF786FE002800D1012080B28F
:4055C00010BD0000B4440100F7B53D20405C88B015460C46002802D02878042802D200200BB0F0BD6946087200262046FFF768FA012800D00126204603A938300191009070
:4056000023460327A17E34333246206A03F0C0FA02A8089900900B46019120463A4603A9243003F045F902466846007A2870204601F0B0F81046D3E7FFB587B00C4605462E
:405640001078694608723D20005D1746002826D000262046FFF734FA012800D00126204603A93830019100902346A17E34333246206A03F08DFA02A80090291D01912046F5
:405680002B1D03A924300A9A03F012F902006846007A388002D1204601F07CF810460BB0F0BDF0B505463C20405C89B016460C4600280CD0307869460873002806D00027F8
:4056C0002046FFF7FDF9012803D003E01F2009B0F0BD012703200890204604A93830019100902346E17E34333A46E06903F050FA6846007B03A928180290009120462B4610
:40570000019504A92430089A03F006F902466846007B3070204601F047F81046D7E7FFB505463C20405C89B016460C46002810D0084601F0A3F801280BD03088694688834D
:40574000002809D000272046FFF7BAF9012805D005E000200DB0F0BD0220FBE70127204603A93830019100902346E17E34333A46E06903F00DFA291D2B1D07A8129A6D462F
:4057800007C5204603A924300C9A03F0C5F802466846808B3080204601F006F81046D9E770B50D460446FFF78BF901280AD0E87AA97A00020143A07801F02AFD012808D00A
:4057C000002070BD00222421204602F067FD242070BD28214C200155204600F0B1FB282070BD0000002801D0002000E003484030C07F012800D000207047000088150020C6
:405800000146002049070ED50021084B03E0002901D0002200E01A461279022A04D0491C0906090EF3D0704701207047881500200146002049070ED50021084B03E00029DC
:4058400001D0002200E01A461279022A04D0491C0906090EF3D07047012070478815002010B5044680346068002803D00BF0CEFF0020606010BD403041707047403081709C
:4058800070474030017070470171704792001018C166704770B53C2501F096F9040004D020460021433001F053FCFF222946204600F0E2FB002C02D0A07801F007F970BDC9
:4058C00010B5002801D0002000E00348002802D0008903F0ABFE10BD8815002010B5002801D0002000E00448002804D00179072901D100F047F810BD8815002010B501F005
:4059000063F9002802D0807801F0E0F810BD00207047000070B50546008A00281ED01049F122897A1140C90618D5294640314A8A098A521C4A4392B2D10800D10121540872
:4059400001E0621A94B2A042FBD9FEF767FD012804D1298AA878224601F030FD70BD00002015002010B50023054C0B60248A944204D992001018C26E0A60C36610BD00004D
:405980005416002038B5044600200090A079002814D14020015D052901D00E290ED168460BF0C6FE002809D12046009902F054FC03481021C28A2046FFF7BEFB38BD0000FB
:4059C0002015002010B50B4604460146184602F0CDF8002802D020460BF00EFF10BD13B5044601AA11460620FDF734FE6846818861811CBD002800D1022070477047000006
:405A0000F8B504462346401D543300909A1EA078911E01F01FFB25464035A88A298A8000FCF750FC401E81B2688A884203D96982A07801F0DFFF698A8C2001512046002111
:405A4000433001F085FB27480088E88102F084FFE989891C8AB26179FFF7A0FD01F0ECFC02F07AFF2A8A6179FFF798FD074601F0D7FC688A002806D01B49088A0322120220
:405A80001043088202E0002001F0A8FF1648803801886E8A002E0CD0304648431349FCF701FD0004000C01D0401C80B21049488002E00F4800214180288A704381B2A07825
:405AC00001F0F8FEFF2228374932B9B21346204602F096FCE98AA07801F06CFEA07801F025FAF8BD80102E40E0112E4071020000B20D00207FB504468034616805460E460A
:405B0000183108226846FCF714FD31462031082202A8FCF70EFD102168460BF0A3FD6068102108300BF09EFD60682B46083024331022694602F0DCFE7FBD10B5044608217C
:405B4000FFF705FB10212046FFF701FB207905281FD006281DD008281AD12189002003F0DDFC072020712046FEF7AAFF014620464030012913D00E210170002101762046A1
:405B800000F0B6FF2046FFF76BFE2046FFF7C2FE10BD20890122002103F0A4FCE1E70521EAE70000FFB581B01F4604460821FFF7CEFA10212046FFF7CAFA2079082803D0EB
:405BC000092804D0042203E00422012501E009220025204600F03EFE264600204036307022712046FFF73CFE0398002D02D0012808D00BE001280AD120890022029903F0DA
:405C000071FC04E02189029803F088FC012700203076012F04D0204600F06AFF05B0F0BD02983073204602F065FB054605480121C28A2046FFF780FA002DEFD109202071CD
:405C4000ECE700002015002070B50C460546FEF737FF012809D108212846FFF778FA0023012221462846FFF79DFF70BD10B5044600F0F0FD2046FFF7F3FD002140342170D5
:405C800010BD70B505461A24FEF71AFF012809D108212846FFF75BFA0023012221462846FFF780FF70BD0000F8B50446002000900E4668460BF03CFD002801D00D20F8BD01
:405CC0008420005908212030009D00F026FA20460421383000F021FA002E02D1204600F0F5FD2946204602F046FA0E480821C28A2046FFF721FA204600F06BFF2546403551
:405D0000002808D0204600F023F8002801D0092028700020F8BD08202870204600F0D4FFF7E7000020150020014610B540310A460978082906D0092907D00A2901D100F0F4
:405D400091F810BD0B20107010BD00F001F810BD70B50446007925464035052805D0062803D008280FD00C2070BD03220621204602F094FA0D480821C28A2046FFF7DCF93F
:405D80001120287010E006202873204602F0B2FA0646AA8A0A20424301212046FFF7CCF9002E01D109202071002070BD2015002038B504460020009068460BF0B9FC00282A
:405DC00001D00D2038BD2046009D00F0BDF908202071204600F07AFD2946204602F0FEF900213D2001550F2040210855204600F06BFF002038BD00B5024600F02BFD1021E7
:405E00004032117000BD10B50446FEF759FE012809D04020005D112805D100231A4606212046FFF7BFFE10BD10B5FFF786FE10BD38B504460021684600910BF079FC0028BE
:405E40000CD12046009902F04AFA05480821C28A2046FFF771F90D204034207038BD00002015002038B504460021684600910BF05FFC002801D00D2038BD2046009902F014
:405E800023FA05480821C28A2046FFF755F90C2040342070002038BD2015002000787047F8B5002569460D70002801D0002400E01F4C002C18D0204600F0D5FC002813D0E4
:405EC000207903280BD005280CD026464036B18AA07801F0F9FCB078012806D01DE0042020711DE006202071F8BD0021204601F05AFE274680373868002802D00BF086FC92
:405F00003D600020B0702079072802D12046FFF701FD0221204600F0F1FE20790428E3D1207A694608703420FEF786FBF8BD00008815002010B54C22115400F04CF810BD18
:405F400010B50446FF21FFF702F909202071A07801F0E0FC10BD000038B5FF216A461180002801D0002400E0084C002C0DD011460620FDF76FFB684601882046FFF72FFD53
:405F800003480068C1692046884738BD88150020F40D002010B504468079002809D022214C200155FF212046FFF7D1F8204600F012F810BD10B5037902464032002B03D083
:405FC0001173092B02D003E0002100E02221117300F001F810BDFEB504460089002700902781207926464036002817D0012815D002280AD112E002AA01A9204601F0A4FDF4
:40600000002807D101980BF0F7FB204601F0C4FD0028F0D02046FEF797FBB776254680352868002802D00BF0F1FB2F606868002802D00BF0EBFB6F60317B002919D00098D0
:4060400000F064F8A078002100F092FF2046FFF79BFAA07801F0C6F8A07800F037FDFF212046FFF774F80B20FFF714F800F068FCFEBD1F213173E2E7F8B517460E460546AC
:4060800002F066FC04003CD020460C3001F050F82046062200211830FCF754FA2046062200211230FCF74EFA1648224600683946436A28469847074626702846FEF700FD53
:4060C000012148406070002D10D02889608028464030C1782171002E0FD169796171018AE180418A2181808A608106E00648008BC005C00F2071002060803946204603F01D
:4061000090F9F8BDD80D002000102E400A4610B50146002003F0A2FA10BD10B50BF07EF810BD000000B50146FFF708FA002801D0002000E00348002802D002898A4200D06A
:40614000002000BD8815002038B5044680346068002806D168460BF0FBFA002801D100986060606838BD000010B5014600F086FB0128887802D0FEF7ADFC10BD9021484307
:40618000024940186030007F10BD00006815002070B5054604464035A87F012811D1A1789020084A484380186030067F3046FEF75FFE002805D10220A877A078314601F088
:4061C000CBF870BD6815002010B50C4CA07A002813D0FEF7F9FE0A48027F417F408B00F0B7FB012809D10020A07200F02DFF05498989090B01D000F03BFA10BD38160020EE
:4062000068150020A0102E4070477047490510B5490F0B00FCF79AFB060704080C0C0F073E21FFF787FE10BD0821FFF7C3FE10BDFFF7D1FE10BDFFF7ADFE10BDF8B50746A2
:406240000025002D01D0002600E0204E00F0A6FE3046403044890021418100F0C3FE304600F001FB01282BD1A00702D52846FFF717FEE00602D52846FFF76EFEA00601D525
:40628000FEF7A2FE600601D500F014FB200602D5284600F01DF8600702D5284600F02CFA380402D52846FFF719FB780402D52846FFF706FBE00703D021463046FFF7A6FF67
:4062C0006D1C2D062D0EBCD0F8BD000088150020F8B5002801D0002400E0284C002C4BD025464035A878012846D1FF278820493700593E46002805D02149897A890601D50A
:40630000878AC68A2046FEF7DBFB012834D002F023FB2A8A6179FFF741F9009001F080F800983346283081B23A46204602F068F8E98AA07801F03EFA12480188688A124E1A
:40634000002810D048431149FCF7ACF80004000C01D0401C80B27080A07DC107C90F002001F00EFB01E000207080288A698A484381B2A07801F09EFAF8BD000088150020FC
:406380002015002060112E40B20D0020710200000149096809680847F40D002070B50D460026194A0146002801D0002401E014462034002C26D0204600F060FA01280AD1F1
:4063C0009020484380186030007FFEF751FD002801D101F00FFF0D48006881692046884700280CD020464030817EA94202D3491B817600E086762089294603F0D0F820469A
:4064000000F062FC70BD000068150020F40D002070B503460088FFF785FE040013D000F022FA00280FD02079092819D02546997840352973204601F05DFF0646A878012832
:4064400003D0AA8A02E0022070BDEA880A20424301212046FEF770FE002E01D109202071002070BD0EB5002217216B460292198100905A810120029B00990BF067FA0EBDEC
:40648000F8B518480024807A002822D1164E0025B089000B22E0204600F074FE1249A039401807882A462146384600F051FA012810D00E480122478305770A4944778A7282
:4064C000002D01D0002000E02030002801D000F0FBFBF8BDB089000B641CE4B20028DAD1F8BD000038160020A0102E406815002010B50088FFF716FE002809D0014640319F
:406500000C460978082905D00B2903D00C2010BD022010BDFFF71CFC002801D009202070002010BD70B503460088FFF7FBFD040008D0254640352878082805D00B2803D09B
:406540000C2070BD022070BD8420005910220830991CFBF7EEFF2046FFF7CCFA2878082804D02046FFF77EFC002801D00A202870204600F0A9FB002070BD000010B50C46C3
:40658000002121700088FFF7CDFD03000BD000F06AF9002807D00948F121807A0840C00603D4112010BD022010BD022020701A8A1889002103F06EF8002010BD20150020CF
:4065C000F8B50F46002100910088FFF7ABFD040012D000F048F900280ED0E079410641D4617E02264A07002A08DB8907402500291ADA2843E07135E00220F8BD02F0A8F93D
:406600000021017021894180A1898180217E4170E189C1803E7005460178134802F014FD284602F0DBFF1DE0204600F02DF9012806D068460BF07CF8002803D00720F8BDC1
:406640002A20F8BDE07900992843E071204601F07BFE607E0421304360760448C28A2046FEF76AFD0020F8BD1D040000201500203EB500220F236C46029223810091019059
:40668000628169460EC900200BF060F93EBD0000F8B50F46054600F097FA040025D003202071254600264035EE76E6702046FFF7A7F901F06BF80920FEF7ECFCA07800F069
:4066C0007FFD0121204600F019FB2E706E70AE703A4600212046FFF7CFFC0649887B401C8873A078FFF754FEF8BD284601F012F9F8BD00006815002010B5002801D00020D8
:4067000000E0094800280DD0014640310A464978022901D100215170807DC107C90F002001F02EF910BD00008815002070B503460D460088FFF7F6FC04000BD000F093F891
:40674000002807D01248F121807A0840C00603D4112070BD022070BD20464030418A008A491C41430804C10C5888884201D2122070BD20822079072802D12046FFF7CAF8FE
:40678000022028702089002102F0ACFF002070BD20150020016A491C016204D1817E491C4906490E81767047C169491CC16104D1C17E491C4906490EC1767047F0B50746A6
:4067C00087B003A8009005A800260D460190002F01D0002400E01B4C002C05D06846FBF707FF002803D00BE0022007B0F0BD68460089C00704D1902200212046FBF7A2FE54
:40680000114829460068826820469047050016D1A77066762746267140373E70204600F019F8204601F0B4F9084820820848BE77807AF121084000D001202075E682E8B23B
:40684000D3E7000088150020F40D0020B80B000020150020002101628176C161C17620300177417770470079002805D0012803D0022801D001207047002070474030807FD2
:40688000002800D00120704740300078002807D0012805D0052803D00E2801D0012070470020704710B5807801F0F2F8002800D0012010BD10B500F0C7FB03498989090B06
:4068C00001D0FFF7D5FE10BDA0102E4070B5054604464035A87F002825D1FF206075A0789021154A484380186030417F9023491CC9B24177A0785843104B8018DB8960302B
:40690000994201D300214177A0789021484380186030467F0677A1783046FEF7A9FA002802D00120A87770BD0220A877A078314600F012FD70BD0000681500205416002060
:406940000020401C0006000EFBD0002070470000F0B515468207920F85B0000A02926A469080002D01D0002400E0564C002C28D0084600F007FC07466846808800280BD019
:406980000298012843D0022841D003280BD03D20005D012879D08FE04B48381801882046FFF71DF888E00020029002A80AF0A0FE002807D03D20005D012802D12046FFF7DB
:4069C000E9FE7CE06846029E8388324600213846FCF734FD3C48381801882046FEF7FFFF284600F0B5FA01AA21463046FEF7ECFD002806D030460AF0EBFE3D204C21085519
:406A000031E0F5773146204601F02AFA57E0002000902089039068460AF05AFE002802D0002005B0F0BD6846009E8388321D00213846FCF703FD2448381801882046FEF770
:406A4000CEFF284600F084FA2046FFF70CFF002805D025464035287E002810D107E030460AF0ACFE2BE02046FFF76AFA27E001AA21463046029BFEF7DFFD002806D030463D
:406A80000AF09CFE3D202873EDE712E00298FEF7B5FF0399317003990001090A0143717068468088B070000AF0703046FFF7DAFC05E02046FFF76EFE284600F049FA01203E
:406AC000AFE700008815002000102E4010B5074A917B002901D0491E91730021FFF76EFE002801D0002010BD012010BD68150020F8B5074606464037B87F00282DD0B07809
:406B0000902100904843234945186035287F0099FEF7C3F901281ED0287F401CC4B21E48C089A04200D800240020B877FF276F772F77A87702460146009800F079FD717D82
:406B4000FF2903D0304600F0E4FF777501F052FB0025114F19E00320B877F8BD00200090224669463046FEF7FDFE0099002904D0FF231A463046FEF7A8F9641CF889E4B23A
:406B8000A04200D800246D1CEDB2F889A842E5D8F8BD0000681500205416002010B502460021084B03E0002901D0002000E018460479944204D0491C0906090EF3D000207A
:406BC00010BD00008815002000B50120FFF7E6FF00BD10B5044601F0BBFE2189018080346168416061682831816002F0B1FC10BDF7B50646087982B00C46092807D0A0780F
:406C0000F0770846FFF73AFE012806D010E030460AF0F2FD022005B0F0BDA1789020294A484380186030007FFEF722F9012810D0A078FEF7D7FD01280BD0377801213046EC
:406C400001F084FA25462035062F38D00B2F0FD107E06846027C21463046FEF7B3FE0D20D9E72046FDF72CFF012801D1002028772046FFF779FA054604AA21463046FEF732
:406C800010FD01205F2108556946097C002001910090A07833463A46294600F007FB69460A7CA0780323294600F048FEA0782946FDF728FD30460AF09FFD0020ABE701204A
:406CC000D5E700006815002010B502464032937F0021002B03D1927E002A00D00121064A927A002A00D000210279092A00D10121807800F065FE10BD3816002070B50C4649
:406D00000546FDF7DDFE00280BD1012C06D92879092806D02846FFF7C5FD0446002C02D004E0012402E0A87DC007FAD1A87DC107C90F204600F024FE70BD0000012807D007
:406D4000082804D104480282034808300180704701488038FAE70000A0102E40014908817047000000102E4010B50446FF20F130012C01D1FF20D530002200F053FE044A58
:406D8000108A044980B2A0430880108210BD000000102E40B60D0020034B198A034A89B2814311801982704700102E40B60D002010B50446012802D0082C07D102E0FF20F7
:406DC000D53001E0FF20F13000F024FE0348018A034A89B221431180018210BD00102E40B60D0020034B198A034A89B2014311801982704700102E40B60D0020F8B505465E
:406E00000120A84086B214460F46012231467C2000F008FE3A463146782000F003FE6078267800020643E078A2780002024360792379000203430C2045430D2080010549CF
:406E4000281844182680001D44182280001D40180380F8BD00102E40401880B270470000CB065B0E0343480901021943D00108430121C902084301490881704780142E4039
:406E80004278037812021343084A1382C37880781B021843908248780B78000203431383C8788978000201439183704700142E40024A1080000C90801181704700142E40D7
:406EC000044A002180180288491C89B21029FAD37047000000102E40024A10820148803081817047A0102E407047000010B5054A1082084600F0BAFD024A0021A03A801847
:406F0000018010BDA0102E4010B50B46044600F005F819462046FFF7DFFF10BD024A10820148803001817047A0102E4010B504490882FF20002220211D3000F073FD10BD6C
:406F4000A0102E400149088070470000C0102E40000202494D3008807047000000102E400249888A0422904388827047C0112E4010B5084B074C0202A03B0029208202D068
:406F800075321A8010BD04490020088088807632F7E70000A0102E40201A2E4000B5034908884880FFF7F8FE00BD0000B60D002010B50120FDF75CFB01495020088010BD55
:406FC00000102E4006490E220028888806D01043888003495120C039088070479043F7E7C0102E4000B502484088FFF7FBFE00BDB60D002010B5FCF71FFC10BD0149522095
:407000000880704700102E40884201D8081A03E00022D243101A401880B2704700210170704700000748808806492039098B884201D8081A03E00022D243101A401880B2DA
:407040007047000020112E400148008AC0B27047A0102E4070B5084C049D2082074804890548603006880E8001891180808818806007400F287070BDA0102E40E0112E405C
:407080000148008970470000C0102E4000280FD00D4A108B0870000A4870908B8870000AC8700948203000880871000A48717047064A10880870000A487090888870000A29
:4070C000C8701089F0E7000040102E40C0112E4000B5024A00F004F800BD0000FF7F000000B51346FFF790FF984201D8022800D2002000BD0148008A70470000001A2E4092
:40710000024908820248008970470000A0102E40001A2E40014880887047000020102E40024908820148803000887047A0102E40064B1A8999891B8A0270120A427081708D
:40714000090AC1700371190A4171704760102E40012904D00549098BC90B017070470349403109898907C90FF7E7000000102E40024908820248008970470000A0102E4081
:40718000201A2E40014840897047000054160020024908820248808970470000A0102E40001A2E40044A10820448028980894843101880B270470000A0102E40541600204B
:4071C0009021074B414300B5C918FF2260314A770A7700228A77114600F02AFA00BD00006815002090225043074A10B58018FF21603041770177002181770448418EFF2070
:407200001D3000F007FC10BD681500202015002000B5044A1082034880308088022200F003F800BDA0102E4010B50023884201D8081A03E00024E443201A4018044980B2E1
