:400000000080002011000000AD070000AD07000080B500AF00F0D4FB80B500AF294B12221A6001F0C5FD284B181C01F081FF012001F0CEFD302001F03BFB244B244A1A6088
:40004000244B8022D2051A60234B234A126802210A431A60214B224A1A60224B00221A60214B214A126808218A431A60FA23DB00181C01F013FC1D4B181C01F03DFD1C4B69
:40008000882292011A601B4B1B4A1A601B4BC82252011A60174B1A4A1A601A4B802212061A60194B8022D2021A60184B41221A60174B40221A60074B8022D2051A60BD4634
:4000C00080BDC04630001040001BB70004010B40060000800C020B4078002E407C002E406A2D000064F02E406CF02E40DC050000040301400000014041FF008000030140DB
:4001000040FF008008010B4000010B40080101400401014080B582B000AF72B6374B00221A60FB1D00221A7023E0FB1D1A78131C5B009B185B00324A9B183B603B681A786C
:40014000597809020A43997809040A43DB781B061343191C3B681A795B791B0213439BB2081C191C00F0B0FBFB1D1A78FB1D01321A70FB1D1B78012BD7D9224B224A1A60D5
:40018000224B992212041A60214B992212041A60204B992212041A601F4A1F4B1B78DBB202210B43DBB213701C4A1C4B1B78DBB23C218B43DBB214210B43DBB21370164A0E
:4001C000154B1B78DBB216210B43DBB21370144B20221A60134B144A1A60144B21221A60134B144A1A60144B20221A60FFF714FF00F07AFBBD4602B080BDC0466CF02E40FC
:40020000243D010000000240090000EE0001024000500F4010500F4000700F4001700F400000044008000440B16DDA000001044008010440041003001801044010B5064C6E
:400240002378002B07D1054B002B02D0044800E000BF0123237010BD78100020000000006C3B010008B5084B002B03D00748084900E000BF07480368002B00D108BD064BBB
:40028000002BFBD09847F9E7000000006C3B01007C100020A80B00200000000090B583B000AF01F065FD62B600F056FFBC1D3F4B181C00F049FB031C2380BB1D1B88002B58
:4002C0001DD13B4B181C01F0B5F93A4B181C01F0B1F9394B181C01F0ADF9384B181C01F0A9F9374B181C01F0A5F9364B181C01F0A1F902F0D5FA7B1D00221A7004E0324BDF
:40030000181C01F097F9FEE700F092FF031E45D001F05AFD031E41D001F0E8FD021C7B1D1A707B1D1B78322B14D002DC312B05D034E0332B1AD0342B24D02FE0012001F091
:400340008DFC642001F0B4FB002001F087FC01F04BFD23E0012001F05BFC642001F0A8FB002001F055FC01F03FFD17E0012001F09BFC642001F09CFB002001F095FC01F0B1
:4003800033FD0BE0012001F0B5FC642001F090FB002001F0AFFC01F027FDC04600F0B6F900F014F802F07CFAAEE7C04639040000703B0100B03B0100F03B0100343C010078
:4003C000503C0100703C01008C3C010080B500AF144B1B78032B22D0042B16D0022B00D01EE0114A114B101C191C00220EF04CFC0F4B1B78DBB2012B06D00E4B1B789BB2BF
:40040000181C00F0A5F80BE00AE00A4B00221A70084B00225A70002000F02CFB00E0C046BD4680BD9C210020B00B0020A4210020A02100209410002090B585B000AF786046
:4004400039607B68412B2AD005D8012B00D16DE0282B07D06BE04C2B38D04E2B24D0432B27D064E0334B181C01F0E4F8C04600F09BFF011C304B1A6880231B02134001D05C
:40048000012300E00023CB18002BF0D100F076FE00F0AEFF00F0F0FE00F05EFE47E0274B181C01F0C7F842E03B68181C00F01AF93DE03B685B88162B04D83B685A88204BF2
:4004C0001A8034E01E4B17221A8030E03B68FB60FB689B890F2B28D1FB681A1D0B23FC18184B101C00211A1C40230EF003FC031C23700B23FB181B78002B16D1114B1A78A2
:400500005B781B021A4300231204120C1B0C1B041343181C0DF0A4FD0B4B181C01F08AF80A4B181C01F086F801E000E0C046BD4605B090BDB83C010008022440D03C010078
:40054000AC0B0020A4210020EC3C0100083D010090B55A4CA54400AF021C594B862189008C46BC4463441A8000F062FE021C85239B00FB181A8085239B00FB181B88002B46
:4005800000D196E04E4B862292009446BC4463441B88012B00D08CE085239B00FB181A88484B1B88033B9A420BDB474BFA2292001A80444B1A8885239B00FB18033A1A802F
:4005C0000EE0414B1B88013B9AB23F4B1A803E4B1B88002B04D085239B00FB1800221A8085239B00FB181B88002B62D0364BFA2292001A80354BFB1800221A7014E0334B25
:40060000FB181C7800F0E2FF031CDAB2304B862189008C46BC4463441A552C4BFB181A782A4BFB1801321A70284BFB181B789BB285229200BA1812889A42E0D8254B8622EC
:4006400092009446BC4463441422BA181A60214B862292009446BC44634485229200BA1812889A801B4B862292009446BC4463440E221A81184BFC18184B0822B9181A78AC
:400680005B781B021A4300231204120C1B0C1B041343181C0DF08EFC031C238002F000F90D4BFB181B88002B03D00D4B1B78022BE0D0BD4687239B009D4490BDE4FDFFFF69
:4006C000EEFDFFFFAC0B0020BC0B002017020000FCFDFFFFF0FDFFFF12020000A42100209C21002080B582B000AF78607B689B89112B07D17B685A687B681B89101C191CEC
:4007000000F038FEBD4602B080BDC04680B500AF204B1B78022B1FD0032B00D038E0012000F0DCFC1C4B1B685A1E1B4B1A601A4B1B68002B0FD1184B184A1A60184B1B7834
:4007400001225340DAB2164B1A70154B1B78181C00F08AFF1CE01BE0012000F085FF114B1B685A1E0F4B1A600E4B1B68002B0ED10C4B0D4A1A600A4B1B7801225340DAB2BD
:40078000074B1A70064B1B78181C00F0A7FCC046BD4680BD9C210020C00B002030750000C40B0020C80B002050C3000080B500AF01F0F6FF031C1B680C2B00D1FEE7FEE7CC
:4007C00080B586B000AF224B7B61224B3B61204B7B6135E03B691B68FB603B695B68BB603B699B683B6000237B600CE0FB681A68BB681A60BB680433BB60FB680433FB6015
:400800007B6804337B607A683B689A42EED13B69DB683B6000237B6008E0BB6800221A60BB680433BB607B6804337B607A683B689A42F2D13B6910333B617B69013B7B616F
:400840007B69002BC6D101F0B1FFFFF727FDFEE701000000FC40010080B582B000AF154B144A126801218A431A6000237B600FE07B68032B04D8104B7A689200D35800E089
:400880000E4B0F4A796889008B507B6801337B607B682F2BECD9FFF73DFC0A4B00221A60044B044A126801210A431A60BD4602B080BDC0460000104000000000AD07000031
:4008C00000000020C000002080B582B000AF786039607A683B68101C00211A1C01F0A4FFBD4602B080BDC04680B500AF054B03221A60054B03221A60044B00221A60BD462D
:4009000080BDC0463000304030003140000E3F4080B500AF064B00221A70064B00221A70054B00221A7000F009F8BD4680BDC046A7210020A0210020A621002080B500AF01
:4009400000F0C8FBBD4680BDB0B594B004AF78603E23FB1800221A802823FA183E4B111C1A1C1423081C111C1A1C01F054FF3B4B1B78002B04D1FFF7CBFF384B01221A70CC
:400980007B68002B5CD0364B7A681A603E23FB181B88002B29D11023FB181C22BA185A601023FB182022BA181A601023FB1800221A812023FB181B221A802023FB181B223D
:4009C0005A802023FB1804221A711C23FB1808221A703E23FC181023FA180E23FB18101C191C02F039F8031C23803E23FB181B88002B29D13E23FC181A481B49AE231A0169
:400A00002823FD180523009300230193002302932B1C01F077FF031C23803E23FB181B88002B11D1114B01221A703E23FC18104B181C112114220EF00FF9031C238003E078
:400A40003E23FB1801221A803E23FB181B88181CBD4610B0B0BDC046303D01009810002094210020A50D0000C80000209C2100207C3D010090B585B000AF021CFB1D1A709F
:400A8000FB1D1B78022B04D90E23FB1801221A804BE0294B1B78042B42D1284B1B78DBB21A1C042313403BD1FB1D1B78002B0BD1234B0A221A82224B5B6820221A80204B5E
:400AC0005B6830225A8010E0FB1D1B78012B0CD11B4B96221A821A4B5B68C822D2001A80174B5B688022D2015A80164BFA1D12781A700E23FC18124B181C0CF0D1F8031C71
:400B000023800E23FB181B88002B08D10B4B1B78DBB204221343DAB2084B1A7005E004E00E23FB180422FF321A800E23FB181B88181CBD4605B090BD9C210020A7210020E9
:400B40001C0C0020A621002080B584B000AF78600A1CFB1C1A700023BB60BB68002B20D07B689A79BB681A700F23FB1800221A7012E00F23FB181B780133BA68D3180F2243
:400B8000BA18127879688A5C1A700F23FB181A780F23FB1801321A700F23FB181B78052BE7D9BD4604B080BD80B582B000AF78607B681B789AB27B6801331B789BB21B022F
:400BC0009BB213439BB2181CBD4602B080BDC04690B585B000AF78600F23FB1800221A707B689B890B22934237D17B681A1D7B680F217C18101C00211A1C40230EF07AF8BF
:400C0000031C23700F23FB181B78002B1DD17B685B68181CFFF7C8FF031C1A1C022313409BB2002B08D0104B1B68822251007A68081C111C984708E00B4B1B680622FF325E
:400C4000111C7A68081C111C9847084B1B78DBB201229343DAB2054B1A700F23FB181B78181CBD4605B090BD94210020A721002090B585B000AF78600F23FC187B68181C37
:400C8000FFF7A6FF031C2370144B1B78DBB21A1C012313401FD10F23FB181B78002B16D00823FB1812229A707B689A890823FB181A800823FB180F22BA181278DA707B6890
:400CC0000822BA181868111C0DF036F903E07B6818680DF0C5F9BD4605B090BDA721002080B582B000AF7860BD4602B080BDC04680B500AF034B00225A70024B00221A7034
:400D0000BD4680BDA421002080B582B000AF7860BD4602B080BDC04680B500AFBD4680BD80B584B000AF78600E23FB1800221A707B689B79002B1CD10F23FB1800221A70A4
:400D400012E00F23FB181B787A68D35C002B04D00E23FB1801221A700BE00F23FB181A780F23FB1801321A700F23FB181B78052BE7D90E23FB181B78181CBD4604B080BD1D
:400D800080B582B000AF021CBB1D1A80BD4602B080BDC04680B582B000AF7860BD4602B080BDC04680B588B000AF021C3960FB1D1A70BC4B1B78DBB201221343DAB2B94B0A
:400DC0001A70FB1D1B78712B00D94FE19A00B64BD3181B689F461423FB1807221A701423FB1800225A701423FB18181C03F038FD1423FB1807221A701423FB1801225A701E
:400E00001423FB18181C03F02BFD0023002B01D001F03EFDA54B1B68181CFFF781FF031E11D0A24B1B68181C01F03EFD9F4B1B68181C0021FFF788FE9C4B1B68181C0121E1
:400E4000FFF782FE0DE09A4B181C01F02DFD984B181C0021FFF778FE954B181C0121FFF773FE03200BF0B0FD1023FB183F221A701023FB1800225A701023FB18181C0BF0F7
:400E8000C1FD8C4B04221A70F1E03B68181CFFF73BFFECE03B681A78874B1A70E7E03B68BB61BB691B78002B18D1BB695B78002B0BD1824B0022DA80804B00229A807F4B4F
:400EC0007F4A1A60BB697D4A5A60764B1B78DBB201229343DAB2734B1A70C8E0C7E0714B1B78DBB21A1C2023134027D1754B1B78102B02D1734B0522DA70734B1A78714BD1
:400F0000101C191C0BF08AFE031C1A1C0E23FB181A800E23FB181B88002B06D06B4B1B680E22BA183620111C98475E4B1B78DBB201221343DAB25B4B1A7098E097E03B6885
:400F4000181CFFF727FF92E03B68181CFFF722FF584B02221A708AE0564B04221A7086E0544B1B78022B40D04E4B1B78DBB21A1C0123134039D04B4B1B78DBB21A1C04235E
:400F800013400BD04B4B03221A70464B1B78DBB204229343DAB2434B1A7026E0414B1B78DBB21A1C082313400BD0424B04221A703C4B1B78DBB208229343DAB2394B1A70AE
:400FC00013E03C4B1B78032B0FD13A4B04221A703F4B1B78002B08D10120FFF74BFD031E03D1344B03221A7041E040E03B681B88181CFFF7C5FE3AE0334A3B68111C1A1CED
:401000000223081C111C1A1C01F005FC2A4B00221A70FFF781FE2AE0FFF76AFE27E03B685B88162B05D81E23FB183A6852881A8003E01E23FB1817221A803B681E22BA1840
:4010400011881A8800231204120C1B0C1B041343181C0CF07BFF0AE03B68181CFFF708FE05E03B68181CFFF73BFE00E0C0460D4B1B78DBB21A1C112313400FD0094B1B780F
:40108000DBB201229343DAB2064B1A700F4B1B68FA1D11783A68081C111C9847BD4608B080BDC046A7210020DC3E0100380C0020300C00209C210020A02100209C100020A9
:4010C000A80B0020D40C0020A421002094210020A621002080B500AFBD4680BD80B584B000AF021CFB1D1A700E4B1B68DAB20F23FB1820218A431A70FB1D1B785B01DBB2A7
:4011000020221340D9B20F23FB180F22BA1812780A431A70034B0F22BA1812781A60BD4604B080BD0000044080B500AF00F092F9BD4680BD80B500AF064B064A126880211A
:4011400009060A431A6000F033F800F039F8BD4680BDC0460000244080B500AF064B1B78002B04D1FFF7E0FF034B01221A70FFF7E1FFBD4680BDC046A410002080B500AF47
:40118000092000F063FC00F021F8074B064A1268520052081A60054B00221A60092000F069FCBD4680BDC04600002440880F244080B500AF092000F035FCBD4680BDC046E9
:4011C00080B500AF00F0CCF9BD4680BD80B500AF00F0E0F9BD4680BD80B582B000AF00237B600F4B1A680F4B1B689A4212D00D4B1B6801333B603B680B4A934201D1002332
:401200003B600A4A3B68D3181B78DBB27B60054B3A681A607B68181CBD4602B080BDC046B8310020B021002001080000B429002080B582B000AF0D4B1B683B600C4B1B6855
:401240003A689A4205D30A4B1B683A68D31A7B6007E0074B1B683A68D31A064A944663447B607B68181CBD4602B080BDB8310020B02100200108000080B500AF092000F0D6
:40128000E5FB0E4B1A680E4B1A600E4B00221A700D4B0D4A1268802149020A431A600A4B094A126809490A401A60094B094A1A60092000F0B7FBBD4680BDC046B021002064
:4012C000B8310020B531002004032440FFFFFEFFC00F2440ED0F000080B584B000AF78601D4B1A681D4B1B689A4209D11C4B1B681F221340082B03D01A4B7A681A6028E082
:40130000154B1B680133FB60FA6880231B019A4201D10023FB60C046104B1B68FA689A42FAD0114B02221A607B68D9B20F4AFB68D3180A1C1A70084BFA681A600C4B1B683A
:401340000222134005D10A4B094A126802210A431A60BD4604B080BDAC210020A82100200802244040022440800F2440B4210020880F244080B584B000AF786039600023A7
:40138000FB6009E07A68FB68D3181B78181CFFF7A3FFFB680133FB60FA683B689A42F1D3BD4604B080BDC04680B582B000AF0E4B1B683B600D4B1A683B689A4205D30B4BB5
:4013C0001A683B68D31A7B6008E0084B1A683B68D31A80221201944663447B607B68181CBD4602B080BDC046A8210020AC21002080B500AF092000F029FB0F4B1A680F4B66
:401400001A600F4B0E4A126802218A431A600D4B0C4A1268802149020A431A60094B094A126809490A401A60084B094A1A60092000F0F8FABD4680BDA8210020AC21002049
:40144000880F244004022440FFFFFEFF800F2440F307000080B500AF284B294A1A60294B00221A60284B01221A60284B284A1A60284B07221A60284B00221A60274B0122A2
:401480001A60274B224A1A60264B00221A60264B04221A60092000F0D9FA0920032100F06DFA224B0920191C00F042FA204B00221A60204B00221A601F4B00221A601F4B37
:4014C00000221A601E4B04221A601E4B00221A601C4B1B689AB21C4B1A801C4B00221A601B4B00221A601B4B00221A701A4B00221A601A4B00221A60BD4680BD000024404E
:401500000F00000240002440480024400003244007000080040324401003244044002440000224400402244050002440511F0000880E2440C80E2440480F2440080F244074
:40154000C80F2440880F2440A6100020B8310020B0210020B5310020AC210020A821002080B500AF074B074A126807490A40902109040A431A60054B054A12881A60BD46B3
:4015800080BDC04600010240FFFF0FFF880F2440A610002080B500AF084B084A126808490A401A60074B1B689AB2E423DB0013409AB2054B1A80BD4680BDC046000102409B
:4015C000FFFF0FFF880F2440A610002080B582B000AF092000F03AFAFFF72AFE031E07D0092000F01FFAFFF7F7FD031C7B6008E00E4B1B687B600E4B04221A60092000F0CE
:4016000011FA0B4B1A68D8239B0013403B60084BD82292001A603B681B027A6813437B607B68181CBD4602B080BDC04640032440C00F244080B584B000AF78600023FB60C0
:4016400009E07A68FB68D3181B78181CFFF744FEFB680133FB607A68FB68D3181B78002BEFD1BD4604B080BD80B584B000AF021CFB1D1A700D4B1B68DAB20F23FB18012118
:401680008A431A70FB1D1B7801221340D9B20F23FB180F22BA1812780A431A70034B0F22BA1812781A60BD4604B080BD0001044090B585B000AF78600C23FC1800F041FC7F
:4016C000031C23707B68022B00D8B4E07B68302B00D9B0E05E4B1B78DBB21A1E7B689A420AD35C4A0F23FB1812781A705A4A0E23FB1812781A703FE0584B1B78DBB21A1E63
:401700007B689A420AD3564A0F23FB1812781A70544A0E23FB1812781A702DE0524B1B78DBB21A1E7B689A420AD3504A0F23FB1812781A704E4A0E23FB1812781A701BE0A2
:401740004C4B1B78DBB21A1E7B689A420AD34A4A0F23FB1812781A70484A0E23FB1812781A7009E0464A0F23FB1812781A70454A0E23FB1812781A707B68DA1E0B23FB1832
:4017800041498A5C1A700B23FB181B782F2B0DD97B682A2B0AD93D4B19221A60052000F0C7FB0D23FB1819221A7007E0374B1B68DAB20D23FB183F210A401A700B23FA18B5
:4017C0000D23FB1812781B789A4208D22F4B7A68033A2D498A5C1A60052000F0A9FB7B68284A9A180A23FB1812781A70284B0A22BA1812781A60274B0F22BA1812781A6062
:40180000254B0E22BA1812781A60052000F074F90B23FA180D23FB1812781B789A4209D91A4B7A68033A18498A5C1A60052000F07FFB03E002E0002000F030F90C23FB183E
:401840001B78181C00F081FBBD4605B090BDC04640F3FF0F41F3FF0F42F3FF0F43F3FF0F44F3FF0F45F3FF0F46F3FF0F47F3FF0F48F3FF0F49F3FF0F4AF3FF0F4BF3FF0FDC
:401880004CF3FF0F4DF3FF0FA44001002CFF0B4028FF0B401CFF0B4020FF0B4080B584B000AF78600023FB60154B154A126801210A431A60134B144A1A60144B134A1268F4
:4018C000802109020A431A607B68002B12D01023FB600CE0012000F00FF900F019F8031E02D00023FB6005E07B68013B7B607B68002BEFD1FB68181CBD4604B080BDC04642
:4019000060F02E4078002E400220000010002E4080B582B000AF054B1B68012213407B607B68181CBD4602B080BDC0460C002E4080B584B000AF021C3960FB1D1A7080238C
:401940009B05FB60FB1D1B781F2B02D9002000F0A5F8FB1D1B7810339B00FA68D3181B68BB60FB1D1B7810339B00FA68D3183A681A60BB68181CBD4604B080BD90B587B0C2
:4019800000AF021CFB1D1A70BB1D0A1C1A70BB1D1B78032B02D9002000F080F8FB1D1B781F2B02D9002000F079F8FB1D1B7803221340DB0006337B611323FC1800F0C1FADB
:4019C000031C2370FB1D1B789B08DBB29B00144A944663441B68FB607B6903229A40131CDA43FB681340FB60BB1D1A787B699A40131CFA681343FB60FB1D1B789B08DBB27D
:401A00009B00074A94466344FA681A601323FB181B78181C00F099FABD4607B090BDC04600E400E080B582B000AF021CFB1D1A70054BFA1D12781F210A40012191400A1C8F
:401A40001A60BD4602B080BD00E100E080B582B000AF021CFB1D1A70054BFA1D12781F210A40012191400A1C1A60BD4602B080BD80E100E080B582B000AF021CFB1D1A704C
:401A8000054BFA1D12781F210A40012191400A1C1A60BD4602B080BD80E200E080B582B000AF021CFB1D1A7001BEBD4602B080BD80B582B000AF786009E00C4B1B68181C78
:401AC00000F036FA7B680A4A944663447B607A6880231B029A42F0D8064B1B687A685343181C00F025FABD4602B080BDE80C00200080FFFFE00C002080B582B000AF021C9A
:401B0000BB1D1A80BB1D1B88044A12785343181C00F00EFABD4602B080BDC046E40C002080B500AF0E4B0E4A126801218A431A600B4B0B4A126802218A431A60094B094A68
:401B4000126830218A4310210A431A60054B054A126807218A4301210A431A60BD4680BD00F02E4000FF2E4080B500AF0E4B0E4A126802218A431A600C4B0C4A126807210B
:401B80008A4302210A431A60084B084A126830218A4320210A431A60034B034A126801210A431A60BD4680BD00F02E4000FF2E4080B500AFFFF7B4FF044B044A12688021DB
:401BC00009060A431A60BD4680BDC04600F02E4080B584B000AF78600C4B1B6801221340FB607B68002B02D0012B03D005E0FFF797FF06E0FFF7B8FF03E00020FFF74EFFA7
:401C0000C046FB68181CBD4604B080BD00F02E4080B584B000AF021CFB1D1A700E4B1B68DAB20F23FB1804218A431A70FB1D1B789B00DBB204221340D9B20F23FB180F2267
:401C4000BA1812780A431A70034B0F22BA1812781A60BD4604B080BD0000044080B584B000AF021CFB1D1A700E4B1B68DAB20F23FB1802218A431A70FB1D1B78DB18DBB27A
:401C800002221340D9B20F23FB180F22BA1812780A431A70034B0F22BA1812781A60BD4604B080BD0000044080B584B000AF021CFB1D1A700E4B1B68DAB20F23FB1808213E
:401CC0008A431A70FB1D1B78DB00DBB208221340D9B20F23FB180F22BA1812780A431A70034B0F22BA1812781A60BD4604B080BD0000044080B584B000AF021CFB1D1A7064
:401D00000E4B1B68DAB20F23FB1810218A431A70FB1D1B781B01DBB210221340D9B20F23FB180F22BA1812780A431A70034B0F22BA1812781A60BD4604B080BD00000440D4
:401D400080B500AF00F066F8BD4680BD80B500AF064B064A1268802109060A431A6000F019F800F01BF8BD4680BDC0460000254080B500AF064B1B78002B04D1FFF7E0FF2F
:401D8000034B01221A70FFF7E1FFBD4680BDC046AC10002080B500AFBD4680BD80B500AF00F098F8BD4680BD80B582B000AF00237B60044B1B687B607B68181CBD4602B0DB
:401DC00080BDC0464003254080B582B000AF054B1B681F2213407B607B68181CBD4602B080BDC0460803254080B500AF074B074A1268802149020A431A60044B034A126857
:401E000003490A401A60BD4680BDC04604032540FFFFFEFF80B500AF1B4B1C4A1A601C4B00221A601B4B01221A601B4B1B4A1A601B4B07221A601B4B00221A601A4B0122DD
:401E40001A601A4B07221A60194B00221A60194B04221A60184B00221A60184B00221A60174B00221A60174B00221A60164B00221A60164B00221A60144B1B689AB2144B5B
:401E80001A80BD4680BDC046000025400B00000240002540480025400003254007000080040325401003254044002540000225400402254050002540880E2540C80E254045
:401EC000480F2540080F2540C80F2540880F2540AE10002080B500AF024B034A12881A60BD4680BD880F2540AE10002080B582B000AF00237B60FFF767FF031E03D0FFF78E
:401F000053FF031C7B60084B1A68D8239B00134005D000237B60044BD82292001A607B68181CBD4602B080BDC00F2540000000000230800803D00138FDD1C046C046C0468C
:401F40007047EFF3108072B6704780F31088704780B582B000AF344B1B68002B02D0324B1B689847314B1B680422134027D0304B1B6801337B607B682E4A934201D1002302
:401F80007B602D4B1B687A689A4205D12B4B1B682B4B20221A700AE0284B1B68D9B2294A7B68D3180A1C1A70214B7A681A60264B1B681F221340DAD1244B04221A60244BA7
:401FC0001B68022213402BD0224B1A68224B1B689A4215D0204B1B6801333B603A6880231B019A4201D100233B601C4B1C493A688A181278D2B21A60174B3A681A6006E0C6
:40200000184B184A126802218A431A6005E0164B1B681F221340082BD6D1144B02221A60BD4602B080BDC046A8100020CC0F2440B831002001080000B0210020400324400A
:40204000B5310020B429002008032440C00F24408C0F2440AC210020A821002040022440B4210020880F244008022440800F244080B582B000AF78600A1CBB1C1A80BB1C93
:402080001A887B681A60BD4602B080BD80B582B000AF78600A1CBB1C1A80BB1C1A887B681A60BD4602B080BD80B584B000AF494B1B78DBB21B02484A1278D2B21343FB60A8
:4020C000464B1B78DBB21B02454A1278D2B21343BB60BB68434A934207D1FB68072B04D1414BBB600423FB6009E0BA68D4231B019A4204D1FB68042B01D13B4BBB603B4BBA
:40210000BA681A603A4BFA681A603A4B1B78DBB21B02394A1278D2B21343FB60FA6880239B019A4202D0FB68002B01D1334BFB60334BFA681A60334B1B78DBB21B02324A85
:402140001278D2B21343FB60FB68304A934206D0FB682F4A934202D0FB68052B01D12D4BFB602D4BFA681A602C4B1B681B097B602B4B1B68AA2B29D17B68012B26D9214BCE
:402180001B78DBB20E2B21D1264B1B78DBB29BB21B0299B2244B1B78DBB29AB2BB1C0A431A80224BBA1C12881A60214B1B78DBB29BB21B0299B21F4B1B78DBB29AB23B1C30
:4021C0000A431A801C4B3A1C12881A60BD4604B080BDC04659F1FF0F58F1FF0F5FF1FF0F5EF1FF0F580B0000580D00006C002E4074002E405BF1FF0F5AF1FF0F022000006A
:4022000078002E405DF1FF0F5CF1FF0F0F0F000005050000050F000080002E40EC0F00F0E00F00F06DF2FF0F6CF2FF0F84002E406FF2FF0F6EF2FF0F94002E4080B582B0FC
:4022400000AF021CBB1D1A80BB1D1B88181CFFF753FCBD4602B080BD80B582B000AF78607B68181CFFF724FCBD4602B080BDC04680B500AF00F0DEF8BD4680BD80B500AF58
:4022800000F0E2F8BD4680BD80B500AF00F0DCF8044B181C00F09CF8032000F0A5F8BD4680BDC0469124000080B500AF024B181C00F07CF8BD4680BD9124000080B500AF18
:4022C000014B181CBD4680BD0202000080B582B000AF78602B23181CBD4602B080BDC04680B582B000AF78602B23181CBD4602B080BDC04680B582B000AF78602B23181CDA
:40230000BD4602B080BDC04680B582B000AF78602B23181CBD4602B080BDC04680B582B000AF78602B23181CBD4602B080BDC04680B582B000AF78602B23181CBD4602B0B0
:4023400080BDC04680B582B000AF78602B23181CBD4602B080BDC04680B582B000AF78602B23181CBD4602B080BDC04680B500AF2B23181CBD4680BD80B582B000AF021C70
:40238000FB1D1A702B23181CBD4602B080BDC04680B582B000AF786039602B23181CBD4602B080BD80B500AFBD4680BD80B582B000AF786000F048F87B68181C00F008F8BD
:4023C000032000F011F800F035F8BD4602B080BD80B582B000AF7860024B7A681A67BD4602B080BD0000002090B585B000AF021CFB1D1A700623FB600B23FC18FFF7A1FDBF
:40240000031C23700A4B0A4A1268C0218A43111CFA1D1078FA689040021C0A431A600B23FB181B78181CFFF790FDBD4605B090BD0CE400E080B500AF024B802252011A6036
:40244000BD4680BD00E100E080B500AF024B802252011A60BD4680BD80E100E090B583B000AFFC1DFFF76DFD031C2370074B074A126804218A431A6030BFFB1D1B78181C91
:40248000FFF763FDBD4603B090BDC04610ED00E080B500AF11F056FBBD4680BD002243088B4274D303098B425FD3030A8B4244D3030B8B4228D3030C8B420DD3FF2209022F
:4024C00012BA030C8B4202D31212090265D0030B8B4219D300E0090AC30B8B4201D3CB03C01A5241830B8B4201D38B03C01A5241430B8B4201D34B03C01A5241030B8B42E8
:4025000001D30B03C01A5241C30A8B4201D3CB02C01A5241830A8B4201D38B02C01A5241430A8B4201D34B02C01A5241030A8B4201D30B02C01A5241CDD2C3098B4201D3A0
:40254000CB01C01A524183098B4201D38B01C01A524143098B4201D34B01C01A524103098B4201D30B01C01A5241C3088B4201D3CB00C01A524183088B4201D38B00C01AFB
:40258000524143088B4201D34B00C01A5241411A00D20146524110467047FFE701B5002000F0FCF802BDC0460029F7D003B5FFF775FF0EBC4243891A1847C04603460B436B
:4025C0007FD4002243088B4274D303098B425FD3030A8B4244D3030B8B4228D3030C8B420DD3FF22090212BA030C8B4202D31212090265D0030B8B4219D300E0090AC30BE4
:402600008B4201D3CB03C01A5241830B8B4201D38B03C01A5241430B8B4201D34B03C01A5241030B8B4201D30B03C01A5241C30A8B4201D3CB02C01A5241830A8B4201D3EA
:402640008B02C01A5241430A8B4201D34B02C01A5241030A8B4201D30B02C01A5241CDD2C3098B4201D3CB01C01A524183098B4201D38B01C01A524143098B4201D34B01EC
:40268000C01A524103098B4201D30B01C01A5241C3088B4201D3CB00C01A524183088B4201D38B00C01A524143088B4201D34B00C01A5241411A00D2014652411046704707
:4026C0005DE0CA0F00D04942031000D34042534000229C4603098B422DD3030A8B4212D3FC22890112BA030A8B420CD3890192118B4208D3890192118B4204D389013AD06B
:40270000921100E08909C3098B4201D3CB01C01A524183098B4201D38B01C01A524143098B4201D34B01C01A524103098B4201D30B01C01A5241C3088B4201D3CB00C01ADB
:40274000524183088B4201D38B00C01A5241D9D243088B4201D34B00C01A5241411A00D20146634652415B10104601D34042002B00D54942704763465B1000D3404201B52B
:40278000002000F00BF802BD0029F8D003B5FFF715FF0EBC4243891A1847C0467047C046014B18687047C046741000200E4B70B500251E1C0D4CE41AA410A54204D0AB0005
:4027C000F35898470135F8E711F086FC084B00251E1C084CE41AA410A54204D0AB00F35898470135F8E770BDE4400100E4400100E4400100EC40010030B50024944208D03A
:40280000035D651C0C5DA34201D0181B02E02C1CF4E7002030BD002310B5934203D0CC5CC4540133F9E710BD031C8218934202D019700133FAE77047134A1088810703D09D
:402840008107890F401A001D11791030484381B25088820703D08207920F801A001D800040180A494030098980B2CA0701D0503080B2890706D504495422091F0978514306
:40288000081880B270470000F60C0020BC10002010B501F005FF10BD10B501F007FF10BD10B500F055FA10BD10B50749044609780220002907D1204601F048FF002802D184
:4028C00020460AF091F910BD940E002070B504460120002C12D02368002B0FD0616800290CD0074D06222889208118462968FFF792FF6968606809780170002070BD000042
:40290000BC100020FFB585B0002768460E9D07734F481C460078002802D0082009B0F0BD10990F9801900095029105A807C800F001F90028F2D16946264603AB8446087367
:40294000002C19D0002115E08A00B75A082F09D990198078002805D0083FB7521878401C187005E0002914D00027B75290198770491CC9B2A942E7D360460028CED10F98BB
:40298000002809D0109901F03BFA002804D00120C4E701208446EFE701F088FE2D480021416081600599016021888180022D07D3A1798171A17AC171A1890181218A41810B
:4029C00000211EE0481C19E082008B00A75AE65ABE46BE4211D26F463E80B4461E190296B678BE7001967646E6521719029EBB78B3706646A652019EBE70401CA842E3D370
:402A0000491CA942DED3134822460C3000906846037B0799069800F015F90028B8D168460B4C007B60700B480C3001F06FFE0028AED1084907480C3107F076F90028A7D126
:402A400007F090F90028A3D10121217066E70000F00C0020B0100020F8B5054633480E460078002802D002242046F8BD002E5BD000242F49002D16D02A89D0070DD02868C5
:402A8000002808D003881B3BE12B04D24088FB2801D81B2801D2012409E0900707D56868002804D1F7E70020088108604860002CDAD11F482F8907811C481B21801D018058
:402AC00041800421017119490020891C0870F80705D016480622801D2968FFF79CFE1449B80703D56A681148127882700F480D46801D0860001F486001F04EFE0B48801D89
:402B000001F03CFE28890DF0E9F928890DF050FB03461033FFF790FE1F21C018890140180249308088809FE701249DE7F00C0020BC100020FFB58446384F1C460020BB88D3
:402B40003F78054602460646002F11D100290ED0029999420BD36146002908D0002C06D00A99002906D02E4B0B99994202D2012004B0F0BD002144E0AB001F19BF78002F2B
:402B80003BD0E35A002B38D07B43591889B22B0000F04AF8050410161C253100A7782388BC46FF27233BEB37BB4222D26346032B1FD322E0A388002B1FD0302B19D31CE07C
:402BC0002389002B19D0282B13D316E0A289002A13D01346134F233BBB420AD20DE0268A002A0AD033460F4F233BBB4201D2964203D901200EE0002001E000280AD16D1CC6
:402C0000EDB2099B9D42B7D31C2463435B1802998B42ACD89642AAD8AAE70000F00C002079020000BAFF000030B47446641E2578641CAB4200D21D46635D5B00E31830BC07
:402C400018470000FFB583B0002469460C801F4606468C80002806D00598002803D004983043800701D0012466E0002FFBD03449049809888842F6D3FFF716FBFFF7FEFA5E
:402C800000F012FC002855D100F07AFD002851D12C49084601F0E8F805042D0C4AD12A480499066081800021C18007810C98007AC00704D0684601F012FD040007D10C98DF
:402CC000007A800703D501A801F012FD0446BF1DFEB2002C20D13146059800F05DF804001AD10DF073FA040016D16A461088928808368518144AF1B29088D288AEB2931906
:402D0000984207D3401B801A80B201F09DFB050007D000E0FF25012400F05EFA002D04D008E0F8B200F01CF9F6E700F081FA07490120087000F0CAFB204607B0F0BD00009A
:402D4000F40C0020852E0000C8100020FC0C002010B503480078012801D101F017FA10BDFC0C002070B5084B0446DA889E8800205518B54206D81D68AA182260DA885118A6
:402D8000D98070BD032070BDC81000200148008970470000C8100020F0B587B007460D4600208900009006916846FFF7DBFF844600285DD1304800990160002117E02E4BD7
:402DC00088001A680629115406D22C4C0419667882185670628805E0C419203CA67A8218567022891B68C018491C4280C9B2A942E5D300242DE0601CC2B2059025E01E4F8F
:402E0000A30039689600581840887118039604904E88B04217D938466F46FE80B6464F786E4677710297049F4F800168039F5E18767879184E700168764659184E8000686D
:402E4000029F18184770521CD2B2AA42D7D30598C4B2AC42CFD36046002809D168460699FFF780FF8446002802D1054900980860604607B0F0BD0000000D00201041010099
:402E8000040D00207047000010B5002809D005494A68002A05D0011F08788000105801F081FA10BD000D002010B50446FFF76EFFC0B2801DA0420CD307484068002808D03E
:402EC000A100405801F0E0F9002801D00470001D10BD002010BD0000000D0020F8B516460D460446FFF752FFC0B2801DA04203D20020C0430090F8BDB2B2E9B2684601F0A5
:402F0000E9F90099481C03D0024AA000526811500098F8BD000D0020F8B50746FFF736FF801DC6B20A49002005460C680DE06178002907D06188B94202D32078FFF7B4FF32
:402F4000002804D1241D6D1CEDB2B542EFD3F8BD000D002010B5002801D0FFF795FF10BD70B506460948002504680BE06178002905D062882078121D0023FFF7AFFF241D6D
:402F80006D1CEDB2B542F1D370BD0000000D0020FFB581B00A9F16000C4620D000F0F2F8054604281BD0002F0CD03846FFF7B4FF20492A0151184860002810D03A460499B6
:402FC000FFF729FC1B4928010E504618778101980570200406D47D20C000444304E0FF2005B0F0BD6404640C00F0BAF80746042807D000F04FFAA0420BD800F04BFA201AE9
:4030000003E0204600F0AAFA0020F06035720020E6E700F03FFA009000F0B6FA00980121001B009000F0ECF802493A0151180098C860E6E7D4100020F8B50601164834183F
:40304000217A042903D0E068002802D017E00020F8BD00F01FFA054600F096FA00F0A0F804280CD001010C480F18F8680021451900F0C6F80020F860284600F06FFA606832
:40308000054D002801D0FFF765FF042020720020A8516081E060DAE7D4100020FEB500266A46304601232549050169180D7A042D02D0C96800291BD000211154401CC0B27B
:4030C0000428F0D300246846005D002830D01B48210108184189476805680291002101604160042241810272C160002E02D015E01354E3E700F054F804280ED001010F4807
:4031000008180190C6680021304600F079F801980021C160304600F021FA0126002D07D038460299A847002F02D03846FFF712FF641CE4B2042CC6D3FEBD0000D410002005
:403140000EB5002005216A460090118150810348694600680DF09FFE0EBD0000080D0020074A0020010189180B7A042B02D0C968002903D0401CC0B20428F3D37047000069
:40318000D41000200549002002015218127A042A03D0401CC0B20428F6D37047D410002030B50A4B04200A4C00210A011219157A042D06D0D268002A03D09A4201D808464A
:4031C0001346491CC9B20429EFD330BDFFFF0000D41000207047000030B50020074C05460423020111190B72A5504D60401C4D81C0B2CD600428F4D330BD0000D41000203E
:4032000030B5094C00231A011219157A042D04D0D568002906D02D18D5605B1CDBB2042BF1D330BD2D1AF7E7D4100020002070471CB5002469460C70142001902346054A20
:4032400005480DF02DFE04480068401C00D1FF2420461CBDAD320000080D00203EB5124A0146FF2000230124126800290DD0012914D0042908D104206946009308814B8136
:4032800010460DF008FE80B23EBD6846009304814381694610460DF0F9FDF4E768460093048143816946EBE7080D002070B545890468416800890300FFF7B6FC0828050971
:4032C000091E22282628002005F0F0FB1EE0022908D0C8B22A4621460BF06CFF2046FFF739FE13E002202A4621460BF063FF2946204600F00DF809E000200DF0CBFA05E001
:403300002046FFF7CBFE01E0FFF74CF8002070BD014B0022DB6818470C0D002070B5448905680089022803D0032809D0FF2070BD2246094C0023A46829460120A04708E037
:40334000FFF7AAFA241DA2B200232946022006F09EFB002070BD00000C0D0020704700000248002141600180418070470C0D002070B50C46002186B016460391012802D0A7
:40338000022859D116E003A9012006F0D5FB01281BD1039D324621462846FFF73CFA0095287801900220694608814E816846FFF7B5FF41E0214D002B686809D0049004A917
:4033C000022006F0B9FB01281DD0022006B070BD002812D0298840182146FFF71CFA28880024801980B228806988091D884206D12C801348FFF792FF03E00320E6E7884236
:403400001AD96C6018E004986860E278A378110219430B4A698000231060E3565360032313815181A1788170E178C1706178417021780170042028800020C7E70C0D002049
:40344000141100203EB515460C46022803D004280CD000203EBD0091019002206946088107484A8100680DF016FD07E00BF0A2FE044B0022DB6829462046984701203EBD33
:40348000080D00200C0D0020014AD160906070470C0D0020034801688068081A0A214843000970472011002010B5FEF7EDFE482204490548FFF7AFF903490120C8700020B1
:4034C00010BD00002C4101002415002010B5FEF7CFFE10BD70B5134C2368002B08D0207B1149C20705D04008400020738868A08070BD88680B4AA18880B29268814203D9AE
:403500000A4D691A091802E0814202D2411A5118A160A080A0689842EAD30DF0D9FC00F013F870BD20110020C0102E40FFFF000010B508461946FFF7A7FF10BD704710B5B5
:40354000FFF780FF10BD000003480021016041608160C1607047000020110020024610B5FF20002A0CD0FFF7EFFF064C0321207B0843207310010A21FFF716F820600020AC
:4035800010BD00002011002000B504480A21806848430209FFF7D8FF104600BD201100200248007B8007C00F704700002011002010B54B490868002802DA4A4B01221A70E0
:4035C000022290430860484800694549C00B4031096A0246C907C90F0A4259D0012000F097FA3F480E216C30FEF750FD3E4820218430FEF74BFD3C4814219C30FEF746FD26
:403600003948FF21C131A430FEF740FD3648FF212F31B030FEF73AFD33483449BC30FEF735FD31483249AC30FEF730FD30492E48491CB430FEF72AFD2B482E49B830FEF7CF
:4036400025FD29482C49CC30FEF720FD26482B490830FEF71BFD24482949A830FEF716FD214828498830FEF711FD1F4826498C30FEF70CFD1C481921C9029030FEF706FD09
:40368000FEF712FDFEF71AFEC0B2022812D01FE000290BD0002101420AD0114801216030FEF7F4FC0120FEF7D7FD97E70121F2E7FF2010BD15491648FEF7E8FC14481549AC
:4036C000001DFEF7E3FC124800210830FEF7DEFC54200449C043891C0870002010BD000000F02E401C0D002000002E40320300002F3F00003102000010520000EC1600003A
:40370000FA12000031D000003AE300009956000080012E40F80F000070B50646581C80B245086D00002408E0304600F0C1F81055000A1119A41C4870A4B2AC42F4D3D80783
:4037400005D0D0182038D15CC47FD454C17770BD30B50A4C002100195B1E07E0541864782502545C2C430480891C89B29942F5DB994201D1515C018030BD000000102E407F
:4037800010B5FF2000F0C4F90F49FF2048700E481021801D41800121417001700A490020C91C4870FFF704FF04000AD100F010F907210648FEF75CFC044807211830FEF7CB
:4037C00057FC204610BD00001C0D0020CC112E4070B5002405465B1E0AE0284600F068F8010A161971702D1D1055A41CADB2A4B29C42F2DB9C4203D1284600F059F810554A
:4038000070BD000070B500210A4D5B1E0AE0541864782602545C344346193480001D891C80B289B29942F2DB994202D1515C4019018070BD00102E40F0B50599091FCFB20E
:4038400000217E1E0BE0541864782502545C2C43164D45192C80001D891C80B289B2B142F1DBFC0712D01C78515C24020F4A0C4381180C809C785D78001D210280B22943D7
:4038800084182180001D80B2D9780CE059781A7809021143054A84182180001DD9789B78090280B2194380180180F0BD00102E40014940180088704700102E4010B50B491B
:4038C0000020487000F084F8002000F047F9002000F034F907210648FEF7CAFB044807211830FEF7C5FB002010BD00001F0D0020CC112E4010B50B46062812D006DC0128A1
:403900000CD0032801D1FFF7D9FF10BD0A28FCD00B28FAD105480078107010BDFFF730FF10BD1146184600F035F910BD220D0020F8B5244DAC6A0127A007234E002816DA98
:40394000307806280ED1286A384328621F480069F903084381B21D481030FEF797FB042000F0D6F8174802212830FEF781FBE00718D000F01DFF01280FD1002000F06AFFFB
:40398000062000F0C5F81049FF20C91E48707078002802D1686B384368630A4801212830FEF766FBE0050BD53078042802D1052000F0AEF80348FF2101312830FEF758FB9B
:4039C000F8BD000040F02E401F0D002000002E4010B503212348FEF759FB0120FEF72EFC20483038406A204C80076178800F890001431C480C38FEF749FB6078002808D082
:403A0000401E022181401820FEF7BEFEC000083800E0B82081B21548FEF738FB1348032109021438FEF732FB10481149B830FEF72DFB612189010F48FEF728FB0D48032148
:403A4000001FFEF723FB0C490C48FEF71FFB0B480B496038FEF71AFB084801218838FEF715FB10BD70F02E40220D0020D8102E4090890000041E2E40FF0F000058122E400D
:403A8000209000000849087806280BD148780749002803D1486B400840004863C86A01221043C862704700001F0D002040F02E4001480078704700001F0D002000B503009A
:403AC000FFF7B2F8080D050D0B070507090D012000BD032000BD042000BD022000BDFF2000BD0000074A9168D26889B2064B92B2994204D105498A4201D1012100E000215E
:403B00000170704780002E4033D000003FE3000010B50446FEF7B2FB072C01D9FF2C01D102480470FEF7A4FB10BD00001F0D002001494870704700001C0D002010B5064A0D
:403B4000012805D01921C9021046FEF79FFA10BD1D21C902F8E7000090002E4010B50A4A141D012808D009491046FEF78FFA08492046FEF78BFA10BD04491046891CFEF7FF
:403B800085FA0349491DF3E788002E4031D000003AE3000070B50C460546FEF78FFBC0B202280E49287804D0FF2810D04C280CD810E0FF2809D10A4AD0680004800F0328A4
:403BC00001D0087807E09069000A553803E00878207070BD4F382070087070BD1E0D002000002E40F0B50122002834D0002932D00424420600D00524792342065B06D218B1
:403C000000D0641C034600221EE00C2516466E43124D00277519AF72104F002ABB51696007D0661EB24209D10D4E86197606760E05E05E06760E8027BE1B00E080269B1950
:403C40008919521C2E81D2B2A242DED303480549006B002288611046F0BD0000AC13002079020000280D002018B50020694608700A48006900280ED0132149014018047E7E
:403C8000684604704F21C900054800F059F8A04201D0012018BD002018BD0000280D002030110020074900200C2242435218927A012A05D0401CC0B20628F5D30020704793
:403CC00001207047AC130020F8B50E000446154609D0194F19497868A04202D94018A04201D38D4201D90120F8BD31462046FEF783FD00281ED02A4631462046FEF78BFDAE
:403D0000E8B200210C224A43D21913895568EE18A6420BD90126641B1B1B9672834209DA1469C01A044AC0B220329676491CC9B20629E7D30020F8BDAC13002079020000FE
:403D4000034610B50020024604E09C5C2018521CC0B292B28A42F8D310BD000070B500F05FF8084C064A216907480D46FEF753FD05492846FFF736FFFFF776FF207070BDA1
:403D800079020000280D002030110020002070470020054A002902D0012902D002E0906000E0D06000207047280D002070B5084C154608460549E26889182A46FEF72BFD9F
:403DC000E0684019E06028B270BD000030110020280D00203EB50A226946FFF7E7FF044606480A2200686946FEF706FD002802D00020C0433EBD20463EBD00002C0D0020D6
:403E0000002802D0044A914201D2FF20704703494A6108610020704779020000280D0020024800218160C16070470000280D002070B5074C15460548A26880182A46FFF716
:403E400043FFA0684019A06028B270BD30110020280D002010B503490A220968FFF7E8FF10BD00002C0D002010B50F4A002313600E4A13600E4B18600E4801600E490120B2
:403E800008600E490860000290600E490C4808600D4914300860FF381538506000F0BCF800F0CAF9002010BD5C0D0020440D0020700D0020740D0020600D0020500D00201A
:403EC000F4140020540D0020680D0020014610B50020002910D0094B1A689C685118A14209D25868196080188A0704D08A07920F891A091D196010BD002010BD440D002079
:403F0000F8B50024164E671E321F3D463168136806E01422624310328A58521C1BD0641C9C42F6D36A1C14D02C461422544322460C3288500C214843FFF7C8FF316800281D
:403F400008510AD031680020103408517068401C70602846F8BD2546E4E73846F8BD0000540D0020F3B50026F64381B000281BDB1E490968884217D80299002914D01B4FAE
:403F8000142204463F1D54432546396810354859401C09D0FEF772F938682F1F4159C359994203DBFEF764F93046FEBD214608310091465801590C20704308180C22029936
:403FC000FEF729FC0948761C001D0068C159B14200D100260549009A091D865008684159491C4151FEF744F90020FEBD500D0020002803DB07490968884202D90020C0433D
:40400000704704491422091D096850431030085870470000500D0020F0B500200D4A451E0346171F50600FE014260146714314680E1DA3510C461668083433511668083491
:4040400035511468401C635039688842ECD30020F0BD0000540D0020F3B50026F64381B0002841DB2349096888423DD8029900293AD0204F142204463F1D544325463968C3
:4040800010354859401C2FD0FEF7F8F83868415900292BD0211D009146580C21005971430F46C1190C220298FEF7B5FB11480021001D0068761C00590C34C0190160416034
:4040C00081600C48001D00680159B14200D100260849009A091D865008684159491E4151FEF7C6F80020FEBD3046FEBDFEF7C0F8FAE70000500D0020FEB504460D4600209E
:404100001E49089E0860471E009001900290002C11D0486885420ED2002A0CD0002E0AD0642E08D808460C3001681C2068430C18207A002801D03846FEBD0120226020720F
:404140001846FFF7DDFE6060401C13D06681A6810A4827610C3067610179A94200D205710021684601810A462846029B00F040F82846FEBD00202072DDE700005C0D00207C
:4041800038B50124009400F039F838BDFEB50027164EFF433D4600240EE01C20316860430818017A002906D04068FFF721FF002801D0254603E0641C3079A042EDDA681CC1
:4041C00012D01C2130684D434419FEF757F869466068FFF741FF0546FEF74AF8002DD9D1216868468847D5E7FEBD0000680D002038B50024009400F001F838BD1FB5002246
:404200000C49541E0A60002811DB496888420ED808491C220C31096850430818406801A9FFF7A0FE401C02D0002004B010BD2046FBE700005C0D0020F0B50021114A4D1ED6
:40424000174611710C3F0B46BD6016E008461C2460431668041D355114680646235014680836A3551468361DA353044616680A34335318301468491C255078688142E5D323
:404280000020F0BD680D002038B500210091002811DB0F49097888420DDA0D4D04010C3529680859002807D0201D0818694600F06FF9002801D0002038BDFDF7DFFF2868FA
:4042C0000F34015D491E0155FDF7D2FF009838BD780D0020F7B582B0002502986E1E06602E48D21C024017462D4A2C4610460C380178106805E02301C358002B0FD0641CB5
:40430000E4B28C42F7D3711C28D03401211D40180191039900F02AF900281FD101E02646F1E71F48016820460C300F521C480399026820460E30115419480399026820466E
:404340000F3011540398784300F0A0F8144900280968085102D00024009011E001251AE00F48016801980818009900F02CF9002801D0012502E00098C0190090641CE4B296
:4043800003988442ECD3002D05D10298066004480179491C0171284605B0F0BDFCFF0000840D0020F8B50D4600216A468C461180002839DB23490978884235DA214B04011A
:4043C0000C3319680A59002A2ED020460C300B5A801C0E5C184670438018954224D3854222D2002006E007465F43BF18AF4206D0401CC0B2B042F6D36046002814D0114E06
:40440000271DC8190C366A46294600F006F900280AD168460088012808D030682946C01900F0D1F8002803D00120F8BD0020F8BDFDF724FF30680F34015D491C0155FDF78F
:4044400017FFF3E7780D0020F8B50F46002400F031F8002817D10C4900220B460C334A600EE021011D680E466A501D680C36AA53B61C1D680F31AA551D68641C6A54E4B251
:40448000BC42EED31A71F8BD780D002000280BD0C01C074A81085068890053884118994203D89368516018187047002070470000780D0020F8B5064600200F4D00902970C7
:4044C0000C0121466846FEF74DFC00280CD129460C3100980860301B001F84B221466846FEF740FC002801D0FF20F8BD6C800098A8600020F8BD0000780D0020F8B500281D
:4045000027DB19490978884223DA174C05010C342168485900281CD028460C30085A009028460E300E5C401C0E5420682F1DC01900F064F800280CD12068002445590EE042
:40454000094829460C300068C01900F03CF8002801D00120F8BD00982D18641CE4B2B442EED30020F8BD0000780D002030B50D4604000BD0A800FFF789FF6060002805D0ED
:4045800000202570C0436080002030BD012030BD70B50D46040005D0002D03D00220205E002801DA012070BDFDF768FE0221615E60688900405828606088401E6080FDF73F
:4045C00057FE002070BD70B50D46040007D0002D05D002212078615E401E814201DB012070BDFDF74BFE6088401C00B26080616880000D50FDF73CFE002070BD10B5040002
:4046000009D0227800216068FEF70EF90020C0436080002010BD012010BDF0B500231D46002802D00224045F0AE00120F0BD46689F00F6598E4201D1012503E05B1CDBB293
:404640009C42F4DA15700020F0BD000001480078704700008C0D00207CB505460024FEF71BF9A8796946087000A8062229460130FEF7D1F80021684604F0DEFC0C2806D045
:40468000072806D01F2806D0122806D006E0022404E0042402E0272400E0012420467CBD01480121417270472C16002010B500F05FF9FFF7FDF9FFF701FA10BD70B5044682
:4046C0000025FEF7E9F8002C06D0A079012803D8214602F07BFC00E00125284670BD01460120002902D05020088000207047000001460120002905D00348542200785043CB
:4047000008800020704700008E0D002010B502460D49FE204870032410460CF0DFFE002810D10CF083FE00280CD105F061FA002808D100F013FB002804D104F023FF0028BB
:4047400000D10024204610BD8C0D002070B50025044600280ED0A07901280BD8FEF79CF8A0790028204602D002F0D6FF03E002F0ABFF00E00125284670BD0000014610B5A4
:404780000120002904D006220248FEF744F8002010BD0000980D002001460120002903D00878024908700020704700008E0D00200148007A704700002C16002038B504463A
:4047C0000120002C20D0617801291DD800290BD0FF25E535FEF760F80C4828180088C0B22070072803D00EE0FF25CD35F2E70020694608706846FFF775F969460878012837
:4048000001D108202070002038BD000000102E40014A0021926810478C0D002008B500226B461A7026280CD0094A342852680BD0352805D1900703D50021352005F0B4FAA2
:4048400008BD19462620F9E7D007F9D03420F5E78C0D002001490872704700002C160020F8B504460120002C26D06178012902D92278092A20D8002905D0FF25E5352078D7
:40488000092803D004E0FF25CD35F8E708202070FEF702F82078114F114E08280DD00020FFF75CF970780128207810D00D4969180880FE2070700020F8BD0120FFF74EF97C
:4048C0000720B8810549203188800120F2E7B8810248217820308180EBE70000C0112E408C0D002000102E4070B50E46050001D0002400E00C4C002C11D0E28A500609D5AA
:40490000D107C90F022002F09BFFE08A40218843E08204E0D107C90F012002F091FF3146284602F079FC70BD8C150020F8B50546002004460D4E009013E0224669462846EB
:4049400000F0D6FF0098002801D00CF0A9FDA878214602F099FAA878214602F087FA641CE4B2308AA042E8D8F8BD00005816002038B51E4CFFF79CF8042813D0052811D086
:40498000062812D003282AD007280AD100206946087002460120FEF7ADFFFFF789F80128FBD138BD00F077FB38BD02F0C3FA00F072FB02F03FFB8007800F0228F4D10C481E
:4049C00041880029F0D05B21095D0029ECD101210170A07D0140022002F032FF38BD02F0ADFA0120FFF794F838BD00008C150020B20D0020F8B50646002402F08FFF054659
:404A0000304602F0A5FF03460A480021068A0DE001228A401046174628401F40002803D0002F01D1224394B2491CC9B28E42EFD82046F8BD581600201CB5002069464870AB
:404A40006846FFF7BBFE01AA69460A20FEF752FF6946042008561CBD70B50D4601F028FB04000BD02079002808D0FDF715FFE178A0782A4602F056FC002070BD022070BD38
:404A80000148007870470000641500204030C07E002800D00120704700B500F001F800BD902148430749084A40186030417F491CC9B24177D289914201D300214177C8B299
:404AC000704700006C1500205816002013B501F0EFFA04000BD001F08CFE002807D0214601AA0A310620FEF705FF00201CBD02201CBD000010B50C4601F0DAFA00280AD097
:404B000001F077FE002806D0224604490A20FEF7F1FE002010BD022010BD00004D150020F3B581B0074601460026029802F0EEFE0446002F01D0002500E0154D002D21D016
:404B4000284601F0EBFA032C04D13946029802F039FF06463846029902F088F9032C06D0002C10D00121384601F0DEFB03E03146384603F025F9284602F06CF80221284619
:404B800002F082F8FEBD3846029902F06FF9FEBD8C15002010B5044600F066FA002804D103F0D8FD002801D00C2010BD2078611C02F0BAFCFF2801D01F2010BD02F000FD19
:404BC000FF280AD02178621C02F0DEF8044821780068026B601C904710BD072010BD0000D80D002010B503F0B5FD002801D00C2010BD02F07BFC03480068C06A8047002079
:404C000010BD0000D80D002070B50D46044610210CF086FB1021601806460CF081FB334610221946204603F0C3FD102130460CF077FB02202870204604F0DAFB70BD000077
:404C4000F8B504464078217802028006870FE0781143A67809050002090D0643084601F027FA00210546F2B2002812D0002C10D0022F0ED0032F0CD0002A0AD00279092A3E
:404C800007D0002A05D0134A5A23527E1B5C9A4207D82889002104F0E0FA20460CF000FCFF21002914D10C48224600682946436930469847C0B2FF280AD128464030817E31
:404CC000F2B2491C8176FF232146284600F0E3F8F8BD000024150020F40D00200020704710B5044603F036FD002801D00C2010BD2078611C02F018FCFF2808D002F050FB6E
:404D0000044821780068426B601C904710BD1F2010BD0000D80D002010B500F06BF904F031FC002010BD10B5044600786178E2780843A1781143084321790843617908435A
:404D400005D003F0F9FC002803D00C2010BD122010BD204602F0E0FC002010BD10B5FDF7ADFA02F0FDFD044803F060FD02F022FB012000F003F810BD34150020F1B586B04D
:404D800003A8009005A8019028489F22817A114081726846FDF79AFD002845D169460989C90705D0224806990068C2686846904769460989890706D5002835D11D480068E6
:404DC000816A0698884700282ED11B4E0025757075737571F575357675767575B570F570B5713746F5730120D03738731F20F880FF2130467972A0300176457600F0D0FAAD
:404E000000242046069901F09FFC002803D1641C2406240EF5D0FD720749BD72B573C0310D704D704D600D7207B0F0BD24150020F40D0020D80D00206C15002070B50546BF
:404E40000E46084602F06AFD0446304602F080FD0121A9400A46224001400A4301D0012070BD002070BD10B50446084602F070FD0121A140014201D0012010BD002010BDA3
:404E800010B5FEF715FE032804D102F057F80120FEF73EFE10BDFEB51C4616460F46054601F0D8FEA878FFF7F7FD02460190334639460094284600F00DF8002808D1A878FA
:404EC0000199FFF711FDFF2C02D138460CF0E8FAFEBD0000FFB585B005460E980C46FF2810D02B49C00009680A5840180179C0795278814201D9012601E09006860F684672
:404F0000038108E06078A1788006860FE0780002014368460181284601F076FC070007D021462846079A00F077FC384609B0F0BD304600F025FD04AE0346039002AA29468E
:404F40000096204600F0B1FB3C20405D002818D0284601F059FC012813D0684600890096C0B20190A878231DFF22079902F008F968460089039BC2B2A878079902F048FCAD
:404F8000D3E7684600890021C0B20091E9E70000F00D0020F8B5002600253046FFF72AFD07001DD090201149704340186030447F12E0601CFDF7F8FACCB23846E040C007D1
:404FC000C00F07D02146304601F048FF21463046FFF7A6FD6D1CEDB20548018AA942E8D8761C3606360ED7D0F8BD00006C1500205816002010B502F0DDF90020FFF7BEFED9
:405000000CF0E4FA002010BDF8B5002400F0B2F80123012800D10124104F00203E4620360425082203E0002801D0002100E031460979002907D001290BD002290BD0114617
:4050400081402143CCB2401C0006000EEBD07C70F8BD1C43F7E72C43F5E700006C15002010B5FFF7D1FF10BD10B5044604F0DCFB002802D1601C00F001F810BD1CB5002444
:405080000094062269460194FDF7B6FB002800D1122420461CBD10B5FCF753FF0446FEF707FD012809D0FEF703FD022805D0FDF7D5F92046FCF749FFEEE72046FCF745FFC5
:4050C00010BD10B50B4681791943817103D08078114602F06BFB10BD10B582798A43827102D1807802F076FB10BD000030B50C4C0220A28A0B4B9978002901D0022906D1D5
:405100001D785B78EB18282B01D9032002E0032900D101205105490DC0020143A18230BDC0112E40A80D002000B500F029F8002807D0012805D0032801D0042801D0002002
:4051400000BD012000BD014600B50020C90701D000F010F800BD014600B50020C90701D000F008F800BD00000148006870470000A00D002001480088000A704720102E4053
:405180000448008B410501D5042070474007800F7047000000102E4010B501F011FF044601F04EFF0146204601F032FF10BD00000148406870470000A00D002038B5044680
:4051C000000610D5FFF7DCFF01280CD1684601F0C5FE6846007800F023FB012001F0A2FD0220FFF73DFF600708D507480179012904D1002101712620FFF710FB03480068B9
:4052000001692046884738BDAC0D0020D80D002070B505460C49007800240870FFF7AAFF012803D1FFF7B8FF022803D3284602F0DFF907E0284600F0EBF8040002D1034858
:4052400001210170204670BDA80D00202C16002070B50446FFF78EFF002801D00C2070BDA27B01211F48002A827801D00A4301E05208520082706279012A14D0C1784908B2
:405280004900C170184D2868016820468847207901280CD06188208803F00EF82080207904280FD015E0C2780A43C270EAE72868C168E01D8847E01D02F01AFA0B48808C0F
:4052C000208006E02868C168E01D8847E01D02F00FFA074920798870204602F097F9002070BD00006C150020D80D002024150020A80D002008B50178FFF73CFF814201D1C5
:405300000C2008BD002914D0072069460870FFF70BFF012807D10121684600F0D9F8012801D0092008BDFFF7E1FE02F0A3F9012011E0FFF7F9FE012806D1684601F00EFE9A
:405340006846007800F0A0FA02F08AF9FFF712FF0028FBD10220FFF783FE002008BD000070B505460C49007800244870FFF702FF012803D1FFF710FF022803D3284602F01D
:40538000F5F907E0284600F05DF8040002D1034801214170204670BDA80D00202C16002038B568460CF012F8002801D01F2038BD01210098C90201804180002505714571C0
:4053C000857107214173857302F020F9009C202200212046FDF728FA25702A460021601CFDF722FA204602F003F9204602F0BEF900980CF055F8062200210448FDF714FAD0
:4054000002480C388560002038BD0000AC0D0020F8B504460025684600950BF0D7FF002801D007250AE0064E009830602278611C401CFDF7F0F93168207808702846F8BD34
:40544000A00D0020F8B504460025684600950BF0BDFF002801D007250AE0064E009870602278611C401CFDF7D6F97168207808702846F8BDA00D00200346084800B583425C
:4054800009D8184600F014FE002804D00089984201D1012000BD002000BD0000FF0E0000074A9179491C8906890E917138220A4092014907090E1143084302490840704743
:4054C0006C150020FF0E0000C006C00E70470000F8B507460E4600240D4803E0002C01D0002500E005462979002905D0641C2406240EF3D00020F8BD0021204601F024F913
:405500002E712046FFF7CCFF28813C700120F8BD8C15002010B503F07FF90222002100F003F801F0F3FE10BD10B5094B40074907000F090F185A595A40185043C008642176
:40554000FDF732F8002800D1012080B210BD000074410100F7B53D20405C88B015460C46002802D02878042802D200200BB0F0BD6946087200262046FFF788FA012800D06C
:405580000126204603A938300191009023460327A17E34333246206A03F062F902A8089900900B46019120463A4603A9243003F0DFF802466846007A2870204601F0B0F84A
:4055C0001046D3E7FFB587B00C4605461078694608723D20005D1746002826D000262046FFF754FA012800D00126204603A93830019100902346A17E34333246206A03F0BD
:405600002FF902A80090291D019120462B1D03A924300A9A03F0ACF802006846007A388002D1204601F07CF810460BB0F0BDF0B505463C20405C89B016460C4600280CD036
:40564000307869460873002806D000272046FFF71DFA012803D003E01F2009B0F0BD012703200890204604A93830019100902346E17E34333A46E06903F0F2F86846007BBE
:4056800003A928180290009120462B46019504A92430089A03F0A0F802466846007B3070204601F047F81046D7E7FFB505463C20405C89B016460C46002810D0084601F060
:4056C000A3F801280BD0308869468883002809D000272046FFF7DAF9012805D005E000200DB0F0BD0220FBE70127204603A93830019100902346E17E34333A46E06903F022
:40570000AFF8291D2B1D07A8129A6D4607C5204603A924300C9A03F05FF802466846808B3080204601F006F81046D9E770B50D460446FFF7ABF901280AD0E87AA97A000202
:405740000143A07801F0DEFC012808D0002070BD00222421204602F001FD242070BD28214C200155204600F0B1FB282070BD0000002801D0002000E003484030C07F0128E8
:4057800000D00020704700008C1500200146002049070ED50021084B03E0002901D0002200E01A461279022A04D0491C0906090EF3D07047012070478C15002001460020A4
:4057C00049070ED50021084B03E0002901D0002200E01A461279022A04D0491C0906090EF3D07047012070478C15002010B5044680346068002803D00BF066FE00206060D5
:4058000010BD4030417070474030817070474030017070470171704792001018C166704770B53C2501F096F9040004D020460021433001F01BFCFF222946204600F0E2FBAF
:40584000002C02D0A07801F007F970BD10B5002801D0002000E00348002802D0008903F043FD10BD8C15002010B5002801D0002000E00448002804D00179072901D100F035
:4058800047F810BD8C15002010B501F063F9002802D0807801F0E0F810BD00207047000070B50546008A00281ED01049F122897A1140C90618D5294640314A8A098A521C69
:4058C0004A4392B2D10800D10121540801E0621A94B2A042FBD9FEF7B9FE012804D1298AA878224601F0D4FC70BD00002415002010B50023054C0B60248A944204D9920093
:405900001018C26E0A60C36610BD00005816002038B5044600200090A079002814D14020015D052901D00E290ED168460BF05EFD002809D12046009902F0EEFB03481021E5
:40594000C28A2046FFF7BDFB38BD00002415002010B50B4604460146184602F067F8002802D020460BF0A6FD10BD13B5044601AA11460620FDF7BEFF6846818861811CBDFB
:40598000002800D10220704770470000F8B504462346401D543300909A1EA078911E01F0F9FA25464035A88A298A8000FCF7FCFD401E81B2688A884203D96982A07801F0D9
:4059C00079FF698A8C20015120460021433001F04DFB27480088E88102F01EFFE989891C8AB26179FFF7A0FD01F090FC02F014FF2A8A6179FFF798FD074601F07BFC688A9A
:405A0000002806D01B49088A032212021043088202E0002001F042FF1648803801886E8A002E0CD0304648431349FCF7ADFE0004000C01D0401C80B21049488002E00F48C3
:405A400000214180288A704381B2A07801F09CFEFF2228374932B9B21346204602F030FCE98AA07801F010FEA07801F01FFAF8BD80102E40E0112E4071020000B20D0020B6
:405A80007FB504468034616805460E46183108226846FCF7C0FE31462031082202A8FCF7BAFE102168460BF03BFC6068102108300BF036FC60682B4608302433102269461B
:405AC00002F076FE7FBD10B504460821FFF704FB10212046FFF700FB207905281FD006281DD008281AD12189002003F075FB072020712046FEF7CAFF014620464030012914
:405B000013D00E21017000210176204600F0B6FF2046FFF76BFE2046FFF7C2FE10BD20890122002103F03CFBE1E70521EAE70000FFB581B01F4604460821FFF7CDFA102110
:405B40002046FFF7C9FA2079082803D0092804D0042203E00422012501E009220025204600F03EFE264600204036307022712046FFF73CFE0398002D02D0012808D00BE0FC
:405B800001280AD120890022029903F009FB04E02189029803F020FB012700203076012F04D0204600F06AFF05B0F0BD02983073204602F0FFFA054605480121C28A204641
:405BC000FFF77FFA002DEFD109202071ECE700002415002070B50C460546FEF757FF012809D108212846FFF777FA0023012221462846FFF79DFF70BD10B5044600F0F0FD8F
:405C00002046FFF7F3FD00214034217010BD70B505461A24FEF73AFF012809D108212846FFF75AFA0023012221462846FFF780FF70BD0000F8B50446002000900E466846FF
:405C40000BF0D4FB002801D00D20F8BD8420005908212030009D00F026FA20460421383000F021FA002E02D1204600F0F5FD2946204602F0E0F90E480821C28A2046FFF74E
:405C800020FA204600F06BFF25464035002808D0204600F023F8002801D0092028700020F8BD08202870204600F0D4FFF7E7000024150020014610B540310A46097808298B
:405CC00006D0092907D00A2901D100F091F810BD0B20107010BD00F001F810BD70B50446007925464035052805D0062803D008280FD00C2070BD03220621204602F02EFA4D
:405D00000D480821C28A2046FFF7DBF91120287010E006202873204602F04CFA0646AA8A0A20424301212046FFF7CBF9002E01D109202071002070BD2415002038B5044649
:405D40000020009068460BF051FB002801D00D2038BD2046009D00F0BDF908202071204600F07AFD2946204602F098F900213D2001550F2040210855204600F06BFF00203B
:405D800038BD00B5024600F02BFD10214032117000BD10B50446FEF779FE012809D04020005D112805D100231A4606212046FFF7BFFE10BD10B5FFF786FE10BD38B50446DC
:405DC0000021684600910BF011FB00280CD12046009902F0E4F905480821C28A2046FFF770F90D204034207038BD00002415002038B504460021684600910BF0F7FA0028B8
:405E000001D00D2038BD2046009902F0BDF905480821C28A2046FFF754F90C2040342070002038BD2415002000787047F8B5002569460D70002801D0002400E01F4C002CFE
:405E400018D0204600F0D5FC002813D0207903280BD005280CD026464036B18AA07801F09DFCB078012806D01DE0042020711DE006202071F8BD0021204601F0F4FD274689
:405E800080373868002802D00BF01EFB3D600020B0702079072802D12046FFF701FD0221204600F0F1FE20790428E3D1207A694608703420FEF7B2FCF8BD00008C1500209C
:405EC00010B54C22115400F04CF810BD10B50446FF21FFF701F909202071A07801F084FC10BD000038B5FF216A461180002801D0002400E0084C002C0DD011460620FDF7C1
:405F0000F9FC684601882046FFF72FFD03480068C1692046884738BD8C150020F40D002010B504468079002809D022214C200155FF212046FFF7D0F8204600F012F810BD45
:405F400010B5037902464032002B03D01173092B02D003E0002100E02221117300F001F810BDFEB504460089002700902781207926464036002817D0012815D002280AD1BB
:405F800012E002AA01A9204601F03EFD002807D101980BF08FFA204601F05EFD0028F0D02046FEF7C3FCB776254680352868002802D00BF089FA2F606868002802D00BF08D
:405FC00083FA6F60317B002919D0009800F064F8A078002100F086FF2046FFF79BFAA07801F07AF8A07800F037FDFF212046FFF773F80B20FFF734F800F068FCFEBD1F21DA
:406000003173E2E7F8B517460E46054602F000FC04003CD020460C3001F018F82046062200211830FCF700FC2046062200211230FCF7FAFB1648224600683946436A284622
:406040009847074626702846FEF720FD012148406070002D10D02889608028464030C1782171002E0FD169796171018AE180418A2181808A608106E00648008BC005C00FC4
:406080002071002060803946204603F028F8F8BDD80D002000102E400A4610B50146002003F03AF910BD10B50AF016FF10BD000000B50146FFF708FA002801D0002000E022
:4060C0000348002802D002898A4200D0002000BD8C15002038B5044680346068002806D168460BF093F9002801D100986060606838BD000010B5014600F086FB01288878FA
:4061000002D0FEF7CDFC10BD90214843024940186030007F10BD00006C15002070B5054604464035A87F012811D1A1789020084A484380186030067F3046FEF77FFE0028E2
:4061400005D10220A877A078314601F06FF870BD6C15002010B50C4CA07A002813D0FEF719FF0A48027F417F408B00F0B7FB012809D10020A07200F007FF05498989090B65
:4061800001D000F03BFA10BD3C1600206C150020A0102E4070477047490510B5490F0B00FCF742FD060704080C0C0F073E21FFF787FE10BD0821FFF7C3FE10BDFFF7D1FE75
:4061C00010BDFFF7ADFE10BDF8B507460025002D01D0002600E0204E00F09AFE3046403044890021418100F09DFE304600F001FB01282BD1A00702D52846FFF717FEE006C6
:4062000002D52846FFF76EFEA00601D5FEF7C2FE600601D500F014FB200602D5284600F01DF8600702D5284600F02CFA380402D52846FFF719FB780402D52846FFF706FBD6
:40624000E00703D021463046FFF7A6FF6D1C2D062D0EBCD0F8BD00008C150020F8B5002801D0002400E0284C002C4BD025464035A878012846D1FF278820493700593E4623
:40628000002805D02149897A890601D5878AC68A2046FEF7FBFB012834D002F0BDFA2A8A6179FFF741F9009001F024F800983346283081B23A46204602F002F8E98AA07833
:4062C00001F0E2F912480188688A124E002810D048431149FCF758FA0004000C01D0401C80B27080A07DC107C90F002001F0A8FA01E000207080288A698A484381B2A07830
:4063000001F042FAF8BD00008C1500202415002060112E40B20D0020710200000149096809680847F40D002070B50D460026194A0146002801D0002401E014462034002C74
:4063400026D0204600F060FA01280AD19020484380186030007FFEF771FD002801D101F0A9FE0D48006881692046884700280CD020464030817EA94202D3491B817600E0EC
:4063800086762089294602F068FF204600F062FC70BD00006C150020F40D002070B503460088FFF785FE040013D000F022FA00280FD02079092819D0254699784035297324
:4063C000204601F0F7FE0646A878012803D0AA8A02E0022070BDEA880A20424301212046FEF76FFE002E01D109202071002070BD0EB5002217216B460292198100905A810B
:406400000120029B00990BF0FFF80EBDF8B518480024807A002822D1164E0025B089000B22E0204600F032FE1249A039401807882A462146384600F051FA012810D00E48A3
:406440000122478305770A4944778A72002D01D0002000E02030002801D000F0FBFBF8BDB089000B641CE4B20028DAD1F8BD00003C160020A0102E406C15002010B5008867
:40648000FFF716FE002809D0014640310C460978082905D00B2903D00C2010BD022010BDFFF71CFC002801D009202070002010BD70B503460088FFF7FBFD040008D0254679
:4064C00040352878082805D00B2803D00C2070BD022070BD8420005910220830991CFCF79AF92046FFF7CCFA2878082804D02046FFF77EFC002801D00A202870204600F085
:40650000A9FB002070BD000010B50C46002121700088FFF7CDFD03000BD000F06AF9002807D00948F121807A0840C00603D4112010BD022010BD022020701A8A18890021E2
:4065400002F006FF002010BD24150020F8B50F46002100910088FFF7ABFD040012D000F048F900280ED0E079410641D4617E02264A07002A08DB8907402500291ADA284350
:40658000E07135E00220F8BD02F042F90021017021894180A1898180217E4170E189C1803E7005460178134802F0ACFB284602F073FE1DE0204600F02DF9012806D06846F1
:4065C0000AF014FF002803D00720F8BD2A20F8BDE07900992843E071204601F015FE607E0421304360760448C28A2046FEF769FD0020F8BD1D040000241500203EB5002297
:406600000F236C460292238100910190628169460EC900200AF0F8FF3EBD0000F8B50F46054600F097FA040025D003202071254600264035EE76E6702046FFF7A7F901F07F
:406640000FF80920FEF70CFDA07800F033FD0121204600F019FB2E706E70AE703A4600212046FFF7CFFC0649887B401C8873A078FFF754FEF8BD284601F0B6F8F8BD000046
:406680006C15002010B5002801D0002000E0094800280DD0014640310A464978022901D100215170807DC107C90F002001F0C8F810BD00008C15002070B503460D46008838
:4066C000FFF7F6FC04000BD000F093F8002807D01248F121807A0840C00603D4112070BD022070BD20464030418A008A491C41430804C10C5888884201D2122070BD2082F6
:406700002079072802D12046FFF7CAF8022028702089002102F044FE002070BD24150020016A491C016204D1817E491C4906490E81767047C169491CC16104D1C17E491C58
:406740004906490EC1767047F0B5074687B003A8009005A800260D460190002F01D0002400E01B4C002C05D06846FCF7AFF8002803D00BE0022007B0F0BD68460089C0074C
:4067800004D1902200212046FCF74EF8114829460068826820469047050016D1A77066762746267140373E70204600F019F8204601F04EF9084820820848BE77807AF121AB
:4067C000084000D001202075E682E8B2D3E700008C150020F40D0020B80B000024150020002101628176C161C17620300177417770470079002805D0012803D0022801D099
:4068000001207047002070474030807F002800D00120704740300078002807D0012805D0052803D00E2801D0012070470020704710B5807801F08CF8002800D0012010BDB7
:4068400010B500F0A1FB03498989090B01D0FFF7D5FE10BDA0102E4070B5054604464035A87F002825D1FF206075A0789021154A484380186030417F9023491CC9B2417782
:40688000A0785843104B8018DB896030994201D300214177A0789021484380186030467F0677A1783046FEF7C9FA002802D00120A87770BD0220A877A078314600F0B6FCD8
:4068C00070BD00006C150020581600200020401C0006000EFBD0002070470000F0B515468207920F85B0000A02926A469080002D01D0002400E0564C002C28D0084600F047
:40690000C5FB07466846808800280BD00298012843D0022841D003280BD03D20005D012879D08FE04B48381801882046FFF71DF888E00020029002A80AF038FD002807D010
:406940003D20005D012802D12046FFF7E9FE7CE06846029E8388324600213846FCF7DCFE3C48381801882046FEF7FFFF284600F0A9FA01AA21463046FEF7ECFD002806D06A
:4069800030460AF083FD3D204C21085531E0F5773146204601F0C4F957E0002000902089039068460AF0F2FC002802D0002005B0F0BD6846009E8388321D00213846FCF74B
:4069C000ABFE2448381801882046FEF7CEFF284600F078FA2046FFF70CFF002805D025464035287E002810D107E030460AF044FD2BE02046FFF76AFA27E001AA21463046CC
:406A0000029BFEF7DFFD002806D030460AF034FD3D202873EDE712E00298FEF7B5FF0399317003990001090A0143717068468088B070000AF0703046FFF7DAFC05E0204669
:406A4000FFF76EFE284600F03DFA0120AFE700008C15002000102E4010B5074A917B002901D0491E91730021FFF76EFE002801D0002010BD012010BD6C150020F8B50746B0
:406A800006464037B87F00282DD0B078902100904843234945186035287F0099FEF7E3F901281ED0287F401CC4B21E48C089A04200D800240020B877FF276F772F77A87717
:406AC00002460146009800F01DFD717DFF2903D0304600F07EFF777501F0ECFA0025114F19E00320B877F8BD00200090224669463046FEF7FDFE0099002904D0FF231A460C
:406B00003046FEF7C8F9641CF889E4B2A04200D800246D1CEDB2F889A842E5D8F8BD00006C1500205816002010B502460021084B03E0002901D0002000E018460479944271
:406B400004D0491C0906090EF3D0002010BD00008C15002000B50120FFF7E6FF00BD10B5044601F055FE2189018080346168416061682831816002F049FB10BDF7B506463D
:406B8000087982B00C46092807D0A078F0770846FFF73AFE012806D010E030460AF08AFC022005B0F0BDA1789020294A484380186030007FFEF742F9012810D0A078FEF7B0
:406BC000D7FD01280BD037780121304601F01EFA25462035062F38D00B2F0FD107E06846027C21463046FEF7B3FE0D20D9E72046FDF74CFF012801D1002028772046FFF718
:406C000079FA054604AA21463046FEF710FD01205F2108556946097C002001910090A07833463A46294600F0ABFA69460A7CA0780323294600F0ECFDA0782946FDF754FEF8
:406C400030460AF037FC0020ABE70120D5E700006C15002010B502464032937F0021002B03D1927E002A00D00121064A927A002A00D000210279092A00D10121807800F064
:406C8000FFFD10BD3C16002070B50C460546FDF7FDFE00280BD1012C06D92879092806D02846FFF7C5FD0446002C02D004E0012402E0A87DC007FAD1A87DC107C90F2046F5
:406CC00000F0BEFD70BD0000012807D0082804D104480282034808300180704701488038FAE70000A0102E40014908817047000000102E4010B50446FF20F130012C01D1D6
:406D0000FF20D530002200F0EDFD044A108A044980B2A0430880108210BD000000102E40B60D0020034B198A034A89B2814311801982704700102E40B60D002010B5044611
:406D4000012802D0082C07D102E0FF20D53001E0FF20F13000F0BEFD0348018A034A89B221431180018210BD00102E40B60D0020034B198A034A89B2014311801982704796
:406D800000102E40B60D0020F8B505460120A84086B214460F46012231467C2000F0A2FD3A463146782000F09DFD6078267800020643E078A27800020243607923790002BB
:406DC00003430C2045430D2080010549281844182680001D44182280001D40180380F8BD00102E40CB065B0E0343480901021943D00108430121C902084301490881704707
:406E000080142E404278037812021343084A1382C37880781B021843908248780B78000203431383C8788978000201439183704700142E40024A1080000C908011817047D7
:406E400000142E40044A002180180288491C89B21029FAD37047000000102E40024A10820148803081817047A0102E4010B5054A1082084600F05AFD024A0021A03A80185C
:406E8000018010BDA0102E4010B50B46044600F005F819462046FFF7E1FF10BD024A10820148803001817047A0102E4010B504490882FF20002220211D3000F013FD10BD4B
:406EC000A0102E40000202494D3008807047000000102E400249888A0422904388827047C0112E4010B5084B074C0202A03B0029208202D075321A8010BD044900200880AD
:406F000088807632F7E70000A0102E40201A2E4000B5034908884880FFF704FF00BD0000B60D002000B502484088FFF721FF00BDB60D002010B5FCF7A5FD10BD01495220AB
:406F40000880704700102E40884201D8081A03E00022D243101A401880B2704700210170704700000748808806492039098B884201D8081A03E00022D243101A401880B29B
:406F80007047000020112E400148008AC0B27047A0102E4070B5084C049D2082074804890548603006880E8001891180808818806007400F287070BDA0102E40E0112E401D
:406FC0000148008970470000C0102E4000280FD00D4A108B0870000A4870908B8870000AC8700948203000880871000A48717047064A10880870000A487090888870000AEA
:40700000C8701089F0E7000040102E40C0112E4000B5024A00F004F800BD0000FF7F000000B51346FFF790FF984201D8022800D2002000BD0148008A70470000001A2E4052
:40704000014880887047000020102E40064B1A8999891B8A0270120A42708170090AC1700371190A4171704760102E40012904D00549098BC90B0170704703494031098931
:407080008907C90FF7E7000000102E40014840897047000058160020044A10820448028980894843101880B270470000A0102E40581600209021074B414300B5C918FF226F
:4070C00060314A770A7700228A77114600F01AFA00BD00006C15002090225043074A10B58018FF21603041770177002181770448418EFF201D3000F0EDFB10BD6C15002028
:407100002415002000B5044A1082034880308088022200F003F800BDA0102E4010B50023884201D8081A03E00024E443201A4018044980B2884201D8824200D901231846C6
:4071400010BD0000FF7F000070B55478157824022543D47888232602947834435679127936023243002900D09823044908820348A038181805808480028170BDA0102E40DA
:40718000FFB581B014460D4607460A9E0B9BFFF783FF002E0AD0009333460021049AFCF74BFB05484019C45505B0F0BD0021049AFCF728FBF5E70000BA0D002070B50246F8
:4071C0000448054D808808242C800B460021FCF719FB70BD58160020A0142E4010B5212402466401044953200880102300212046FCF708FB10BD000000102E40417802788E
:407200000902044B0A431A83C1788078090208439883704760142E40034A1082802001430148803001817047A0102E40054A1082044A6032908B000900010843911508439A
